{
	"contracts/day_2/array.sol": {
		"array": {
			"abi": [
				{
					"inputs": [],
					"name": "accessArray",
					"outputs": [
						{
							"internalType": "uint256[]",
							"name": "",
							"type": "uint256[]"
						}
					],
					"stateMutability": "view",
					"type": "function"
				},
				{
					"inputs": [],
					"name": "accessSArray",
					"outputs": [
						{
							"internalType": "string[]",
							"name": "",
							"type": "string[]"
						}
					],
					"stateMutability": "view",
					"type": "function"
				},
				{
					"inputs": [],
					"name": "arrayLength",
					"outputs": [
						{
							"internalType": "uint256",
							"name": "",
							"type": "uint256"
						}
					],
					"stateMutability": "view",
					"type": "function"
				},
				{
					"inputs": [],
					"name": "popArray",
					"outputs": [],
					"stateMutability": "nonpayable",
					"type": "function"
				},
				{
					"inputs": [],
					"name": "popSArray",
					"outputs": [],
					"stateMutability": "nonpayable",
					"type": "function"
				},
				{
					"inputs": [
						{
							"internalType": "uint256",
							"name": "_num",
							"type": "uint256"
						}
					],
					"name": "pushArray",
					"outputs": [],
					"stateMutability": "nonpayable",
					"type": "function"
				},
				{
					"inputs": [
						{
							"internalType": "string",
							"name": "_word",
							"type": "string"
						}
					],
					"name": "pushSArray",
					"outputs": [],
					"stateMutability": "nonpayable",
					"type": "function"
				},
				{
					"inputs": [],
					"name": "sArrayLenght",
					"outputs": [
						{
							"internalType": "uint256",
							"name": "",
							"type": "uint256"
						}
					],
					"stateMutability": "view",
					"type": "function"
				}
			],
			"devdoc": {
				"kind": "dev",
				"methods": {},
				"version": 1
			},
			"evm": {
				"assembly": "    /* \"contracts/day_2/array.sol\":60:876  contract array {... */\n  mstore(0x40, 0x80)\n  callvalue\n  dup1\n  iszero\n  tag_1\n  jumpi\n  0x00\n  dup1\n  revert\ntag_1:\n  pop\n  dataSize(sub_0)\n  dup1\n  dataOffset(sub_0)\n  0x00\n  codecopy\n  0x00\n  return\nstop\n\nsub_0: assembly {\n        /* \"contracts/day_2/array.sol\":60:876  contract array {... */\n      mstore(0x40, 0x80)\n      callvalue\n      dup1\n      iszero\n      tag_1\n      jumpi\n      0x00\n      dup1\n      revert\n    tag_1:\n      pop\n      jumpi(tag_2, lt(calldatasize, 0x04))\n      shr(0xe0, calldataload(0x00))\n      dup1\n      0x97939ac4\n      gt\n      tag_11\n      jumpi\n      dup1\n      0x97939ac4\n      eq\n      tag_7\n      jumpi\n      dup1\n      0xae713d2a\n      eq\n      tag_8\n      jumpi\n      dup1\n      0xe554482e\n      eq\n      tag_9\n      jumpi\n      dup1\n      0xf66c884a\n      eq\n      tag_10\n      jumpi\n      jump(tag_2)\n    tag_11:\n      dup1\n      0x131cf9c1\n      eq\n      tag_3\n      jumpi\n      dup1\n      0x16cdf825\n      eq\n      tag_4\n      jumpi\n      dup1\n      0x30c36fcd\n      eq\n      tag_5\n      jumpi\n      dup1\n      0x4c987a53\n      eq\n      tag_6\n      jumpi\n    tag_2:\n      0x00\n      dup1\n      revert\n        /* \"contracts/day_2/array.sol\":106:197  function accessArray() public view returns(uint[] memory){... */\n    tag_3:\n      tag_12\n      tag_13\n      jump\t// in\n    tag_12:\n      mload(0x40)\n      tag_14\n      swap2\n      swap1\n      tag_15\n      jump\t// in\n    tag_14:\n      mload(0x40)\n      dup1\n      swap2\n      sub\n      swap1\n      return\n        /* \"contracts/day_2/array.sol\":205:279  function pushArray(uint _num) public{... */\n    tag_4:\n      tag_16\n      0x04\n      dup1\n      calldatasize\n      sub\n      dup2\n      add\n      swap1\n      tag_17\n      swap2\n      swap1\n      tag_18\n      jump\t// in\n    tag_17:\n      tag_19\n      jump\t// in\n    tag_16:\n      stop\n        /* \"contracts/day_2/array.sol\":684:748  function popSArray() public {... */\n    tag_5:\n      tag_20\n      tag_21\n      jump\t// in\n    tag_20:\n      stop\n        /* \"contracts/day_2/array.sol\":586:676  function pushSArray(string memory _word) public {... */\n    tag_6:\n      tag_22\n      0x04\n      dup1\n      calldatasize\n      sub\n      dup2\n      add\n      swap1\n      tag_23\n      swap2\n      swap1\n      tag_24\n      jump\t// in\n    tag_23:\n      tag_25\n      jump\t// in\n    tag_22:\n      stop\n        /* \"contracts/day_2/array.sol\":480:578  function accessSArray() public view returns (string[] memory){... */\n    tag_7:\n      tag_26\n      tag_27\n      jump\t// in\n    tag_26:\n      mload(0x40)\n      tag_28\n      swap2\n      swap1\n      tag_29\n      jump\t// in\n    tag_28:\n      mload(0x40)\n      dup1\n      swap2\n      sub\n      swap1\n      return\n        /* \"contracts/day_2/array.sol\":287:346  function popArray() public{... */\n    tag_8:\n      tag_30\n      tag_31\n      jump\t// in\n    tag_30:\n      stop\n        /* \"contracts/day_2/array.sol\":354:443  function arrayLength() public view returns(uint){... */\n    tag_9:\n      tag_32\n      tag_33\n      jump\t// in\n    tag_32:\n      mload(0x40)\n      tag_34\n      swap2\n      swap1\n      tag_35\n      jump\t// in\n    tag_34:\n      mload(0x40)\n      dup1\n      swap2\n      sub\n      swap1\n      return\n        /* \"contracts/day_2/array.sol\":756:850  function sArrayLenght() public view returns (uint){... */\n    tag_10:\n      tag_36\n      tag_37\n      jump\t// in\n    tag_36:\n      mload(0x40)\n      tag_38\n      swap2\n      swap1\n      tag_35\n      jump\t// in\n    tag_38:\n      mload(0x40)\n      dup1\n      swap2\n      sub\n      swap1\n      return\n        /* \"contracts/day_2/array.sol\":106:197  function accessArray() public view returns(uint[] memory){... */\n    tag_13:\n        /* \"contracts/day_2/array.sol\":149:162  uint[] memory */\n      0x60\n        /* \"contracts/day_2/array.sol\":181:189  intArray */\n      0x00\n        /* \"contracts/day_2/array.sol\":174:189  return intArray */\n      dup1\n      sload\n      dup1\n      0x20\n      mul\n      0x20\n      add\n      mload(0x40)\n      swap1\n      dup2\n      add\n      0x40\n      mstore\n      dup1\n      swap3\n      swap2\n      swap1\n      dup2\n      dup2\n      mstore\n      0x20\n      add\n      dup3\n      dup1\n      sload\n      dup1\n      iszero\n      tag_40\n      jumpi\n      0x20\n      mul\n      dup3\n      add\n      swap2\n      swap1\n      0x00\n      mstore\n      keccak256(0x00, 0x20)\n      swap1\n    tag_41:\n      dup2\n      sload\n      dup2\n      mstore\n      0x20\n      add\n      swap1\n      0x01\n      add\n      swap1\n      dup1\n      dup4\n      gt\n      tag_41\n      jumpi\n    tag_40:\n      pop\n      pop\n      pop\n      pop\n      pop\n      swap1\n      pop\n        /* \"contracts/day_2/array.sol\":106:197  function accessArray() public view returns(uint[] memory){... */\n      swap1\n      jump\t// out\n        /* \"contracts/day_2/array.sol\":205:279  function pushArray(uint _num) public{... */\n    tag_19:\n        /* \"contracts/day_2/array.sol\":252:260  intArray */\n      0x00\n        /* \"contracts/day_2/array.sol\":266:270  _num */\n      dup2\n        /* \"contracts/day_2/array.sol\":252:271  intArray.push(_num) */\n      swap1\n      dup1\n      0x01\n      dup2\n      sload\n      add\n      dup1\n      dup3\n      sstore\n      dup1\n      swap2\n      pop\n      pop\n      0x01\n      swap1\n      sub\n      swap1\n      0x00\n      mstore\n      keccak256(0x00, 0x20)\n      add\n      0x00\n      swap1\n      swap2\n      swap1\n      swap2\n      swap1\n      swap2\n      pop\n      sstore\n        /* \"contracts/day_2/array.sol\":205:279  function pushArray(uint _num) public{... */\n      pop\n      jump\t// out\n        /* \"contracts/day_2/array.sol\":684:748  function popSArray() public {... */\n    tag_21:\n        /* \"contracts/day_2/array.sol\":723:734  stringArray */\n      0x01\n        /* \"contracts/day_2/array.sol\":723:740  stringArray.pop() */\n      dup1\n      sload\n      dup1\n      tag_45\n      jumpi\n      tag_46\n      tag_47\n      jump\t// in\n    tag_46:\n    tag_45:\n      0x01\n      swap1\n      sub\n      dup2\n      dup2\n      swap1\n      0x00\n      mstore\n      keccak256(0x00, 0x20)\n      add\n      0x00\n      tag_49\n      swap2\n      swap1\n      tag_50\n      jump\t// in\n    tag_49:\n      swap1\n      sstore\n        /* \"contracts/day_2/array.sol\":684:748  function popSArray() public {... */\n      jump\t// out\n        /* \"contracts/day_2/array.sol\":586:676  function pushSArray(string memory _word) public {... */\n    tag_25:\n        /* \"contracts/day_2/array.sol\":645:656  stringArray */\n      0x01\n        /* \"contracts/day_2/array.sol\":662:667  _word */\n      dup2\n        /* \"contracts/day_2/array.sol\":645:668  stringArray.push(_word) */\n      swap1\n      dup1\n      0x01\n      dup2\n      sload\n      add\n      dup1\n      dup3\n      sstore\n      dup1\n      swap2\n      pop\n      pop\n      0x01\n      swap1\n      sub\n      swap1\n      0x00\n      mstore\n      keccak256(0x00, 0x20)\n      add\n      0x00\n      swap1\n      swap2\n      swap1\n      swap2\n      swap1\n      swap2\n      pop\n      swap1\n      dup2\n      tag_53\n      swap2\n      swap1\n      tag_54\n      jump\t// in\n    tag_53:\n      pop\n        /* \"contracts/day_2/array.sol\":586:676  function pushSArray(string memory _word) public {... */\n      pop\n      jump\t// out\n        /* \"contracts/day_2/array.sol\":480:578  function accessSArray() public view returns (string[] memory){... */\n    tag_27:\n        /* \"contracts/day_2/array.sol\":525:540  string[] memory */\n      0x60\n        /* \"contracts/day_2/array.sol\":559:570  stringArray */\n      0x01\n        /* \"contracts/day_2/array.sol\":552:570  return stringArray */\n      dup1\n      sload\n      dup1\n      0x20\n      mul\n      0x20\n      add\n      mload(0x40)\n      swap1\n      dup2\n      add\n      0x40\n      mstore\n      dup1\n      swap3\n      swap2\n      swap1\n      dup2\n      dup2\n      mstore\n      0x20\n      add\n      0x00\n      swap1\n    tag_56:\n      dup3\n      dup3\n      lt\n      iszero\n      tag_57\n      jumpi\n      dup4\n      dup3\n      swap1\n      0x00\n      mstore\n      keccak256(0x00, 0x20)\n      add\n      dup1\n      sload\n      tag_59\n      swap1\n      tag_60\n      jump\t// in\n    tag_59:\n      dup1\n      0x1f\n      add\n      0x20\n      dup1\n      swap2\n      div\n      mul\n      0x20\n      add\n      mload(0x40)\n      swap1\n      dup2\n      add\n      0x40\n      mstore\n      dup1\n      swap3\n      swap2\n      swap1\n      dup2\n      dup2\n      mstore\n      0x20\n      add\n      dup3\n      dup1\n      sload\n      tag_61\n      swap1\n      tag_60\n      jump\t// in\n    tag_61:\n      dup1\n      iszero\n      tag_62\n      jumpi\n      dup1\n      0x1f\n      lt\n      tag_63\n      jumpi\n      0x0100\n      dup1\n      dup4\n      sload\n      div\n      mul\n      dup4\n      mstore\n      swap2\n      0x20\n      add\n      swap2\n      jump(tag_62)\n    tag_63:\n      dup3\n      add\n      swap2\n      swap1\n      0x00\n      mstore\n      keccak256(0x00, 0x20)\n      swap1\n    tag_64:\n      dup2\n      sload\n      dup2\n      mstore\n      swap1\n      0x01\n      add\n      swap1\n      0x20\n      add\n      dup1\n      dup4\n      gt\n      tag_64\n      jumpi\n      dup3\n      swap1\n      sub\n      0x1f\n      and\n      dup3\n      add\n      swap2\n    tag_62:\n      pop\n      pop\n      pop\n      pop\n      pop\n      dup2\n      mstore\n      0x20\n      add\n      swap1\n      0x01\n      add\n      swap1\n      jump(tag_56)\n    tag_57:\n      pop\n      pop\n      pop\n      pop\n      swap1\n      pop\n        /* \"contracts/day_2/array.sol\":480:578  function accessSArray() public view returns (string[] memory){... */\n      swap1\n      jump\t// out\n        /* \"contracts/day_2/array.sol\":287:346  function popArray() public{... */\n    tag_31:\n        /* \"contracts/day_2/array.sol\":324:332  intArray */\n      0x00\n        /* \"contracts/day_2/array.sol\":324:338  intArray.pop() */\n      dup1\n      sload\n      dup1\n      tag_66\n      jumpi\n      tag_67\n      tag_47\n      jump\t// in\n    tag_67:\n    tag_66:\n      0x01\n      swap1\n      sub\n      dup2\n      dup2\n      swap1\n      0x00\n      mstore\n      keccak256(0x00, 0x20)\n      add\n      0x00\n      swap1\n      sstore\n      swap1\n      sstore\n        /* \"contracts/day_2/array.sol\":287:346  function popArray() public{... */\n      jump\t// out\n        /* \"contracts/day_2/array.sol\":354:443  function arrayLength() public view returns(uint){... */\n    tag_33:\n        /* \"contracts/day_2/array.sol\":397:401  uint */\n      0x00\n        /* \"contracts/day_2/array.sol\":420:428  intArray */\n      dup1\n        /* \"contracts/day_2/array.sol\":420:435  intArray.length */\n      dup1\n      sload\n      swap1\n      pop\n        /* \"contracts/day_2/array.sol\":413:435  return intArray.length */\n      swap1\n      pop\n        /* \"contracts/day_2/array.sol\":354:443  function arrayLength() public view returns(uint){... */\n      swap1\n      jump\t// out\n        /* \"contracts/day_2/array.sol\":756:850  function sArrayLenght() public view returns (uint){... */\n    tag_37:\n        /* \"contracts/day_2/array.sol\":801:805  uint */\n      0x00\n        /* \"contracts/day_2/array.sol\":824:835  stringArray */\n      0x01\n        /* \"contracts/day_2/array.sol\":824:842  stringArray.length */\n      dup1\n      sload\n      swap1\n      pop\n        /* \"contracts/day_2/array.sol\":817:842  return stringArray.length */\n      swap1\n      pop\n        /* \"contracts/day_2/array.sol\":756:850  function sArrayLenght() public view returns (uint){... */\n      swap1\n      jump\t// out\n    tag_50:\n      pop\n      dup1\n      sload\n      tag_71\n      swap1\n      tag_60\n      jump\t// in\n    tag_71:\n      0x00\n      dup3\n      sstore\n      dup1\n      0x1f\n      lt\n      tag_73\n      jumpi\n      pop\n      jump(tag_72)\n    tag_73:\n      0x1f\n      add\n      0x20\n      swap1\n      div\n      swap1\n      0x00\n      mstore\n      keccak256(0x00, 0x20)\n      swap1\n      dup2\n      add\n      swap1\n      tag_74\n      swap2\n      swap1\n      tag_75\n      jump\t// in\n    tag_74:\n    tag_72:\n      pop\n      jump\t// out\n    tag_75:\n    tag_76:\n      dup1\n      dup3\n      gt\n      iszero\n      tag_77\n      jumpi\n      0x00\n      dup2\n      0x00\n      swap1\n      sstore\n      pop\n      0x01\n      add\n      jump(tag_76)\n    tag_77:\n      pop\n      swap1\n      jump\t// out\n        /* \"#utility.yul\":7:121   */\n    tag_78:\n        /* \"#utility.yul\":74:80   */\n      0x00\n        /* \"#utility.yul\":108:113   */\n      dup2\n        /* \"#utility.yul\":102:114   */\n      mload\n        /* \"#utility.yul\":92:114   */\n      swap1\n      pop\n        /* \"#utility.yul\":7:121   */\n      swap2\n      swap1\n      pop\n      jump\t// out\n        /* \"#utility.yul\":127:311   */\n    tag_79:\n        /* \"#utility.yul\":226:237   */\n      0x00\n        /* \"#utility.yul\":260:266   */\n      dup3\n        /* \"#utility.yul\":255:258   */\n      dup3\n        /* \"#utility.yul\":248:267   */\n      mstore\n        /* \"#utility.yul\":300:304   */\n      0x20\n        /* \"#utility.yul\":295:298   */\n      dup3\n        /* \"#utility.yul\":291:305   */\n      add\n        /* \"#utility.yul\":276:305   */\n      swap1\n      pop\n        /* \"#utility.yul\":127:311   */\n      swap3\n      swap2\n      pop\n      pop\n      jump\t// out\n        /* \"#utility.yul\":317:449   */\n    tag_80:\n        /* \"#utility.yul\":384:388   */\n      0x00\n        /* \"#utility.yul\":407:410   */\n      dup2\n        /* \"#utility.yul\":399:410   */\n      swap1\n      pop\n        /* \"#utility.yul\":437:441   */\n      0x20\n        /* \"#utility.yul\":432:435   */\n      dup3\n        /* \"#utility.yul\":428:442   */\n      add\n        /* \"#utility.yul\":420:442   */\n      swap1\n      pop\n        /* \"#utility.yul\":317:449   */\n      swap2\n      swap1\n      pop\n      jump\t// out\n        /* \"#utility.yul\":455:532   */\n    tag_81:\n        /* \"#utility.yul\":492:499   */\n      0x00\n        /* \"#utility.yul\":521:526   */\n      dup2\n        /* \"#utility.yul\":510:526   */\n      swap1\n      pop\n        /* \"#utility.yul\":455:532   */\n      swap2\n      swap1\n      pop\n      jump\t// out\n        /* \"#utility.yul\":538:646   */\n    tag_82:\n        /* \"#utility.yul\":615:639   */\n      tag_134\n        /* \"#utility.yul\":633:638   */\n      dup2\n        /* \"#utility.yul\":615:639   */\n      tag_81\n      jump\t// in\n    tag_134:\n        /* \"#utility.yul\":610:613   */\n      dup3\n        /* \"#utility.yul\":603:640   */\n      mstore\n        /* \"#utility.yul\":538:646   */\n      pop\n      pop\n      jump\t// out\n        /* \"#utility.yul\":652:831   */\n    tag_83:\n        /* \"#utility.yul\":721:731   */\n      0x00\n        /* \"#utility.yul\":742:788   */\n      tag_136\n        /* \"#utility.yul\":784:787   */\n      dup4\n        /* \"#utility.yul\":776:782   */\n      dup4\n        /* \"#utility.yul\":742:788   */\n      tag_82\n      jump\t// in\n    tag_136:\n        /* \"#utility.yul\":820:824   */\n      0x20\n        /* \"#utility.yul\":815:818   */\n      dup4\n        /* \"#utility.yul\":811:825   */\n      add\n        /* \"#utility.yul\":797:825   */\n      swap1\n      pop\n        /* \"#utility.yul\":652:831   */\n      swap3\n      swap2\n      pop\n      pop\n      jump\t// out\n        /* \"#utility.yul\":837:950   */\n    tag_84:\n        /* \"#utility.yul\":907:911   */\n      0x00\n        /* \"#utility.yul\":939:943   */\n      0x20\n        /* \"#utility.yul\":934:937   */\n      dup3\n        /* \"#utility.yul\":930:944   */\n      add\n        /* \"#utility.yul\":922:944   */\n      swap1\n      pop\n        /* \"#utility.yul\":837:950   */\n      swap2\n      swap1\n      pop\n      jump\t// out\n        /* \"#utility.yul\":986:1718   */\n    tag_85:\n        /* \"#utility.yul\":1105:1108   */\n      0x00\n        /* \"#utility.yul\":1134:1188   */\n      tag_139\n        /* \"#utility.yul\":1182:1187   */\n      dup3\n        /* \"#utility.yul\":1134:1188   */\n      tag_78\n      jump\t// in\n    tag_139:\n        /* \"#utility.yul\":1204:1290   */\n      tag_140\n        /* \"#utility.yul\":1283:1289   */\n      dup2\n        /* \"#utility.yul\":1278:1281   */\n      dup6\n        /* \"#utility.yul\":1204:1290   */\n      tag_79\n      jump\t// in\n    tag_140:\n        /* \"#utility.yul\":1197:1290   */\n      swap4\n      pop\n        /* \"#utility.yul\":1314:1370   */\n      tag_141\n        /* \"#utility.yul\":1364:1369   */\n      dup4\n        /* \"#utility.yul\":1314:1370   */\n      tag_80\n      jump\t// in\n    tag_141:\n        /* \"#utility.yul\":1393:1400   */\n      dup1\n        /* \"#utility.yul\":1424:1425   */\n      0x00\n        /* \"#utility.yul\":1409:1693   */\n    tag_142:\n        /* \"#utility.yul\":1434:1440   */\n      dup4\n        /* \"#utility.yul\":1431:1432   */\n      dup2\n        /* \"#utility.yul\":1428:1441   */\n      lt\n        /* \"#utility.yul\":1409:1693   */\n      iszero\n      tag_144\n      jumpi\n        /* \"#utility.yul\":1510:1516   */\n      dup2\n        /* \"#utility.yul\":1504:1517   */\n      mload\n        /* \"#utility.yul\":1537:1600   */\n      tag_145\n        /* \"#utility.yul\":1596:1599   */\n      dup9\n        /* \"#utility.yul\":1581:1594   */\n      dup3\n        /* \"#utility.yul\":1537:1600   */\n      tag_83\n      jump\t// in\n    tag_145:\n        /* \"#utility.yul\":1530:1600   */\n      swap8\n      pop\n        /* \"#utility.yul\":1623:1683   */\n      tag_146\n        /* \"#utility.yul\":1676:1682   */\n      dup4\n        /* \"#utility.yul\":1623:1683   */\n      tag_84\n      jump\t// in\n    tag_146:\n        /* \"#utility.yul\":1613:1683   */\n      swap3\n      pop\n        /* \"#utility.yul\":1469:1693   */\n      pop\n        /* \"#utility.yul\":1456:1457   */\n      0x01\n        /* \"#utility.yul\":1453:1454   */\n      dup2\n        /* \"#utility.yul\":1449:1458   */\n      add\n        /* \"#utility.yul\":1444:1458   */\n      swap1\n      pop\n        /* \"#utility.yul\":1409:1693   */\n      jump(tag_142)\n    tag_144:\n        /* \"#utility.yul\":1413:1427   */\n      pop\n        /* \"#utility.yul\":1709:1712   */\n      dup6\n        /* \"#utility.yul\":1702:1712   */\n      swap4\n      pop\n        /* \"#utility.yul\":1110:1718   */\n      pop\n      pop\n      pop\n        /* \"#utility.yul\":986:1718   */\n      swap3\n      swap2\n      pop\n      pop\n      jump\t// out\n        /* \"#utility.yul\":1724:2097   */\n    tag_15:\n        /* \"#utility.yul\":1867:1871   */\n      0x00\n        /* \"#utility.yul\":1905:1907   */\n      0x20\n        /* \"#utility.yul\":1894:1903   */\n      dup3\n        /* \"#utility.yul\":1890:1908   */\n      add\n        /* \"#utility.yul\":1882:1908   */\n      swap1\n      pop\n        /* \"#utility.yul\":1954:1963   */\n      dup2\n        /* \"#utility.yul\":1948:1952   */\n      dup2\n        /* \"#utility.yul\":1944:1964   */\n      sub\n        /* \"#utility.yul\":1940:1941   */\n      0x00\n        /* \"#utility.yul\":1929:1938   */\n      dup4\n        /* \"#utility.yul\":1925:1942   */\n      add\n        /* \"#utility.yul\":1918:1965   */\n      mstore\n        /* \"#utility.yul\":1982:2090   */\n      tag_148\n        /* \"#utility.yul\":2085:2089   */\n      dup2\n        /* \"#utility.yul\":2076:2082   */\n      dup5\n        /* \"#utility.yul\":1982:2090   */\n      tag_85\n      jump\t// in\n    tag_148:\n        /* \"#utility.yul\":1974:2090   */\n      swap1\n      pop\n        /* \"#utility.yul\":1724:2097   */\n      swap3\n      swap2\n      pop\n      pop\n      jump\t// out\n        /* \"#utility.yul\":2103:2178   */\n    tag_86:\n        /* \"#utility.yul\":2136:2142   */\n      0x00\n        /* \"#utility.yul\":2169:2171   */\n      0x40\n        /* \"#utility.yul\":2163:2172   */\n      mload\n        /* \"#utility.yul\":2153:2172   */\n      swap1\n      pop\n        /* \"#utility.yul\":2103:2178   */\n      swap1\n      jump\t// out\n        /* \"#utility.yul\":2184:2301   */\n    tag_87:\n        /* \"#utility.yul\":2293:2294   */\n      0x00\n        /* \"#utility.yul\":2290:2291   */\n      dup1\n        /* \"#utility.yul\":2283:2295   */\n      revert\n        /* \"#utility.yul\":2307:2424   */\n    tag_88:\n        /* \"#utility.yul\":2416:2417   */\n      0x00\n        /* \"#utility.yul\":2413:2414   */\n      dup1\n        /* \"#utility.yul\":2406:2418   */\n      revert\n        /* \"#utility.yul\":2430:2552   */\n    tag_89:\n        /* \"#utility.yul\":2503:2527   */\n      tag_153\n        /* \"#utility.yul\":2521:2526   */\n      dup2\n        /* \"#utility.yul\":2503:2527   */\n      tag_81\n      jump\t// in\n    tag_153:\n        /* \"#utility.yul\":2496:2501   */\n      dup2\n        /* \"#utility.yul\":2493:2528   */\n      eq\n        /* \"#utility.yul\":2483:2546   */\n      tag_154\n      jumpi\n        /* \"#utility.yul\":2542:2543   */\n      0x00\n        /* \"#utility.yul\":2539:2540   */\n      dup1\n        /* \"#utility.yul\":2532:2544   */\n      revert\n        /* \"#utility.yul\":2483:2546   */\n    tag_154:\n        /* \"#utility.yul\":2430:2552   */\n      pop\n      jump\t// out\n        /* \"#utility.yul\":2558:2697   */\n    tag_90:\n        /* \"#utility.yul\":2604:2609   */\n      0x00\n        /* \"#utility.yul\":2642:2648   */\n      dup2\n        /* \"#utility.yul\":2629:2649   */\n      calldataload\n        /* \"#utility.yul\":2620:2649   */\n      swap1\n      pop\n        /* \"#utility.yul\":2658:2691   */\n      tag_156\n        /* \"#utility.yul\":2685:2690   */\n      dup2\n        /* \"#utility.yul\":2658:2691   */\n      tag_89\n      jump\t// in\n    tag_156:\n        /* \"#utility.yul\":2558:2697   */\n      swap3\n      swap2\n      pop\n      pop\n      jump\t// out\n        /* \"#utility.yul\":2703:3032   */\n    tag_18:\n        /* \"#utility.yul\":2762:2768   */\n      0x00\n        /* \"#utility.yul\":2811:2813   */\n      0x20\n        /* \"#utility.yul\":2799:2808   */\n      dup3\n        /* \"#utility.yul\":2790:2797   */\n      dup5\n        /* \"#utility.yul\":2786:2809   */\n      sub\n        /* \"#utility.yul\":2782:2814   */\n      slt\n        /* \"#utility.yul\":2779:2898   */\n      iszero\n      tag_158\n      jumpi\n        /* \"#utility.yul\":2817:2896   */\n      tag_159\n      tag_87\n      jump\t// in\n    tag_159:\n        /* \"#utility.yul\":2779:2898   */\n    tag_158:\n        /* \"#utility.yul\":2937:2938   */\n      0x00\n        /* \"#utility.yul\":2962:3015   */\n      tag_160\n        /* \"#utility.yul\":3007:3014   */\n      dup5\n        /* \"#utility.yul\":2998:3004   */\n      dup3\n        /* \"#utility.yul\":2987:2996   */\n      dup6\n        /* \"#utility.yul\":2983:3005   */\n      add\n        /* \"#utility.yul\":2962:3015   */\n      tag_90\n      jump\t// in\n    tag_160:\n        /* \"#utility.yul\":2952:3015   */\n      swap2\n      pop\n        /* \"#utility.yul\":2908:3025   */\n      pop\n        /* \"#utility.yul\":2703:3032   */\n      swap3\n      swap2\n      pop\n      pop\n      jump\t// out\n        /* \"#utility.yul\":3038:3155   */\n    tag_91:\n        /* \"#utility.yul\":3147:3148   */\n      0x00\n        /* \"#utility.yul\":3144:3145   */\n      dup1\n        /* \"#utility.yul\":3137:3149   */\n      revert\n        /* \"#utility.yul\":3161:3278   */\n    tag_92:\n        /* \"#utility.yul\":3270:3271   */\n      0x00\n        /* \"#utility.yul\":3267:3268   */\n      dup1\n        /* \"#utility.yul\":3260:3272   */\n      revert\n        /* \"#utility.yul\":3284:3386   */\n    tag_93:\n        /* \"#utility.yul\":3325:3331   */\n      0x00\n        /* \"#utility.yul\":3376:3378   */\n      0x1f\n        /* \"#utility.yul\":3372:3379   */\n      not\n        /* \"#utility.yul\":3367:3369   */\n      0x1f\n        /* \"#utility.yul\":3360:3365   */\n      dup4\n        /* \"#utility.yul\":3356:3370   */\n      add\n        /* \"#utility.yul\":3352:3380   */\n      and\n        /* \"#utility.yul\":3342:3380   */\n      swap1\n      pop\n        /* \"#utility.yul\":3284:3386   */\n      swap2\n      swap1\n      pop\n      jump\t// out\n        /* \"#utility.yul\":3392:3572   */\n    tag_94:\n        /* \"#utility.yul\":3440:3517   */\n      0x4e487b7100000000000000000000000000000000000000000000000000000000\n        /* \"#utility.yul\":3437:3438   */\n      0x00\n        /* \"#utility.yul\":3430:3518   */\n      mstore\n        /* \"#utility.yul\":3537:3541   */\n      0x41\n        /* \"#utility.yul\":3534:3535   */\n      0x04\n        /* \"#utility.yul\":3527:3542   */\n      mstore\n        /* \"#utility.yul\":3561:3565   */\n      0x24\n        /* \"#utility.yul\":3558:3559   */\n      0x00\n        /* \"#utility.yul\":3551:3566   */\n      revert\n        /* \"#utility.yul\":3578:3859   */\n    tag_95:\n        /* \"#utility.yul\":3661:3688   */\n      tag_166\n        /* \"#utility.yul\":3683:3687   */\n      dup3\n        /* \"#utility.yul\":3661:3688   */\n      tag_93\n      jump\t// in\n    tag_166:\n        /* \"#utility.yul\":3653:3659   */\n      dup2\n        /* \"#utility.yul\":3649:3689   */\n      add\n        /* \"#utility.yul\":3791:3797   */\n      dup2\n        /* \"#utility.yul\":3779:3789   */\n      dup2\n        /* \"#utility.yul\":3776:3798   */\n      lt\n        /* \"#utility.yul\":3755:3773   */\n      0xffffffffffffffff\n        /* \"#utility.yul\":3743:3753   */\n      dup3\n        /* \"#utility.yul\":3740:3774   */\n      gt\n        /* \"#utility.yul\":3737:3799   */\n      or\n        /* \"#utility.yul\":3734:3822   */\n      iszero\n      tag_167\n      jumpi\n        /* \"#utility.yul\":3802:3820   */\n      tag_168\n      tag_94\n      jump\t// in\n    tag_168:\n        /* \"#utility.yul\":3734:3822   */\n    tag_167:\n        /* \"#utility.yul\":3842:3852   */\n      dup1\n        /* \"#utility.yul\":3838:3840   */\n      0x40\n        /* \"#utility.yul\":3831:3853   */\n      mstore\n        /* \"#utility.yul\":3621:3859   */\n      pop\n        /* \"#utility.yul\":3578:3859   */\n      pop\n      pop\n      jump\t// out\n        /* \"#utility.yul\":3865:3994   */\n    tag_96:\n        /* \"#utility.yul\":3899:3905   */\n      0x00\n        /* \"#utility.yul\":3926:3946   */\n      tag_170\n      tag_86\n      jump\t// in\n    tag_170:\n        /* \"#utility.yul\":3916:3946   */\n      swap1\n      pop\n        /* \"#utility.yul\":3955:3988   */\n      tag_171\n        /* \"#utility.yul\":3983:3987   */\n      dup3\n        /* \"#utility.yul\":3975:3981   */\n      dup3\n        /* \"#utility.yul\":3955:3988   */\n      tag_95\n      jump\t// in\n    tag_171:\n        /* \"#utility.yul\":3865:3994   */\n      swap2\n      swap1\n      pop\n      jump\t// out\n        /* \"#utility.yul\":4000:4308   */\n    tag_97:\n        /* \"#utility.yul\":4062:4066   */\n      0x00\n        /* \"#utility.yul\":4152:4170   */\n      0xffffffffffffffff\n        /* \"#utility.yul\":4144:4150   */\n      dup3\n        /* \"#utility.yul\":4141:4171   */\n      gt\n        /* \"#utility.yul\":4138:4194   */\n      iszero\n      tag_173\n      jumpi\n        /* \"#utility.yul\":4174:4192   */\n      tag_174\n      tag_94\n      jump\t// in\n    tag_174:\n        /* \"#utility.yul\":4138:4194   */\n    tag_173:\n        /* \"#utility.yul\":4212:4241   */\n      tag_175\n        /* \"#utility.yul\":4234:4240   */\n      dup3\n        /* \"#utility.yul\":4212:4241   */\n      tag_93\n      jump\t// in\n    tag_175:\n        /* \"#utility.yul\":4204:4241   */\n      swap1\n      pop\n        /* \"#utility.yul\":4296:4300   */\n      0x20\n        /* \"#utility.yul\":4290:4294   */\n      dup2\n        /* \"#utility.yul\":4286:4301   */\n      add\n        /* \"#utility.yul\":4278:4301   */\n      swap1\n      pop\n        /* \"#utility.yul\":4000:4308   */\n      swap2\n      swap1\n      pop\n      jump\t// out\n        /* \"#utility.yul\":4314:4462   */\n    tag_98:\n        /* \"#utility.yul\":4412:4418   */\n      dup3\n        /* \"#utility.yul\":4407:4410   */\n      dup2\n        /* \"#utility.yul\":4402:4405   */\n      dup4\n        /* \"#utility.yul\":4389:4419   */\n      calldatacopy\n        /* \"#utility.yul\":4453:4454   */\n      0x00\n        /* \"#utility.yul\":4444:4450   */\n      dup4\n        /* \"#utility.yul\":4439:4442   */\n      dup4\n        /* \"#utility.yul\":4435:4451   */\n      add\n        /* \"#utility.yul\":4428:4455   */\n      mstore\n        /* \"#utility.yul\":4314:4462   */\n      pop\n      pop\n      pop\n      jump\t// out\n        /* \"#utility.yul\":4468:4893   */\n    tag_99:\n        /* \"#utility.yul\":4546:4551   */\n      0x00\n        /* \"#utility.yul\":4571:4637   */\n      tag_178\n        /* \"#utility.yul\":4587:4636   */\n      tag_179\n        /* \"#utility.yul\":4629:4635   */\n      dup5\n        /* \"#utility.yul\":4587:4636   */\n      tag_97\n      jump\t// in\n    tag_179:\n        /* \"#utility.yul\":4571:4637   */\n      tag_96\n      jump\t// in\n    tag_178:\n        /* \"#utility.yul\":4562:4637   */\n      swap1\n      pop\n        /* \"#utility.yul\":4660:4666   */\n      dup3\n        /* \"#utility.yul\":4653:4658   */\n      dup2\n        /* \"#utility.yul\":4646:4667   */\n      mstore\n        /* \"#utility.yul\":4698:4702   */\n      0x20\n        /* \"#utility.yul\":4691:4696   */\n      dup2\n        /* \"#utility.yul\":4687:4703   */\n      add\n        /* \"#utility.yul\":4736:4739   */\n      dup5\n        /* \"#utility.yul\":4727:4733   */\n      dup5\n        /* \"#utility.yul\":4722:4725   */\n      dup5\n        /* \"#utility.yul\":4718:4734   */\n      add\n        /* \"#utility.yul\":4715:4740   */\n      gt\n        /* \"#utility.yul\":4712:4824   */\n      iszero\n      tag_180\n      jumpi\n        /* \"#utility.yul\":4743:4822   */\n      tag_181\n      tag_92\n      jump\t// in\n    tag_181:\n        /* \"#utility.yul\":4712:4824   */\n    tag_180:\n        /* \"#utility.yul\":4833:4887   */\n      tag_182\n        /* \"#utility.yul\":4880:4886   */\n      dup5\n        /* \"#utility.yul\":4875:4878   */\n      dup3\n        /* \"#utility.yul\":4870:4873   */\n      dup6\n        /* \"#utility.yul\":4833:4887   */\n      tag_98\n      jump\t// in\n    tag_182:\n        /* \"#utility.yul\":4552:4893   */\n      pop\n        /* \"#utility.yul\":4468:4893   */\n      swap4\n      swap3\n      pop\n      pop\n      pop\n      jump\t// out\n        /* \"#utility.yul\":4913:5253   */\n    tag_100:\n        /* \"#utility.yul\":4969:4974   */\n      0x00\n        /* \"#utility.yul\":5018:5021   */\n      dup3\n        /* \"#utility.yul\":5011:5015   */\n      0x1f\n        /* \"#utility.yul\":5003:5009   */\n      dup4\n        /* \"#utility.yul\":4999:5016   */\n      add\n        /* \"#utility.yul\":4995:5022   */\n      slt\n        /* \"#utility.yul\":4985:5107   */\n      tag_184\n      jumpi\n        /* \"#utility.yul\":5026:5105   */\n      tag_185\n      tag_91\n      jump\t// in\n    tag_185:\n        /* \"#utility.yul\":4985:5107   */\n    tag_184:\n        /* \"#utility.yul\":5143:5149   */\n      dup2\n        /* \"#utility.yul\":5130:5150   */\n      calldataload\n        /* \"#utility.yul\":5168:5247   */\n      tag_186\n        /* \"#utility.yul\":5243:5246   */\n      dup5\n        /* \"#utility.yul\":5235:5241   */\n      dup3\n        /* \"#utility.yul\":5228:5232   */\n      0x20\n        /* \"#utility.yul\":5220:5226   */\n      dup7\n        /* \"#utility.yul\":5216:5233   */\n      add\n        /* \"#utility.yul\":5168:5247   */\n      tag_99\n      jump\t// in\n    tag_186:\n        /* \"#utility.yul\":5159:5247   */\n      swap2\n      pop\n        /* \"#utility.yul\":4975:5253   */\n      pop\n        /* \"#utility.yul\":4913:5253   */\n      swap3\n      swap2\n      pop\n      pop\n      jump\t// out\n        /* \"#utility.yul\":5259:5768   */\n    tag_24:\n        /* \"#utility.yul\":5328:5334   */\n      0x00\n        /* \"#utility.yul\":5377:5379   */\n      0x20\n        /* \"#utility.yul\":5365:5374   */\n      dup3\n        /* \"#utility.yul\":5356:5363   */\n      dup5\n        /* \"#utility.yul\":5352:5375   */\n      sub\n        /* \"#utility.yul\":5348:5380   */\n      slt\n        /* \"#utility.yul\":5345:5464   */\n      iszero\n      tag_188\n      jumpi\n        /* \"#utility.yul\":5383:5462   */\n      tag_189\n      tag_87\n      jump\t// in\n    tag_189:\n        /* \"#utility.yul\":5345:5464   */\n    tag_188:\n        /* \"#utility.yul\":5531:5532   */\n      0x00\n        /* \"#utility.yul\":5520:5529   */\n      dup3\n        /* \"#utility.yul\":5516:5533   */\n      add\n        /* \"#utility.yul\":5503:5534   */\n      calldataload\n        /* \"#utility.yul\":5561:5579   */\n      0xffffffffffffffff\n        /* \"#utility.yul\":5553:5559   */\n      dup2\n        /* \"#utility.yul\":5550:5580   */\n      gt\n        /* \"#utility.yul\":5547:5664   */\n      iszero\n      tag_190\n      jumpi\n        /* \"#utility.yul\":5583:5662   */\n      tag_191\n      tag_88\n      jump\t// in\n    tag_191:\n        /* \"#utility.yul\":5547:5664   */\n    tag_190:\n        /* \"#utility.yul\":5688:5751   */\n      tag_192\n        /* \"#utility.yul\":5743:5750   */\n      dup5\n        /* \"#utility.yul\":5734:5740   */\n      dup3\n        /* \"#utility.yul\":5723:5732   */\n      dup6\n        /* \"#utility.yul\":5719:5741   */\n      add\n        /* \"#utility.yul\":5688:5751   */\n      tag_100\n      jump\t// in\n    tag_192:\n        /* \"#utility.yul\":5678:5751   */\n      swap2\n      pop\n        /* \"#utility.yul\":5474:5761   */\n      pop\n        /* \"#utility.yul\":5259:5768   */\n      swap3\n      swap2\n      pop\n      pop\n      jump\t// out\n        /* \"#utility.yul\":5774:5898   */\n    tag_101:\n        /* \"#utility.yul\":5851:5857   */\n      0x00\n        /* \"#utility.yul\":5885:5890   */\n      dup2\n        /* \"#utility.yul\":5879:5891   */\n      mload\n        /* \"#utility.yul\":5869:5891   */\n      swap1\n      pop\n        /* \"#utility.yul\":5774:5898   */\n      swap2\n      swap1\n      pop\n      jump\t// out\n        /* \"#utility.yul\":5904:6098   */\n    tag_102:\n        /* \"#utility.yul\":6013:6024   */\n      0x00\n        /* \"#utility.yul\":6047:6053   */\n      dup3\n        /* \"#utility.yul\":6042:6045   */\n      dup3\n        /* \"#utility.yul\":6035:6054   */\n      mstore\n        /* \"#utility.yul\":6087:6091   */\n      0x20\n        /* \"#utility.yul\":6082:6085   */\n      dup3\n        /* \"#utility.yul\":6078:6092   */\n      add\n        /* \"#utility.yul\":6063:6092   */\n      swap1\n      pop\n        /* \"#utility.yul\":5904:6098   */\n      swap3\n      swap2\n      pop\n      pop\n      jump\t// out\n        /* \"#utility.yul\":6104:6246   */\n    tag_103:\n        /* \"#utility.yul\":6181:6185   */\n      0x00\n        /* \"#utility.yul\":6204:6207   */\n      dup2\n        /* \"#utility.yul\":6196:6207   */\n      swap1\n      pop\n        /* \"#utility.yul\":6234:6238   */\n      0x20\n        /* \"#utility.yul\":6229:6232   */\n      dup3\n        /* \"#utility.yul\":6225:6239   */\n      add\n        /* \"#utility.yul\":6217:6239   */\n      swap1\n      pop\n        /* \"#utility.yul\":6104:6246   */\n      swap2\n      swap1\n      pop\n      jump\t// out\n        /* \"#utility.yul\":6252:6351   */\n    tag_104:\n        /* \"#utility.yul\":6304:6310   */\n      0x00\n        /* \"#utility.yul\":6338:6343   */\n      dup2\n        /* \"#utility.yul\":6332:6344   */\n      mload\n        /* \"#utility.yul\":6322:6344   */\n      swap1\n      pop\n        /* \"#utility.yul\":6252:6351   */\n      swap2\n      swap1\n      pop\n      jump\t// out\n        /* \"#utility.yul\":6357:6516   */\n    tag_105:\n        /* \"#utility.yul\":6431:6442   */\n      0x00\n        /* \"#utility.yul\":6465:6471   */\n      dup3\n        /* \"#utility.yul\":6460:6463   */\n      dup3\n        /* \"#utility.yul\":6453:6472   */\n      mstore\n        /* \"#utility.yul\":6505:6509   */\n      0x20\n        /* \"#utility.yul\":6500:6503   */\n      dup3\n        /* \"#utility.yul\":6496:6510   */\n      add\n        /* \"#utility.yul\":6481:6510   */\n      swap1\n      pop\n        /* \"#utility.yul\":6357:6516   */\n      swap3\n      swap2\n      pop\n      pop\n      jump\t// out\n        /* \"#utility.yul\":6522:6661   */\n    tag_106:\n        /* \"#utility.yul\":6611:6617   */\n      dup3\n        /* \"#utility.yul\":6606:6609   */\n      dup2\n        /* \"#utility.yul\":6601:6604   */\n      dup4\n        /* \"#utility.yul\":6595:6618   */\n      mcopy\n        /* \"#utility.yul\":6652:6653   */\n      0x00\n        /* \"#utility.yul\":6643:6649   */\n      dup4\n        /* \"#utility.yul\":6638:6641   */\n      dup4\n        /* \"#utility.yul\":6634:6650   */\n      add\n        /* \"#utility.yul\":6627:6654   */\n      mstore\n        /* \"#utility.yul\":6522:6661   */\n      pop\n      pop\n      pop\n      jump\t// out\n        /* \"#utility.yul\":6667:7024   */\n    tag_107:\n        /* \"#utility.yul\":6745:6748   */\n      0x00\n        /* \"#utility.yul\":6773:6812   */\n      tag_200\n        /* \"#utility.yul\":6806:6811   */\n      dup3\n        /* \"#utility.yul\":6773:6812   */\n      tag_104\n      jump\t// in\n    tag_200:\n        /* \"#utility.yul\":6828:6889   */\n      tag_201\n        /* \"#utility.yul\":6882:6888   */\n      dup2\n        /* \"#utility.yul\":6877:6880   */\n      dup6\n        /* \"#utility.yul\":6828:6889   */\n      tag_105\n      jump\t// in\n    tag_201:\n        /* \"#utility.yul\":6821:6889   */\n      swap4\n      pop\n        /* \"#utility.yul\":6898:6963   */\n      tag_202\n        /* \"#utility.yul\":6956:6962   */\n      dup2\n        /* \"#utility.yul\":6951:6954   */\n      dup6\n        /* \"#utility.yul\":6944:6948   */\n      0x20\n        /* \"#utility.yul\":6937:6942   */\n      dup7\n        /* \"#utility.yul\":6933:6949   */\n      add\n        /* \"#utility.yul\":6898:6963   */\n      tag_106\n      jump\t// in\n    tag_202:\n        /* \"#utility.yul\":6988:7017   */\n      tag_203\n        /* \"#utility.yul\":7010:7016   */\n      dup2\n        /* \"#utility.yul\":6988:7017   */\n      tag_93\n      jump\t// in\n    tag_203:\n        /* \"#utility.yul\":6983:6986   */\n      dup5\n        /* \"#utility.yul\":6979:7018   */\n      add\n        /* \"#utility.yul\":6972:7018   */\n      swap2\n      pop\n        /* \"#utility.yul\":6749:7024   */\n      pop\n        /* \"#utility.yul\":6667:7024   */\n      swap3\n      swap2\n      pop\n      pop\n      jump\t// out\n        /* \"#utility.yul\":7030:7226   */\n    tag_108:\n        /* \"#utility.yul\":7119:7129   */\n      0x00\n        /* \"#utility.yul\":7154:7220   */\n      tag_205\n        /* \"#utility.yul\":7216:7219   */\n      dup4\n        /* \"#utility.yul\":7208:7214   */\n      dup4\n        /* \"#utility.yul\":7154:7220   */\n      tag_107\n      jump\t// in\n    tag_205:\n        /* \"#utility.yul\":7140:7220   */\n      swap1\n      pop\n        /* \"#utility.yul\":7030:7226   */\n      swap3\n      swap2\n      pop\n      pop\n      jump\t// out\n        /* \"#utility.yul\":7232:7355   */\n    tag_109:\n        /* \"#utility.yul\":7312:7316   */\n      0x00\n        /* \"#utility.yul\":7344:7348   */\n      0x20\n        /* \"#utility.yul\":7339:7342   */\n      dup3\n        /* \"#utility.yul\":7335:7349   */\n      add\n        /* \"#utility.yul\":7327:7349   */\n      swap1\n      pop\n        /* \"#utility.yul\":7232:7355   */\n      swap2\n      swap1\n      pop\n      jump\t// out\n        /* \"#utility.yul\":7389:8380   */\n    tag_110:\n        /* \"#utility.yul\":7528:7531   */\n      0x00\n        /* \"#utility.yul\":7557:7621   */\n      tag_208\n        /* \"#utility.yul\":7615:7620   */\n      dup3\n        /* \"#utility.yul\":7557:7621   */\n      tag_101\n      jump\t// in\n    tag_208:\n        /* \"#utility.yul\":7637:7733   */\n      tag_209\n        /* \"#utility.yul\":7726:7732   */\n      dup2\n        /* \"#utility.yul\":7721:7724   */\n      dup6\n        /* \"#utility.yul\":7637:7733   */\n      tag_102\n      jump\t// in\n    tag_209:\n        /* \"#utility.yul\":7630:7733   */\n      swap4\n      pop\n        /* \"#utility.yul\":7759:7762   */\n      dup4\n        /* \"#utility.yul\":7804:7808   */\n      0x20\n        /* \"#utility.yul\":7796:7802   */\n      dup3\n        /* \"#utility.yul\":7792:7809   */\n      mul\n        /* \"#utility.yul\":7787:7790   */\n      dup6\n        /* \"#utility.yul\":7783:7810   */\n      add\n        /* \"#utility.yul\":7834:7900   */\n      tag_210\n        /* \"#utility.yul\":7894:7899   */\n      dup6\n        /* \"#utility.yul\":7834:7900   */\n      tag_103\n      jump\t// in\n    tag_210:\n        /* \"#utility.yul\":7923:7930   */\n      dup1\n        /* \"#utility.yul\":7954:7955   */\n      0x00\n        /* \"#utility.yul\":7939:8335   */\n    tag_211:\n        /* \"#utility.yul\":7964:7970   */\n      dup6\n        /* \"#utility.yul\":7961:7962   */\n      dup2\n        /* \"#utility.yul\":7958:7971   */\n      lt\n        /* \"#utility.yul\":7939:8335   */\n      iszero\n      tag_213\n      jumpi\n        /* \"#utility.yul\":8035:8044   */\n      dup5\n        /* \"#utility.yul\":8029:8033   */\n      dup5\n        /* \"#utility.yul\":8025:8045   */\n      sub\n        /* \"#utility.yul\":8020:8023   */\n      dup10\n        /* \"#utility.yul\":8013:8046   */\n      mstore\n        /* \"#utility.yul\":8086:8092   */\n      dup2\n        /* \"#utility.yul\":8080:8093   */\n      mload\n        /* \"#utility.yul\":8114:8198   */\n      tag_214\n        /* \"#utility.yul\":8193:8197   */\n      dup6\n        /* \"#utility.yul\":8178:8191   */\n      dup3\n        /* \"#utility.yul\":8114:8198   */\n      tag_108\n      jump\t// in\n    tag_214:\n        /* \"#utility.yul\":8106:8198   */\n      swap5\n      pop\n        /* \"#utility.yul\":8221:8291   */\n      tag_215\n        /* \"#utility.yul\":8284:8290   */\n      dup4\n        /* \"#utility.yul\":8221:8291   */\n      tag_109\n      jump\t// in\n    tag_215:\n        /* \"#utility.yul\":8211:8291   */\n      swap3\n      pop\n        /* \"#utility.yul\":8320:8324   */\n      0x20\n        /* \"#utility.yul\":8315:8318   */\n      dup11\n        /* \"#utility.yul\":8311:8325   */\n      add\n        /* \"#utility.yul\":8304:8325   */\n      swap10\n      pop\n        /* \"#utility.yul\":7999:8335   */\n      pop\n        /* \"#utility.yul\":7986:7987   */\n      0x01\n        /* \"#utility.yul\":7983:7984   */\n      dup2\n        /* \"#utility.yul\":7979:7988   */\n      add\n        /* \"#utility.yul\":7974:7988   */\n      swap1\n      pop\n        /* \"#utility.yul\":7939:8335   */\n      jump(tag_211)\n    tag_213:\n        /* \"#utility.yul\":7943:7957   */\n      pop\n        /* \"#utility.yul\":8351:8355   */\n      dup3\n        /* \"#utility.yul\":8344:8355   */\n      swap8\n      pop\n        /* \"#utility.yul\":8371:8374   */\n      dup8\n        /* \"#utility.yul\":8364:8374   */\n      swap6\n      pop\n        /* \"#utility.yul\":7533:8380   */\n      pop\n      pop\n      pop\n      pop\n      pop\n        /* \"#utility.yul\":7389:8380   */\n      swap3\n      swap2\n      pop\n      pop\n      jump\t// out\n        /* \"#utility.yul\":8386:8799   */\n    tag_29:\n        /* \"#utility.yul\":8549:8553   */\n      0x00\n        /* \"#utility.yul\":8587:8589   */\n      0x20\n        /* \"#utility.yul\":8576:8585   */\n      dup3\n        /* \"#utility.yul\":8572:8590   */\n      add\n        /* \"#utility.yul\":8564:8590   */\n      swap1\n      pop\n        /* \"#utility.yul\":8636:8645   */\n      dup2\n        /* \"#utility.yul\":8630:8634   */\n      dup2\n        /* \"#utility.yul\":8626:8646   */\n      sub\n        /* \"#utility.yul\":8622:8623   */\n      0x00\n        /* \"#utility.yul\":8611:8620   */\n      dup4\n        /* \"#utility.yul\":8607:8624   */\n      add\n        /* \"#utility.yul\":8600:8647   */\n      mstore\n        /* \"#utility.yul\":8664:8792   */\n      tag_217\n        /* \"#utility.yul\":8787:8791   */\n      dup2\n        /* \"#utility.yul\":8778:8784   */\n      dup5\n        /* \"#utility.yul\":8664:8792   */\n      tag_110\n      jump\t// in\n    tag_217:\n        /* \"#utility.yul\":8656:8792   */\n      swap1\n      pop\n        /* \"#utility.yul\":8386:8799   */\n      swap3\n      swap2\n      pop\n      pop\n      jump\t// out\n        /* \"#utility.yul\":8805:8923   */\n    tag_111:\n        /* \"#utility.yul\":8892:8916   */\n      tag_219\n        /* \"#utility.yul\":8910:8915   */\n      dup2\n        /* \"#utility.yul\":8892:8916   */\n      tag_81\n      jump\t// in\n    tag_219:\n        /* \"#utility.yul\":8887:8890   */\n      dup3\n        /* \"#utility.yul\":8880:8917   */\n      mstore\n        /* \"#utility.yul\":8805:8923   */\n      pop\n      pop\n      jump\t// out\n        /* \"#utility.yul\":8929:9151   */\n    tag_35:\n        /* \"#utility.yul\":9022:9026   */\n      0x00\n        /* \"#utility.yul\":9060:9062   */\n      0x20\n        /* \"#utility.yul\":9049:9058   */\n      dup3\n        /* \"#utility.yul\":9045:9063   */\n      add\n        /* \"#utility.yul\":9037:9063   */\n      swap1\n      pop\n        /* \"#utility.yul\":9073:9144   */\n      tag_221\n        /* \"#utility.yul\":9141:9142   */\n      0x00\n        /* \"#utility.yul\":9130:9139   */\n      dup4\n        /* \"#utility.yul\":9126:9143   */\n      add\n        /* \"#utility.yul\":9117:9123   */\n      dup5\n        /* \"#utility.yul\":9073:9144   */\n      tag_111\n      jump\t// in\n    tag_221:\n        /* \"#utility.yul\":8929:9151   */\n      swap3\n      swap2\n      pop\n      pop\n      jump\t// out\n        /* \"#utility.yul\":9157:9337   */\n    tag_47:\n        /* \"#utility.yul\":9205:9282   */\n      0x4e487b7100000000000000000000000000000000000000000000000000000000\n        /* \"#utility.yul\":9202:9203   */\n      0x00\n        /* \"#utility.yul\":9195:9283   */\n      mstore\n        /* \"#utility.yul\":9302:9306   */\n      0x31\n        /* \"#utility.yul\":9299:9300   */\n      0x04\n        /* \"#utility.yul\":9292:9307   */\n      mstore\n        /* \"#utility.yul\":9326:9330   */\n      0x24\n        /* \"#utility.yul\":9323:9324   */\n      0x00\n        /* \"#utility.yul\":9316:9331   */\n      revert\n        /* \"#utility.yul\":9343:9523   */\n    tag_112:\n        /* \"#utility.yul\":9391:9468   */\n      0x4e487b7100000000000000000000000000000000000000000000000000000000\n        /* \"#utility.yul\":9388:9389   */\n      0x00\n        /* \"#utility.yul\":9381:9469   */\n      mstore\n        /* \"#utility.yul\":9488:9492   */\n      0x22\n        /* \"#utility.yul\":9485:9486   */\n      0x04\n        /* \"#utility.yul\":9478:9493   */\n      mstore\n        /* \"#utility.yul\":9512:9516   */\n      0x24\n        /* \"#utility.yul\":9509:9510   */\n      0x00\n        /* \"#utility.yul\":9502:9517   */\n      revert\n        /* \"#utility.yul\":9529:9849   */\n    tag_60:\n        /* \"#utility.yul\":9573:9579   */\n      0x00\n        /* \"#utility.yul\":9610:9611   */\n      0x02\n        /* \"#utility.yul\":9604:9608   */\n      dup3\n        /* \"#utility.yul\":9600:9612   */\n      div\n        /* \"#utility.yul\":9590:9612   */\n      swap1\n      pop\n        /* \"#utility.yul\":9657:9658   */\n      0x01\n        /* \"#utility.yul\":9651:9655   */\n      dup3\n        /* \"#utility.yul\":9647:9659   */\n      and\n        /* \"#utility.yul\":9678:9696   */\n      dup1\n        /* \"#utility.yul\":9668:9749   */\n      tag_225\n      jumpi\n        /* \"#utility.yul\":9734:9738   */\n      0x7f\n        /* \"#utility.yul\":9726:9732   */\n      dup3\n        /* \"#utility.yul\":9722:9739   */\n      and\n        /* \"#utility.yul\":9712:9739   */\n      swap2\n      pop\n        /* \"#utility.yul\":9668:9749   */\n    tag_225:\n        /* \"#utility.yul\":9796:9798   */\n      0x20\n        /* \"#utility.yul\":9788:9794   */\n      dup3\n        /* \"#utility.yul\":9785:9799   */\n      lt\n        /* \"#utility.yul\":9765:9783   */\n      dup2\n        /* \"#utility.yul\":9762:9800   */\n      sub\n        /* \"#utility.yul\":9759:9843   */\n      tag_226\n      jumpi\n        /* \"#utility.yul\":9815:9833   */\n      tag_227\n      tag_112\n      jump\t// in\n    tag_227:\n        /* \"#utility.yul\":9759:9843   */\n    tag_226:\n        /* \"#utility.yul\":9580:9849   */\n      pop\n        /* \"#utility.yul\":9529:9849   */\n      swap2\n      swap1\n      pop\n      jump\t// out\n        /* \"#utility.yul\":9855:9996   */\n    tag_113:\n        /* \"#utility.yul\":9904:9908   */\n      0x00\n        /* \"#utility.yul\":9927:9930   */\n      dup2\n        /* \"#utility.yul\":9919:9930   */\n      swap1\n      pop\n        /* \"#utility.yul\":9950:9953   */\n      dup2\n        /* \"#utility.yul\":9947:9948   */\n      0x00\n        /* \"#utility.yul\":9940:9954   */\n      mstore\n        /* \"#utility.yul\":9984:9988   */\n      0x20\n        /* \"#utility.yul\":9981:9982   */\n      0x00\n        /* \"#utility.yul\":9971:9989   */\n      keccak256\n        /* \"#utility.yul\":9963:9989   */\n      swap1\n      pop\n        /* \"#utility.yul\":9855:9996   */\n      swap2\n      swap1\n      pop\n      jump\t// out\n        /* \"#utility.yul\":10002:10095   */\n    tag_114:\n        /* \"#utility.yul\":10039:10045   */\n      0x00\n        /* \"#utility.yul\":10086:10088   */\n      0x20\n        /* \"#utility.yul\":10081:10083   */\n      0x1f\n        /* \"#utility.yul\":10074:10079   */\n      dup4\n        /* \"#utility.yul\":10070:10084   */\n      add\n        /* \"#utility.yul\":10066:10089   */\n      div\n        /* \"#utility.yul\":10056:10089   */\n      swap1\n      pop\n        /* \"#utility.yul\":10002:10095   */\n      swap2\n      swap1\n      pop\n      jump\t// out\n        /* \"#utility.yul\":10101:10208   */\n    tag_115:\n        /* \"#utility.yul\":10145:10153   */\n      0x00\n        /* \"#utility.yul\":10195:10200   */\n      dup3\n        /* \"#utility.yul\":10189:10193   */\n      dup3\n        /* \"#utility.yul\":10185:10201   */\n      shl\n        /* \"#utility.yul\":10164:10201   */\n      swap1\n      pop\n        /* \"#utility.yul\":10101:10208   */\n      swap3\n      swap2\n      pop\n      pop\n      jump\t// out\n        /* \"#utility.yul\":10214:10607   */\n    tag_116:\n        /* \"#utility.yul\":10283:10289   */\n      0x00\n        /* \"#utility.yul\":10333:10334   */\n      0x08\n        /* \"#utility.yul\":10321:10331   */\n      dup4\n        /* \"#utility.yul\":10317:10335   */\n      mul\n        /* \"#utility.yul\":10356:10453   */\n      tag_232\n        /* \"#utility.yul\":10386:10452   */\n      0xffffffffffffffffffffffffffffffffffffffffffffffffffffffffffffffff\n        /* \"#utility.yul\":10375:10384   */\n      dup3\n        /* \"#utility.yul\":10356:10453   */\n      tag_115\n      jump\t// in\n    tag_232:\n        /* \"#utility.yul\":10474:10513   */\n      tag_233\n        /* \"#utility.yul\":10504:10512   */\n      dup7\n        /* \"#utility.yul\":10493:10502   */\n      dup4\n        /* \"#utility.yul\":10474:10513   */\n      tag_115\n      jump\t// in\n    tag_233:\n        /* \"#utility.yul\":10462:10513   */\n      swap6\n      pop\n        /* \"#utility.yul\":10546:10550   */\n      dup1\n        /* \"#utility.yul\":10542:10551   */\n      not\n        /* \"#utility.yul\":10535:10540   */\n      dup5\n        /* \"#utility.yul\":10531:10552   */\n      and\n        /* \"#utility.yul\":10522:10552   */\n      swap4\n      pop\n        /* \"#utility.yul\":10595:10599   */\n      dup1\n        /* \"#utility.yul\":10585:10593   */\n      dup7\n        /* \"#utility.yul\":10581:10600   */\n      and\n        /* \"#utility.yul\":10574:10579   */\n      dup5\n        /* \"#utility.yul\":10571:10601   */\n      or\n        /* \"#utility.yul\":10561:10601   */\n      swap3\n      pop\n        /* \"#utility.yul\":10290:10607   */\n      pop\n      pop\n        /* \"#utility.yul\":10214:10607   */\n      swap4\n      swap3\n      pop\n      pop\n      pop\n      jump\t// out\n        /* \"#utility.yul\":10613:10673   */\n    tag_117:\n        /* \"#utility.yul\":10641:10644   */\n      0x00\n        /* \"#utility.yul\":10662:10667   */\n      dup2\n        /* \"#utility.yul\":10655:10667   */\n      swap1\n      pop\n        /* \"#utility.yul\":10613:10673   */\n      swap2\n      swap1\n      pop\n      jump\t// out\n        /* \"#utility.yul\":10679:10821   */\n    tag_118:\n        /* \"#utility.yul\":10729:10738   */\n      0x00\n        /* \"#utility.yul\":10762:10815   */\n      tag_236\n        /* \"#utility.yul\":10780:10814   */\n      tag_237\n        /* \"#utility.yul\":10789:10813   */\n      tag_238\n        /* \"#utility.yul\":10807:10812   */\n      dup5\n        /* \"#utility.yul\":10789:10813   */\n      tag_81\n      jump\t// in\n    tag_238:\n        /* \"#utility.yul\":10780:10814   */\n      tag_117\n      jump\t// in\n    tag_237:\n        /* \"#utility.yul\":10762:10815   */\n      tag_81\n      jump\t// in\n    tag_236:\n        /* \"#utility.yul\":10749:10815   */\n      swap1\n      pop\n        /* \"#utility.yul\":10679:10821   */\n      swap2\n      swap1\n      pop\n      jump\t// out\n        /* \"#utility.yul\":10827:10902   */\n    tag_119:\n        /* \"#utility.yul\":10870:10873   */\n      0x00\n        /* \"#utility.yul\":10891:10896   */\n      dup2\n        /* \"#utility.yul\":10884:10896   */\n      swap1\n      pop\n        /* \"#utility.yul\":10827:10902   */\n      swap2\n      swap1\n      pop\n      jump\t// out\n        /* \"#utility.yul\":10908:11177   */\n    tag_120:\n        /* \"#utility.yul\":11018:11057   */\n      tag_241\n        /* \"#utility.yul\":11049:11056   */\n      dup4\n        /* \"#utility.yul\":11018:11057   */\n      tag_118\n      jump\t// in\n    tag_241:\n        /* \"#utility.yul\":11079:11170   */\n      tag_242\n        /* \"#utility.yul\":11128:11169   */\n      tag_243\n        /* \"#utility.yul\":11152:11168   */\n      dup3\n        /* \"#utility.yul\":11128:11169   */\n      tag_119\n      jump\t// in\n    tag_243:\n        /* \"#utility.yul\":11120:11126   */\n      dup5\n        /* \"#utility.yul\":11113:11117   */\n      dup5\n        /* \"#utility.yul\":11107:11118   */\n      sload\n        /* \"#utility.yul\":11079:11170   */\n      tag_116\n      jump\t// in\n    tag_242:\n        /* \"#utility.yul\":11073:11077   */\n      dup3\n        /* \"#utility.yul\":11066:11171   */\n      sstore\n        /* \"#utility.yul\":10984:11177   */\n      pop\n        /* \"#utility.yul\":10908:11177   */\n      pop\n      pop\n      pop\n      jump\t// out\n        /* \"#utility.yul\":11183:11256   */\n    tag_121:\n        /* \"#utility.yul\":11228:11231   */\n      0x00\n        /* \"#utility.yul\":11183:11256   */\n      swap1\n      jump\t// out\n        /* \"#utility.yul\":11262:11451   */\n    tag_122:\n        /* \"#utility.yul\":11339:11371   */\n      tag_246\n      tag_121\n      jump\t// in\n    tag_246:\n        /* \"#utility.yul\":11380:11445   */\n      tag_247\n        /* \"#utility.yul\":11438:11444   */\n      dup2\n        /* \"#utility.yul\":11430:11436   */\n      dup5\n        /* \"#utility.yul\":11424:11428   */\n      dup5\n        /* \"#utility.yul\":11380:11445   */\n      tag_120\n      jump\t// in\n    tag_247:\n        /* \"#utility.yul\":11315:11451   */\n      pop\n        /* \"#utility.yul\":11262:11451   */\n      pop\n      pop\n      jump\t// out\n        /* \"#utility.yul\":11457:11643   */\n    tag_123:\n        /* \"#utility.yul\":11517:11637   */\n    tag_249:\n        /* \"#utility.yul\":11534:11537   */\n      dup2\n        /* \"#utility.yul\":11527:11532   */\n      dup2\n        /* \"#utility.yul\":11524:11538   */\n      lt\n        /* \"#utility.yul\":11517:11637   */\n      iszero\n      tag_251\n      jumpi\n        /* \"#utility.yul\":11588:11627   */\n      tag_252\n        /* \"#utility.yul\":11625:11626   */\n      0x00\n        /* \"#utility.yul\":11618:11623   */\n      dup3\n        /* \"#utility.yul\":11588:11627   */\n      tag_122\n      jump\t// in\n    tag_252:\n        /* \"#utility.yul\":11561:11562   */\n      0x01\n        /* \"#utility.yul\":11554:11559   */\n      dup2\n        /* \"#utility.yul\":11550:11563   */\n      add\n        /* \"#utility.yul\":11541:11563   */\n      swap1\n      pop\n        /* \"#utility.yul\":11517:11637   */\n      jump(tag_249)\n    tag_251:\n        /* \"#utility.yul\":11457:11643   */\n      pop\n      pop\n      jump\t// out\n        /* \"#utility.yul\":11649:12192   */\n    tag_124:\n        /* \"#utility.yul\":11750:11752   */\n      0x1f\n        /* \"#utility.yul\":11745:11748   */\n      dup3\n        /* \"#utility.yul\":11742:11753   */\n      gt\n        /* \"#utility.yul\":11739:12185   */\n      iszero\n      tag_254\n      jumpi\n        /* \"#utility.yul\":11784:11822   */\n      tag_255\n        /* \"#utility.yul\":11816:11821   */\n      dup2\n        /* \"#utility.yul\":11784:11822   */\n      tag_113\n      jump\t// in\n    tag_255:\n        /* \"#utility.yul\":11868:11897   */\n      tag_256\n        /* \"#utility.yul\":11886:11896   */\n      dup5\n        /* \"#utility.yul\":11868:11897   */\n      tag_114\n      jump\t// in\n    tag_256:\n        /* \"#utility.yul\":11858:11866   */\n      dup2\n        /* \"#utility.yul\":11854:11898   */\n      add\n        /* \"#utility.yul\":12051:12053   */\n      0x20\n        /* \"#utility.yul\":12039:12049   */\n      dup6\n        /* \"#utility.yul\":12036:12054   */\n      lt\n        /* \"#utility.yul\":12033:12082   */\n      iszero\n      tag_257\n      jumpi\n        /* \"#utility.yul\":12072:12080   */\n      dup2\n        /* \"#utility.yul\":12057:12080   */\n      swap1\n      pop\n        /* \"#utility.yul\":12033:12082   */\n    tag_257:\n        /* \"#utility.yul\":12095:12175   */\n      tag_258\n        /* \"#utility.yul\":12151:12173   */\n      tag_259\n        /* \"#utility.yul\":12169:12172   */\n      dup6\n        /* \"#utility.yul\":12151:12173   */\n      tag_114\n      jump\t// in\n    tag_259:\n        /* \"#utility.yul\":12141:12149   */\n      dup4\n        /* \"#utility.yul\":12137:12174   */\n      add\n        /* \"#utility.yul\":12124:12135   */\n      dup3\n        /* \"#utility.yul\":12095:12175   */\n      tag_123\n      jump\t// in\n    tag_258:\n        /* \"#utility.yul\":11754:12185   */\n      pop\n      pop\n        /* \"#utility.yul\":11739:12185   */\n    tag_254:\n        /* \"#utility.yul\":11649:12192   */\n      pop\n      pop\n      pop\n      jump\t// out\n        /* \"#utility.yul\":12198:12315   */\n    tag_125:\n        /* \"#utility.yul\":12252:12260   */\n      0x00\n        /* \"#utility.yul\":12302:12307   */\n      dup3\n        /* \"#utility.yul\":12296:12300   */\n      dup3\n        /* \"#utility.yul\":12292:12308   */\n      shr\n        /* \"#utility.yul\":12271:12308   */\n      swap1\n      pop\n        /* \"#utility.yul\":12198:12315   */\n      swap3\n      swap2\n      pop\n      pop\n      jump\t// out\n        /* \"#utility.yul\":12321:12490   */\n    tag_126:\n        /* \"#utility.yul\":12365:12371   */\n      0x00\n        /* \"#utility.yul\":12398:12449   */\n      tag_262\n        /* \"#utility.yul\":12446:12447   */\n      0x00\n        /* \"#utility.yul\":12442:12448   */\n      not\n        /* \"#utility.yul\":12434:12439   */\n      dup5\n        /* \"#utility.yul\":12431:12432   */\n      0x08\n        /* \"#utility.yul\":12427:12440   */\n      mul\n        /* \"#utility.yul\":12398:12449   */\n      tag_125\n      jump\t// in\n    tag_262:\n        /* \"#utility.yul\":12394:12450   */\n      not\n        /* \"#utility.yul\":12479:12483   */\n      dup1\n        /* \"#utility.yul\":12473:12477   */\n      dup4\n        /* \"#utility.yul\":12469:12484   */\n      and\n        /* \"#utility.yul\":12459:12484   */\n      swap2\n      pop\n        /* \"#utility.yul\":12372:12490   */\n      pop\n        /* \"#utility.yul\":12321:12490   */\n      swap3\n      swap2\n      pop\n      pop\n      jump\t// out\n        /* \"#utility.yul\":12495:12790   */\n    tag_127:\n        /* \"#utility.yul\":12571:12575   */\n      0x00\n        /* \"#utility.yul\":12717:12746   */\n      tag_264\n        /* \"#utility.yul\":12742:12745   */\n      dup4\n        /* \"#utility.yul\":12736:12740   */\n      dup4\n        /* \"#utility.yul\":12717:12746   */\n      tag_126\n      jump\t// in\n    tag_264:\n        /* \"#utility.yul\":12709:12746   */\n      swap2\n      pop\n        /* \"#utility.yul\":12779:12782   */\n      dup3\n        /* \"#utility.yul\":12776:12777   */\n      0x02\n        /* \"#utility.yul\":12772:12783   */\n      mul\n        /* \"#utility.yul\":12766:12770   */\n      dup3\n        /* \"#utility.yul\":12763:12784   */\n      or\n        /* \"#utility.yul\":12755:12784   */\n      swap1\n      pop\n        /* \"#utility.yul\":12495:12790   */\n      swap3\n      swap2\n      pop\n      pop\n      jump\t// out\n        /* \"#utility.yul\":12795:14190   */\n    tag_54:\n        /* \"#utility.yul\":12912:12949   */\n      tag_266\n        /* \"#utility.yul\":12945:12948   */\n      dup3\n        /* \"#utility.yul\":12912:12949   */\n      tag_104\n      jump\t// in\n    tag_266:\n        /* \"#utility.yul\":13014:13032   */\n      0xffffffffffffffff\n        /* \"#utility.yul\":13006:13012   */\n      dup2\n        /* \"#utility.yul\":13003:13033   */\n      gt\n        /* \"#utility.yul\":13000:13056   */\n      iszero\n      tag_267\n      jumpi\n        /* \"#utility.yul\":13036:13054   */\n      tag_268\n      tag_94\n      jump\t// in\n    tag_268:\n        /* \"#utility.yul\":13000:13056   */\n    tag_267:\n        /* \"#utility.yul\":13080:13118   */\n      tag_269\n        /* \"#utility.yul\":13112:13116   */\n      dup3\n        /* \"#utility.yul\":13106:13117   */\n      sload\n        /* \"#utility.yul\":13080:13118   */\n      tag_60\n      jump\t// in\n    tag_269:\n        /* \"#utility.yul\":13165:13232   */\n      tag_270\n        /* \"#utility.yul\":13225:13231   */\n      dup3\n        /* \"#utility.yul\":13217:13223   */\n      dup3\n        /* \"#utility.yul\":13211:13215   */\n      dup6\n        /* \"#utility.yul\":13165:13232   */\n      tag_124\n      jump\t// in\n    tag_270:\n        /* \"#utility.yul\":13259:13260   */\n      0x00\n        /* \"#utility.yul\":13283:13287   */\n      0x20\n        /* \"#utility.yul\":13270:13287   */\n      swap1\n      pop\n        /* \"#utility.yul\":13315:13317   */\n      0x1f\n        /* \"#utility.yul\":13307:13313   */\n      dup4\n        /* \"#utility.yul\":13304:13318   */\n      gt\n        /* \"#utility.yul\":13332:13333   */\n      0x01\n        /* \"#utility.yul\":13327:13945   */\n      dup2\n      eq\n      tag_272\n      jumpi\n        /* \"#utility.yul\":13989:13990   */\n      0x00\n        /* \"#utility.yul\":14006:14012   */\n      dup5\n        /* \"#utility.yul\":14003:14080   */\n      iszero\n      tag_273\n      jumpi\n        /* \"#utility.yul\":14055:14064   */\n      dup3\n        /* \"#utility.yul\":14050:14053   */\n      dup8\n        /* \"#utility.yul\":14046:14065   */\n      add\n        /* \"#utility.yul\":14040:14066   */\n      mload\n        /* \"#utility.yul\":14031:14066   */\n      swap1\n      pop\n        /* \"#utility.yul\":14003:14080   */\n    tag_273:\n        /* \"#utility.yul\":14106:14173   */\n      tag_274\n        /* \"#utility.yul\":14166:14172   */\n      dup6\n        /* \"#utility.yul\":14159:14164   */\n      dup3\n        /* \"#utility.yul\":14106:14173   */\n      tag_127\n      jump\t// in\n    tag_274:\n        /* \"#utility.yul\":14100:14104   */\n      dup7\n        /* \"#utility.yul\":14093:14174   */\n      sstore\n        /* \"#utility.yul\":13962:14184   */\n      pop\n        /* \"#utility.yul\":13297:14184   */\n      jump(tag_271)\n        /* \"#utility.yul\":13327:13945   */\n    tag_272:\n        /* \"#utility.yul\":13379:13383   */\n      0x1f\n        /* \"#utility.yul\":13375:13384   */\n      not\n        /* \"#utility.yul\":13367:13373   */\n      dup5\n        /* \"#utility.yul\":13363:13385   */\n      and\n        /* \"#utility.yul\":13413:13450   */\n      tag_275\n        /* \"#utility.yul\":13445:13449   */\n      dup7\n        /* \"#utility.yul\":13413:13450   */\n      tag_113\n      jump\t// in\n    tag_275:\n        /* \"#utility.yul\":13472:13473   */\n      0x00\n        /* \"#utility.yul\":13486:13694   */\n    tag_276:\n        /* \"#utility.yul\":13500:13507   */\n      dup3\n        /* \"#utility.yul\":13497:13498   */\n      dup2\n        /* \"#utility.yul\":13494:13508   */\n      lt\n        /* \"#utility.yul\":13486:13694   */\n      iszero\n      tag_278\n      jumpi\n        /* \"#utility.yul\":13579:13588   */\n      dup5\n        /* \"#utility.yul\":13574:13577   */\n      dup10\n        /* \"#utility.yul\":13570:13589   */\n      add\n        /* \"#utility.yul\":13564:13590   */\n      mload\n        /* \"#utility.yul\":13556:13562   */\n      dup3\n        /* \"#utility.yul\":13549:13591   */\n      sstore\n        /* \"#utility.yul\":13630:13631   */\n      0x01\n        /* \"#utility.yul\":13622:13628   */\n      dup3\n        /* \"#utility.yul\":13618:13632   */\n      add\n        /* \"#utility.yul\":13608:13632   */\n      swap2\n      pop\n        /* \"#utility.yul\":13677:13679   */\n      0x20\n        /* \"#utility.yul\":13666:13675   */\n      dup6\n        /* \"#utility.yul\":13662:13680   */\n      add\n        /* \"#utility.yul\":13649:13680   */\n      swap5\n      pop\n        /* \"#utility.yul\":13523:13527   */\n      0x20\n        /* \"#utility.yul\":13520:13521   */\n      dup2\n        /* \"#utility.yul\":13516:13528   */\n      add\n        /* \"#utility.yul\":13511:13528   */\n      swap1\n      pop\n        /* \"#utility.yul\":13486:13694   */\n      jump(tag_276)\n    tag_278:\n        /* \"#utility.yul\":13722:13728   */\n      dup7\n        /* \"#utility.yul\":13713:13720   */\n      dup4\n        /* \"#utility.yul\":13710:13729   */\n      lt\n        /* \"#utility.yul\":13707:13886   */\n      iszero\n      tag_279\n      jumpi\n        /* \"#utility.yul\":13780:13789   */\n      dup5\n        /* \"#utility.yul\":13775:13778   */\n      dup10\n        /* \"#utility.yul\":13771:13790   */\n      add\n        /* \"#utility.yul\":13765:13791   */\n      mload\n        /* \"#utility.yul\":13823:13871   */\n      tag_280\n        /* \"#utility.yul\":13865:13869   */\n      0x1f\n        /* \"#utility.yul\":13857:13863   */\n      dup10\n        /* \"#utility.yul\":13853:13870   */\n      and\n        /* \"#utility.yul\":13842:13851   */\n      dup3\n        /* \"#utility.yul\":13823:13871   */\n      tag_126\n      jump\t// in\n    tag_280:\n        /* \"#utility.yul\":13815:13821   */\n      dup4\n        /* \"#utility.yul\":13808:13872   */\n      sstore\n        /* \"#utility.yul\":13730:13886   */\n      pop\n        /* \"#utility.yul\":13707:13886   */\n    tag_279:\n        /* \"#utility.yul\":13932:13933   */\n      0x01\n        /* \"#utility.yul\":13928:13929   */\n      0x02\n        /* \"#utility.yul\":13920:13926   */\n      dup9\n        /* \"#utility.yul\":13916:13930   */\n      mul\n        /* \"#utility.yul\":13912:13934   */\n      add\n        /* \"#utility.yul\":13906:13910   */\n      dup9\n        /* \"#utility.yul\":13899:13935   */\n      sstore\n        /* \"#utility.yul\":13334:13945   */\n      pop\n      pop\n      pop\n        /* \"#utility.yul\":13297:14184   */\n    tag_271:\n      pop\n        /* \"#utility.yul\":12887:14190   */\n      pop\n      pop\n      pop\n        /* \"#utility.yul\":12795:14190   */\n      pop\n      pop\n      jump\t// out\n\n    auxdata: 0xa2646970667358221220c6ee68e675d4b44502e71f0b0eda2be17ebc85c276a06ab1d26352a8568b671a64736f6c63430008190033\n}\n",
				"bytecode": {
					"linkReferences": {},
					"object": "6080604052348015600e575f80fd5b50610af08061001c5f395ff3fe608060405234801561000f575f80fd5b5060043610610086575f3560e01c806397939ac41161005957806397939ac4146100ea578063ae713d2a14610108578063e554482e14610112578063f66c884a1461013057610086565b8063131cf9c11461008a57806316cdf825146100a857806330c36fcd146100c45780634c987a53146100ce575b5f80fd5b61009261014e565b60405161009f9190610458565b60405180910390f35b6100c260048036038101906100bd91906104b3565b6101a3565b005b6100cc6101cb565b005b6100e860048036038101906100e3919061061a565b6101fa565b005b6100f261022f565b6040516100ff919061077c565b60405180910390f35b610110610303565b005b61011a610329565b60405161012791906107ab565b60405180910390f35b610138610334565b60405161014591906107ab565b60405180910390f35b60605f80548060200260200160405190810160405280929190818152602001828054801561019957602002820191905f5260205f20905b815481526020019060010190808311610185575b5050505050905090565b5f81908060018154018082558091505060019003905f5260205f20015f909190919091505550565b60018054806101dd576101dc6107c4565b5b600190038181905f5260205f20015f6101f69190610340565b9055565b600181908060018154018082558091505060019003905f5260205f20015f90919091909150908161022b91906109eb565b5050565b60606001805480602002602001604051908101604052809291908181526020015f905b828210156102fa578382905f5260205f2001805461026f9061081e565b80601f016020809104026020016040519081016040528092919081815260200182805461029b9061081e565b80156102e65780601f106102bd576101008083540402835291602001916102e6565b820191905f5260205f20905b8154815290600101906020018083116102c957829003601f168201915b505050505081526020019060010190610252565b50505050905090565b5f805480610314576103136107c4565b5b600190038181905f5260205f20015f90559055565b5f8080549050905090565b5f600180549050905090565b50805461034c9061081e565b5f825580601f1061035d575061037a565b601f0160209004905f5260205f2090810190610379919061037d565b5b50565b5b80821115610394575f815f90555060010161037e565b5090565b5f81519050919050565b5f82825260208201905092915050565b5f819050602082019050919050565b5f819050919050565b6103d3816103c1565b82525050565b5f6103e483836103ca565b60208301905092915050565b5f602082019050919050565b5f61040682610398565b61041081856103a2565b935061041b836103b2565b805f5b8381101561044b57815161043288826103d9565b975061043d836103f0565b92505060018101905061041e565b5085935050505092915050565b5f6020820190508181035f83015261047081846103fc565b905092915050565b5f604051905090565b5f80fd5b5f80fd5b610492816103c1565b811461049c575f80fd5b50565b5f813590506104ad81610489565b92915050565b5f602082840312156104c8576104c7610481565b5b5f6104d58482850161049f565b91505092915050565b5f80fd5b5f80fd5b5f601f19601f8301169050919050565b7f4e487b71000000000000000000000000000000000000000000000000000000005f52604160045260245ffd5b61052c826104e6565b810181811067ffffffffffffffff8211171561054b5761054a6104f6565b5b80604052505050565b5f61055d610478565b90506105698282610523565b919050565b5f67ffffffffffffffff821115610588576105876104f6565b5b610591826104e6565b9050602081019050919050565b828183375f83830152505050565b5f6105be6105b98461056e565b610554565b9050828152602081018484840111156105da576105d96104e2565b5b6105e584828561059e565b509392505050565b5f82601f830112610601576106006104de565b5b81356106118482602086016105ac565b91505092915050565b5f6020828403121561062f5761062e610481565b5b5f82013567ffffffffffffffff81111561064c5761064b610485565b5b610658848285016105ed565b91505092915050565b5f81519050919050565b5f82825260208201905092915050565b5f819050602082019050919050565b5f81519050919050565b5f82825260208201905092915050565b8281835e5f83830152505050565b5f6106bc8261068a565b6106c68185610694565b93506106d68185602086016106a4565b6106df816104e6565b840191505092915050565b5f6106f583836106b2565b905092915050565b5f602082019050919050565b5f61071382610661565b61071d818561066b565b93508360208202850161072f8561067b565b805f5b8581101561076a578484038952815161074b85826106ea565b9450610756836106fd565b925060208a01995050600181019050610732565b50829750879550505050505092915050565b5f6020820190508181035f8301526107948184610709565b905092915050565b6107a5816103c1565b82525050565b5f6020820190506107be5f83018461079c565b92915050565b7f4e487b71000000000000000000000000000000000000000000000000000000005f52603160045260245ffd5b7f4e487b71000000000000000000000000000000000000000000000000000000005f52602260045260245ffd5b5f600282049050600182168061083557607f821691505b602082108103610848576108476107f1565b5b50919050565b5f819050815f5260205f209050919050565b5f6020601f8301049050919050565b5f82821b905092915050565b5f600883026108aa7fffffffffffffffffffffffffffffffffffffffffffffffffffffffffffffffff8261086f565b6108b4868361086f565b95508019841693508086168417925050509392505050565b5f819050919050565b5f6108ef6108ea6108e5846103c1565b6108cc565b6103c1565b9050919050565b5f819050919050565b610908836108d5565b61091c610914826108f6565b84845461087b565b825550505050565b5f90565b610930610924565b61093b8184846108ff565b505050565b5b8181101561095e576109535f82610928565b600181019050610941565b5050565b601f8211156109a3576109748161084e565b61097d84610860565b8101602085101561098c578190505b6109a061099885610860565b830182610940565b50505b505050565b5f82821c905092915050565b5f6109c35f19846008026109a8565b1980831691505092915050565b5f6109db83836109b4565b9150826002028217905092915050565b6109f48261068a565b67ffffffffffffffff811115610a0d57610a0c6104f6565b5b610a17825461081e565b610a22828285610962565b5f60209050601f831160018114610a53575f8415610a41578287015190505b610a4b85826109d0565b865550610ab2565b601f198416610a618661084e565b5f5b82811015610a8857848901518255600182019150602085019450602081019050610a63565b86831015610aa55784890151610aa1601f8916826109b4565b8355505b6001600288020188555050505b50505050505056fea2646970667358221220c6ee68e675d4b44502e71f0b0eda2be17ebc85c276a06ab1d26352a8568b671a64736f6c63430008190033",
					"opcodes": "PUSH1 0x80 PUSH1 0x40 MSTORE CALLVALUE DUP1 ISZERO PUSH1 0xE JUMPI PUSH0 DUP1 REVERT JUMPDEST POP PUSH2 0xAF0 DUP1 PUSH2 0x1C PUSH0 CODECOPY PUSH0 RETURN INVALID PUSH1 0x80 PUSH1 0x40 MSTORE CALLVALUE DUP1 ISZERO PUSH2 0xF JUMPI PUSH0 DUP1 REVERT JUMPDEST POP PUSH1 0x4 CALLDATASIZE LT PUSH2 0x86 JUMPI PUSH0 CALLDATALOAD PUSH1 0xE0 SHR DUP1 PUSH4 0x97939AC4 GT PUSH2 0x59 JUMPI DUP1 PUSH4 0x97939AC4 EQ PUSH2 0xEA JUMPI DUP1 PUSH4 0xAE713D2A EQ PUSH2 0x108 JUMPI DUP1 PUSH4 0xE554482E EQ PUSH2 0x112 JUMPI DUP1 PUSH4 0xF66C884A EQ PUSH2 0x130 JUMPI PUSH2 0x86 JUMP JUMPDEST DUP1 PUSH4 0x131CF9C1 EQ PUSH2 0x8A JUMPI DUP1 PUSH4 0x16CDF825 EQ PUSH2 0xA8 JUMPI DUP1 PUSH4 0x30C36FCD EQ PUSH2 0xC4 JUMPI DUP1 PUSH4 0x4C987A53 EQ PUSH2 0xCE JUMPI JUMPDEST PUSH0 DUP1 REVERT JUMPDEST PUSH2 0x92 PUSH2 0x14E JUMP JUMPDEST PUSH1 0x40 MLOAD PUSH2 0x9F SWAP2 SWAP1 PUSH2 0x458 JUMP JUMPDEST PUSH1 0x40 MLOAD DUP1 SWAP2 SUB SWAP1 RETURN JUMPDEST PUSH2 0xC2 PUSH1 0x4 DUP1 CALLDATASIZE SUB DUP2 ADD SWAP1 PUSH2 0xBD SWAP2 SWAP1 PUSH2 0x4B3 JUMP JUMPDEST PUSH2 0x1A3 JUMP JUMPDEST STOP JUMPDEST PUSH2 0xCC PUSH2 0x1CB JUMP JUMPDEST STOP JUMPDEST PUSH2 0xE8 PUSH1 0x4 DUP1 CALLDATASIZE SUB DUP2 ADD SWAP1 PUSH2 0xE3 SWAP2 SWAP1 PUSH2 0x61A JUMP JUMPDEST PUSH2 0x1FA JUMP JUMPDEST STOP JUMPDEST PUSH2 0xF2 PUSH2 0x22F JUMP JUMPDEST PUSH1 0x40 MLOAD PUSH2 0xFF SWAP2 SWAP1 PUSH2 0x77C JUMP JUMPDEST PUSH1 0x40 MLOAD DUP1 SWAP2 SUB SWAP1 RETURN JUMPDEST PUSH2 0x110 PUSH2 0x303 JUMP JUMPDEST STOP JUMPDEST PUSH2 0x11A PUSH2 0x329 JUMP JUMPDEST PUSH1 0x40 MLOAD PUSH2 0x127 SWAP2 SWAP1 PUSH2 0x7AB JUMP JUMPDEST PUSH1 0x40 MLOAD DUP1 SWAP2 SUB SWAP1 RETURN JUMPDEST PUSH2 0x138 PUSH2 0x334 JUMP JUMPDEST PUSH1 0x40 MLOAD PUSH2 0x145 SWAP2 SWAP1 PUSH2 0x7AB JUMP JUMPDEST PUSH1 0x40 MLOAD DUP1 SWAP2 SUB SWAP1 RETURN JUMPDEST PUSH1 0x60 PUSH0 DUP1 SLOAD DUP1 PUSH1 0x20 MUL PUSH1 0x20 ADD PUSH1 0x40 MLOAD SWAP1 DUP2 ADD PUSH1 0x40 MSTORE DUP1 SWAP3 SWAP2 SWAP1 DUP2 DUP2 MSTORE PUSH1 0x20 ADD DUP3 DUP1 SLOAD DUP1 ISZERO PUSH2 0x199 JUMPI PUSH1 0x20 MUL DUP3 ADD SWAP2 SWAP1 PUSH0 MSTORE PUSH1 0x20 PUSH0 KECCAK256 SWAP1 JUMPDEST DUP2 SLOAD DUP2 MSTORE PUSH1 0x20 ADD SWAP1 PUSH1 0x1 ADD SWAP1 DUP1 DUP4 GT PUSH2 0x185 JUMPI JUMPDEST POP POP POP POP POP SWAP1 POP SWAP1 JUMP JUMPDEST PUSH0 DUP2 SWAP1 DUP1 PUSH1 0x1 DUP2 SLOAD ADD DUP1 DUP3 SSTORE DUP1 SWAP2 POP POP PUSH1 0x1 SWAP1 SUB SWAP1 PUSH0 MSTORE PUSH1 0x20 PUSH0 KECCAK256 ADD PUSH0 SWAP1 SWAP2 SWAP1 SWAP2 SWAP1 SWAP2 POP SSTORE POP JUMP JUMPDEST PUSH1 0x1 DUP1 SLOAD DUP1 PUSH2 0x1DD JUMPI PUSH2 0x1DC PUSH2 0x7C4 JUMP JUMPDEST JUMPDEST PUSH1 0x1 SWAP1 SUB DUP2 DUP2 SWAP1 PUSH0 MSTORE PUSH1 0x20 PUSH0 KECCAK256 ADD PUSH0 PUSH2 0x1F6 SWAP2 SWAP1 PUSH2 0x340 JUMP JUMPDEST SWAP1 SSTORE JUMP JUMPDEST PUSH1 0x1 DUP2 SWAP1 DUP1 PUSH1 0x1 DUP2 SLOAD ADD DUP1 DUP3 SSTORE DUP1 SWAP2 POP POP PUSH1 0x1 SWAP1 SUB SWAP1 PUSH0 MSTORE PUSH1 0x20 PUSH0 KECCAK256 ADD PUSH0 SWAP1 SWAP2 SWAP1 SWAP2 SWAP1 SWAP2 POP SWAP1 DUP2 PUSH2 0x22B SWAP2 SWAP1 PUSH2 0x9EB JUMP JUMPDEST POP POP JUMP JUMPDEST PUSH1 0x60 PUSH1 0x1 DUP1 SLOAD DUP1 PUSH1 0x20 MUL PUSH1 0x20 ADD PUSH1 0x40 MLOAD SWAP1 DUP2 ADD PUSH1 0x40 MSTORE DUP1 SWAP3 SWAP2 SWAP1 DUP2 DUP2 MSTORE PUSH1 0x20 ADD PUSH0 SWAP1 JUMPDEST DUP3 DUP3 LT ISZERO PUSH2 0x2FA JUMPI DUP4 DUP3 SWAP1 PUSH0 MSTORE PUSH1 0x20 PUSH0 KECCAK256 ADD DUP1 SLOAD PUSH2 0x26F SWAP1 PUSH2 0x81E JUMP JUMPDEST DUP1 PUSH1 0x1F ADD PUSH1 0x20 DUP1 SWAP2 DIV MUL PUSH1 0x20 ADD PUSH1 0x40 MLOAD SWAP1 DUP2 ADD PUSH1 0x40 MSTORE DUP1 SWAP3 SWAP2 SWAP1 DUP2 DUP2 MSTORE PUSH1 0x20 ADD DUP3 DUP1 SLOAD PUSH2 0x29B SWAP1 PUSH2 0x81E JUMP JUMPDEST DUP1 ISZERO PUSH2 0x2E6 JUMPI DUP1 PUSH1 0x1F LT PUSH2 0x2BD JUMPI PUSH2 0x100 DUP1 DUP4 SLOAD DIV MUL DUP4 MSTORE SWAP2 PUSH1 0x20 ADD SWAP2 PUSH2 0x2E6 JUMP JUMPDEST DUP3 ADD SWAP2 SWAP1 PUSH0 MSTORE PUSH1 0x20 PUSH0 KECCAK256 SWAP1 JUMPDEST DUP2 SLOAD DUP2 MSTORE SWAP1 PUSH1 0x1 ADD SWAP1 PUSH1 0x20 ADD DUP1 DUP4 GT PUSH2 0x2C9 JUMPI DUP3 SWAP1 SUB PUSH1 0x1F AND DUP3 ADD SWAP2 JUMPDEST POP POP POP POP POP DUP2 MSTORE PUSH1 0x20 ADD SWAP1 PUSH1 0x1 ADD SWAP1 PUSH2 0x252 JUMP JUMPDEST POP POP POP POP SWAP1 POP SWAP1 JUMP JUMPDEST PUSH0 DUP1 SLOAD DUP1 PUSH2 0x314 JUMPI PUSH2 0x313 PUSH2 0x7C4 JUMP JUMPDEST JUMPDEST PUSH1 0x1 SWAP1 SUB DUP2 DUP2 SWAP1 PUSH0 MSTORE PUSH1 0x20 PUSH0 KECCAK256 ADD PUSH0 SWAP1 SSTORE SWAP1 SSTORE JUMP JUMPDEST PUSH0 DUP1 DUP1 SLOAD SWAP1 POP SWAP1 POP SWAP1 JUMP JUMPDEST PUSH0 PUSH1 0x1 DUP1 SLOAD SWAP1 POP SWAP1 POP SWAP1 JUMP JUMPDEST POP DUP1 SLOAD PUSH2 0x34C SWAP1 PUSH2 0x81E JUMP JUMPDEST PUSH0 DUP3 SSTORE DUP1 PUSH1 0x1F LT PUSH2 0x35D JUMPI POP PUSH2 0x37A JUMP JUMPDEST PUSH1 0x1F ADD PUSH1 0x20 SWAP1 DIV SWAP1 PUSH0 MSTORE PUSH1 0x20 PUSH0 KECCAK256 SWAP1 DUP2 ADD SWAP1 PUSH2 0x379 SWAP2 SWAP1 PUSH2 0x37D JUMP JUMPDEST JUMPDEST POP JUMP JUMPDEST JUMPDEST DUP1 DUP3 GT ISZERO PUSH2 0x394 JUMPI PUSH0 DUP2 PUSH0 SWAP1 SSTORE POP PUSH1 0x1 ADD PUSH2 0x37E JUMP JUMPDEST POP SWAP1 JUMP JUMPDEST PUSH0 DUP2 MLOAD SWAP1 POP SWAP2 SWAP1 POP JUMP JUMPDEST PUSH0 DUP3 DUP3 MSTORE PUSH1 0x20 DUP3 ADD SWAP1 POP SWAP3 SWAP2 POP POP JUMP JUMPDEST PUSH0 DUP2 SWAP1 POP PUSH1 0x20 DUP3 ADD SWAP1 POP SWAP2 SWAP1 POP JUMP JUMPDEST PUSH0 DUP2 SWAP1 POP SWAP2 SWAP1 POP JUMP JUMPDEST PUSH2 0x3D3 DUP2 PUSH2 0x3C1 JUMP JUMPDEST DUP3 MSTORE POP POP JUMP JUMPDEST PUSH0 PUSH2 0x3E4 DUP4 DUP4 PUSH2 0x3CA JUMP JUMPDEST PUSH1 0x20 DUP4 ADD SWAP1 POP SWAP3 SWAP2 POP POP JUMP JUMPDEST PUSH0 PUSH1 0x20 DUP3 ADD SWAP1 POP SWAP2 SWAP1 POP JUMP JUMPDEST PUSH0 PUSH2 0x406 DUP3 PUSH2 0x398 JUMP JUMPDEST PUSH2 0x410 DUP2 DUP6 PUSH2 0x3A2 JUMP JUMPDEST SWAP4 POP PUSH2 0x41B DUP4 PUSH2 0x3B2 JUMP JUMPDEST DUP1 PUSH0 JUMPDEST DUP4 DUP2 LT ISZERO PUSH2 0x44B JUMPI DUP2 MLOAD PUSH2 0x432 DUP9 DUP3 PUSH2 0x3D9 JUMP JUMPDEST SWAP8 POP PUSH2 0x43D DUP4 PUSH2 0x3F0 JUMP JUMPDEST SWAP3 POP POP PUSH1 0x1 DUP2 ADD SWAP1 POP PUSH2 0x41E JUMP JUMPDEST POP DUP6 SWAP4 POP POP POP POP SWAP3 SWAP2 POP POP JUMP JUMPDEST PUSH0 PUSH1 0x20 DUP3 ADD SWAP1 POP DUP2 DUP2 SUB PUSH0 DUP4 ADD MSTORE PUSH2 0x470 DUP2 DUP5 PUSH2 0x3FC JUMP JUMPDEST SWAP1 POP SWAP3 SWAP2 POP POP JUMP JUMPDEST PUSH0 PUSH1 0x40 MLOAD SWAP1 POP SWAP1 JUMP JUMPDEST PUSH0 DUP1 REVERT JUMPDEST PUSH0 DUP1 REVERT JUMPDEST PUSH2 0x492 DUP2 PUSH2 0x3C1 JUMP JUMPDEST DUP2 EQ PUSH2 0x49C JUMPI PUSH0 DUP1 REVERT JUMPDEST POP JUMP JUMPDEST PUSH0 DUP2 CALLDATALOAD SWAP1 POP PUSH2 0x4AD DUP2 PUSH2 0x489 JUMP JUMPDEST SWAP3 SWAP2 POP POP JUMP JUMPDEST PUSH0 PUSH1 0x20 DUP3 DUP5 SUB SLT ISZERO PUSH2 0x4C8 JUMPI PUSH2 0x4C7 PUSH2 0x481 JUMP JUMPDEST JUMPDEST PUSH0 PUSH2 0x4D5 DUP5 DUP3 DUP6 ADD PUSH2 0x49F JUMP JUMPDEST SWAP2 POP POP SWAP3 SWAP2 POP POP JUMP JUMPDEST PUSH0 DUP1 REVERT JUMPDEST PUSH0 DUP1 REVERT JUMPDEST PUSH0 PUSH1 0x1F NOT PUSH1 0x1F DUP4 ADD AND SWAP1 POP SWAP2 SWAP1 POP JUMP JUMPDEST PUSH32 0x4E487B7100000000000000000000000000000000000000000000000000000000 PUSH0 MSTORE PUSH1 0x41 PUSH1 0x4 MSTORE PUSH1 0x24 PUSH0 REVERT JUMPDEST PUSH2 0x52C DUP3 PUSH2 0x4E6 JUMP JUMPDEST DUP2 ADD DUP2 DUP2 LT PUSH8 0xFFFFFFFFFFFFFFFF DUP3 GT OR ISZERO PUSH2 0x54B JUMPI PUSH2 0x54A PUSH2 0x4F6 JUMP JUMPDEST JUMPDEST DUP1 PUSH1 0x40 MSTORE POP POP POP JUMP JUMPDEST PUSH0 PUSH2 0x55D PUSH2 0x478 JUMP JUMPDEST SWAP1 POP PUSH2 0x569 DUP3 DUP3 PUSH2 0x523 JUMP JUMPDEST SWAP2 SWAP1 POP JUMP JUMPDEST PUSH0 PUSH8 0xFFFFFFFFFFFFFFFF DUP3 GT ISZERO PUSH2 0x588 JUMPI PUSH2 0x587 PUSH2 0x4F6 JUMP JUMPDEST JUMPDEST PUSH2 0x591 DUP3 PUSH2 0x4E6 JUMP JUMPDEST SWAP1 POP PUSH1 0x20 DUP2 ADD SWAP1 POP SWAP2 SWAP1 POP JUMP JUMPDEST DUP3 DUP2 DUP4 CALLDATACOPY PUSH0 DUP4 DUP4 ADD MSTORE POP POP POP JUMP JUMPDEST PUSH0 PUSH2 0x5BE PUSH2 0x5B9 DUP5 PUSH2 0x56E JUMP JUMPDEST PUSH2 0x554 JUMP JUMPDEST SWAP1 POP DUP3 DUP2 MSTORE PUSH1 0x20 DUP2 ADD DUP5 DUP5 DUP5 ADD GT ISZERO PUSH2 0x5DA JUMPI PUSH2 0x5D9 PUSH2 0x4E2 JUMP JUMPDEST JUMPDEST PUSH2 0x5E5 DUP5 DUP3 DUP6 PUSH2 0x59E JUMP JUMPDEST POP SWAP4 SWAP3 POP POP POP JUMP JUMPDEST PUSH0 DUP3 PUSH1 0x1F DUP4 ADD SLT PUSH2 0x601 JUMPI PUSH2 0x600 PUSH2 0x4DE JUMP JUMPDEST JUMPDEST DUP2 CALLDATALOAD PUSH2 0x611 DUP5 DUP3 PUSH1 0x20 DUP7 ADD PUSH2 0x5AC JUMP JUMPDEST SWAP2 POP POP SWAP3 SWAP2 POP POP JUMP JUMPDEST PUSH0 PUSH1 0x20 DUP3 DUP5 SUB SLT ISZERO PUSH2 0x62F JUMPI PUSH2 0x62E PUSH2 0x481 JUMP JUMPDEST JUMPDEST PUSH0 DUP3 ADD CALLDATALOAD PUSH8 0xFFFFFFFFFFFFFFFF DUP2 GT ISZERO PUSH2 0x64C JUMPI PUSH2 0x64B PUSH2 0x485 JUMP JUMPDEST JUMPDEST PUSH2 0x658 DUP5 DUP3 DUP6 ADD PUSH2 0x5ED JUMP JUMPDEST SWAP2 POP POP SWAP3 SWAP2 POP POP JUMP JUMPDEST PUSH0 DUP2 MLOAD SWAP1 POP SWAP2 SWAP1 POP JUMP JUMPDEST PUSH0 DUP3 DUP3 MSTORE PUSH1 0x20 DUP3 ADD SWAP1 POP SWAP3 SWAP2 POP POP JUMP JUMPDEST PUSH0 DUP2 SWAP1 POP PUSH1 0x20 DUP3 ADD SWAP1 POP SWAP2 SWAP1 POP JUMP JUMPDEST PUSH0 DUP2 MLOAD SWAP1 POP SWAP2 SWAP1 POP JUMP JUMPDEST PUSH0 DUP3 DUP3 MSTORE PUSH1 0x20 DUP3 ADD SWAP1 POP SWAP3 SWAP2 POP POP JUMP JUMPDEST DUP3 DUP2 DUP4 MCOPY PUSH0 DUP4 DUP4 ADD MSTORE POP POP POP JUMP JUMPDEST PUSH0 PUSH2 0x6BC DUP3 PUSH2 0x68A JUMP JUMPDEST PUSH2 0x6C6 DUP2 DUP6 PUSH2 0x694 JUMP JUMPDEST SWAP4 POP PUSH2 0x6D6 DUP2 DUP6 PUSH1 0x20 DUP7 ADD PUSH2 0x6A4 JUMP JUMPDEST PUSH2 0x6DF DUP2 PUSH2 0x4E6 JUMP JUMPDEST DUP5 ADD SWAP2 POP POP SWAP3 SWAP2 POP POP JUMP JUMPDEST PUSH0 PUSH2 0x6F5 DUP4 DUP4 PUSH2 0x6B2 JUMP JUMPDEST SWAP1 POP SWAP3 SWAP2 POP POP JUMP JUMPDEST PUSH0 PUSH1 0x20 DUP3 ADD SWAP1 POP SWAP2 SWAP1 POP JUMP JUMPDEST PUSH0 PUSH2 0x713 DUP3 PUSH2 0x661 JUMP JUMPDEST PUSH2 0x71D DUP2 DUP6 PUSH2 0x66B JUMP JUMPDEST SWAP4 POP DUP4 PUSH1 0x20 DUP3 MUL DUP6 ADD PUSH2 0x72F DUP6 PUSH2 0x67B JUMP JUMPDEST DUP1 PUSH0 JUMPDEST DUP6 DUP2 LT ISZERO PUSH2 0x76A JUMPI DUP5 DUP5 SUB DUP10 MSTORE DUP2 MLOAD PUSH2 0x74B DUP6 DUP3 PUSH2 0x6EA JUMP JUMPDEST SWAP5 POP PUSH2 0x756 DUP4 PUSH2 0x6FD JUMP JUMPDEST SWAP3 POP PUSH1 0x20 DUP11 ADD SWAP10 POP POP PUSH1 0x1 DUP2 ADD SWAP1 POP PUSH2 0x732 JUMP JUMPDEST POP DUP3 SWAP8 POP DUP8 SWAP6 POP POP POP POP POP POP SWAP3 SWAP2 POP POP JUMP JUMPDEST PUSH0 PUSH1 0x20 DUP3 ADD SWAP1 POP DUP2 DUP2 SUB PUSH0 DUP4 ADD MSTORE PUSH2 0x794 DUP2 DUP5 PUSH2 0x709 JUMP JUMPDEST SWAP1 POP SWAP3 SWAP2 POP POP JUMP JUMPDEST PUSH2 0x7A5 DUP2 PUSH2 0x3C1 JUMP JUMPDEST DUP3 MSTORE POP POP JUMP JUMPDEST PUSH0 PUSH1 0x20 DUP3 ADD SWAP1 POP PUSH2 0x7BE PUSH0 DUP4 ADD DUP5 PUSH2 0x79C JUMP JUMPDEST SWAP3 SWAP2 POP POP JUMP JUMPDEST PUSH32 0x4E487B7100000000000000000000000000000000000000000000000000000000 PUSH0 MSTORE PUSH1 0x31 PUSH1 0x4 MSTORE PUSH1 0x24 PUSH0 REVERT JUMPDEST PUSH32 0x4E487B7100000000000000000000000000000000000000000000000000000000 PUSH0 MSTORE PUSH1 0x22 PUSH1 0x4 MSTORE PUSH1 0x24 PUSH0 REVERT JUMPDEST PUSH0 PUSH1 0x2 DUP3 DIV SWAP1 POP PUSH1 0x1 DUP3 AND DUP1 PUSH2 0x835 JUMPI PUSH1 0x7F DUP3 AND SWAP2 POP JUMPDEST PUSH1 0x20 DUP3 LT DUP2 SUB PUSH2 0x848 JUMPI PUSH2 0x847 PUSH2 0x7F1 JUMP JUMPDEST JUMPDEST POP SWAP2 SWAP1 POP JUMP JUMPDEST PUSH0 DUP2 SWAP1 POP DUP2 PUSH0 MSTORE PUSH1 0x20 PUSH0 KECCAK256 SWAP1 POP SWAP2 SWAP1 POP JUMP JUMPDEST PUSH0 PUSH1 0x20 PUSH1 0x1F DUP4 ADD DIV SWAP1 POP SWAP2 SWAP1 POP JUMP JUMPDEST PUSH0 DUP3 DUP3 SHL SWAP1 POP SWAP3 SWAP2 POP POP JUMP JUMPDEST PUSH0 PUSH1 0x8 DUP4 MUL PUSH2 0x8AA PUSH32 0xFFFFFFFFFFFFFFFFFFFFFFFFFFFFFFFFFFFFFFFFFFFFFFFFFFFFFFFFFFFFFFFF DUP3 PUSH2 0x86F JUMP JUMPDEST PUSH2 0x8B4 DUP7 DUP4 PUSH2 0x86F JUMP JUMPDEST SWAP6 POP DUP1 NOT DUP5 AND SWAP4 POP DUP1 DUP7 AND DUP5 OR SWAP3 POP POP POP SWAP4 SWAP3 POP POP POP JUMP JUMPDEST PUSH0 DUP2 SWAP1 POP SWAP2 SWAP1 POP JUMP JUMPDEST PUSH0 PUSH2 0x8EF PUSH2 0x8EA PUSH2 0x8E5 DUP5 PUSH2 0x3C1 JUMP JUMPDEST PUSH2 0x8CC JUMP JUMPDEST PUSH2 0x3C1 JUMP JUMPDEST SWAP1 POP SWAP2 SWAP1 POP JUMP JUMPDEST PUSH0 DUP2 SWAP1 POP SWAP2 SWAP1 POP JUMP JUMPDEST PUSH2 0x908 DUP4 PUSH2 0x8D5 JUMP JUMPDEST PUSH2 0x91C PUSH2 0x914 DUP3 PUSH2 0x8F6 JUMP JUMPDEST DUP5 DUP5 SLOAD PUSH2 0x87B JUMP JUMPDEST DUP3 SSTORE POP POP POP POP JUMP JUMPDEST PUSH0 SWAP1 JUMP JUMPDEST PUSH2 0x930 PUSH2 0x924 JUMP JUMPDEST PUSH2 0x93B DUP2 DUP5 DUP5 PUSH2 0x8FF JUMP JUMPDEST POP POP POP JUMP JUMPDEST JUMPDEST DUP2 DUP2 LT ISZERO PUSH2 0x95E JUMPI PUSH2 0x953 PUSH0 DUP3 PUSH2 0x928 JUMP JUMPDEST PUSH1 0x1 DUP2 ADD SWAP1 POP PUSH2 0x941 JUMP JUMPDEST POP POP JUMP JUMPDEST PUSH1 0x1F DUP3 GT ISZERO PUSH2 0x9A3 JUMPI PUSH2 0x974 DUP2 PUSH2 0x84E JUMP JUMPDEST PUSH2 0x97D DUP5 PUSH2 0x860 JUMP JUMPDEST DUP2 ADD PUSH1 0x20 DUP6 LT ISZERO PUSH2 0x98C JUMPI DUP2 SWAP1 POP JUMPDEST PUSH2 0x9A0 PUSH2 0x998 DUP6 PUSH2 0x860 JUMP JUMPDEST DUP4 ADD DUP3 PUSH2 0x940 JUMP JUMPDEST POP POP JUMPDEST POP POP POP JUMP JUMPDEST PUSH0 DUP3 DUP3 SHR SWAP1 POP SWAP3 SWAP2 POP POP JUMP JUMPDEST PUSH0 PUSH2 0x9C3 PUSH0 NOT DUP5 PUSH1 0x8 MUL PUSH2 0x9A8 JUMP JUMPDEST NOT DUP1 DUP4 AND SWAP2 POP POP SWAP3 SWAP2 POP POP JUMP JUMPDEST PUSH0 PUSH2 0x9DB DUP4 DUP4 PUSH2 0x9B4 JUMP JUMPDEST SWAP2 POP DUP3 PUSH1 0x2 MUL DUP3 OR SWAP1 POP SWAP3 SWAP2 POP POP JUMP JUMPDEST PUSH2 0x9F4 DUP3 PUSH2 0x68A JUMP JUMPDEST PUSH8 0xFFFFFFFFFFFFFFFF DUP2 GT ISZERO PUSH2 0xA0D JUMPI PUSH2 0xA0C PUSH2 0x4F6 JUMP JUMPDEST JUMPDEST PUSH2 0xA17 DUP3 SLOAD PUSH2 0x81E JUMP JUMPDEST PUSH2 0xA22 DUP3 DUP3 DUP6 PUSH2 0x962 JUMP JUMPDEST PUSH0 PUSH1 0x20 SWAP1 POP PUSH1 0x1F DUP4 GT PUSH1 0x1 DUP2 EQ PUSH2 0xA53 JUMPI PUSH0 DUP5 ISZERO PUSH2 0xA41 JUMPI DUP3 DUP8 ADD MLOAD SWAP1 POP JUMPDEST PUSH2 0xA4B DUP6 DUP3 PUSH2 0x9D0 JUMP JUMPDEST DUP7 SSTORE POP PUSH2 0xAB2 JUMP JUMPDEST PUSH1 0x1F NOT DUP5 AND PUSH2 0xA61 DUP7 PUSH2 0x84E JUMP JUMPDEST PUSH0 JUMPDEST DUP3 DUP2 LT ISZERO PUSH2 0xA88 JUMPI DUP5 DUP10 ADD MLOAD DUP3 SSTORE PUSH1 0x1 DUP3 ADD SWAP2 POP PUSH1 0x20 DUP6 ADD SWAP5 POP PUSH1 0x20 DUP2 ADD SWAP1 POP PUSH2 0xA63 JUMP JUMPDEST DUP7 DUP4 LT ISZERO PUSH2 0xAA5 JUMPI DUP5 DUP10 ADD MLOAD PUSH2 0xAA1 PUSH1 0x1F DUP10 AND DUP3 PUSH2 0x9B4 JUMP JUMPDEST DUP4 SSTORE POP JUMPDEST PUSH1 0x1 PUSH1 0x2 DUP9 MUL ADD DUP9 SSTORE POP POP POP JUMPDEST POP POP POP POP POP POP JUMP INVALID LOG2 PUSH5 0x6970667358 0x22 SLT KECCAK256 0xC6 0xEE PUSH9 0xE675D4B44502E71F0B 0xE 0xDA 0x2B 0xE1 PUSH31 0xBC85C276A06AB1D26352A8568B671A64736F6C634300081900330000000000 "
				},
				"gasEstimates": {
					"creation": {
						"codeDepositCost": "560000",
						"executionCost": "592",
						"totalCost": "560592"
					},
					"external": {
						"accessArray()": "infinite",
						"accessSArray()": "infinite",
						"arrayLength()": "2484",
						"popArray()": "29462",
						"popSArray()": "infinite",
						"pushArray(uint256)": "46843",
						"pushSArray(string)": "infinite",
						"sArrayLenght()": "2506"
					}
				},
				"methodIdentifiers": {
					"accessArray()": "131cf9c1",
					"accessSArray()": "97939ac4",
					"arrayLength()": "e554482e",
					"popArray()": "ae713d2a",
					"popSArray()": "30c36fcd",
					"pushArray(uint256)": "16cdf825",
					"pushSArray(string)": "4c987a53",
					"sArrayLenght()": "f66c884a"
				}
			},
			"storageLayout": {
				"storage": [
					{
						"astId": 4,
						"contract": "contracts/day_2/array.sol:array",
						"label": "intArray",
						"offset": 0,
						"slot": "0",
						"type": "t_array(t_uint256)dyn_storage"
					},
					{
						"astId": 46,
						"contract": "contracts/day_2/array.sol:array",
						"label": "stringArray",
						"offset": 0,
						"slot": "1",
						"type": "t_array(t_string_storage)dyn_storage"
					}
				],
				"types": {
					"t_array(t_string_storage)dyn_storage": {
						"base": "t_string_storage",
						"encoding": "dynamic_array",
						"label": "string[]",
						"numberOfBytes": "32"
					},
					"t_array(t_uint256)dyn_storage": {
						"base": "t_uint256",
						"encoding": "dynamic_array",
						"label": "uint256[]",
						"numberOfBytes": "32"
					},
					"t_string_storage": {
						"encoding": "bytes",
						"label": "string",
						"numberOfBytes": "32"
					},
					"t_uint256": {
						"encoding": "inplace",
						"label": "uint256",
						"numberOfBytes": "32"
					}
				}
			},
			"userdoc": {
				"kind": "user",
				"methods": {},
				"version": 1
			}
		}
	}
}