{
	"contracts/day_2/mapping.sol": {
		"lMapping": {
			"abi": [
				{
					"inputs": [
						{
							"internalType": "uint256",
							"name": "_id",
							"type": "uint256"
						},
						{
							"internalType": "string",
							"name": "_name",
							"type": "string"
						},
						{
							"internalType": "string",
							"name": "_faculty",
							"type": "string"
						}
					],
					"name": "create",
					"outputs": [],
					"stateMutability": "nonpayable",
					"type": "function"
				},
				{
					"inputs": [
						{
							"internalType": "uint256",
							"name": "_id",
							"type": "uint256"
						}
					],
					"name": "remove",
					"outputs": [],
					"stateMutability": "nonpayable",
					"type": "function"
				},
				{
					"inputs": [
						{
							"internalType": "uint256",
							"name": "",
							"type": "uint256"
						}
					],
					"name": "students",
					"outputs": [
						{
							"internalType": "uint256",
							"name": "id",
							"type": "uint256"
						},
						{
							"internalType": "string",
							"name": "name",
							"type": "string"
						},
						{
							"internalType": "string",
							"name": "faculty",
							"type": "string"
						}
					],
					"stateMutability": "view",
					"type": "function"
				},
				{
					"inputs": [
						{
							"internalType": "uint256",
							"name": "_id",
							"type": "uint256"
						},
						{
							"internalType": "string",
							"name": "_name",
							"type": "string"
						},
						{
							"internalType": "string",
							"name": "_faculty",
							"type": "string"
						}
					],
					"name": "update",
					"outputs": [],
					"stateMutability": "nonpayable",
					"type": "function"
				}
			],
			"devdoc": {
				"kind": "dev",
				"methods": {},
				"version": 1
			},
			"evm": {
				"assembly": "    /* \"contracts/day_2/mapping.sol\":90:823  contract lMapping{... */\n  mstore(0x40, 0x80)\n  callvalue\n  dup1\n  iszero\n  tag_1\n  jumpi\n  0x00\n  dup1\n  revert\ntag_1:\n  pop\n  dataSize(sub_0)\n  dup1\n  dataOffset(sub_0)\n  0x00\n  codecopy\n  0x00\n  return\nstop\n\nsub_0: assembly {\n        /* \"contracts/day_2/mapping.sol\":90:823  contract lMapping{... */\n      mstore(0x40, 0x80)\n      callvalue\n      dup1\n      iszero\n      tag_1\n      jumpi\n      0x00\n      dup1\n      revert\n    tag_1:\n      pop\n      jumpi(tag_2, lt(calldatasize, 0x04))\n      shr(0xe0, calldataload(0x00))\n      dup1\n      0x06ead22e\n      eq\n      tag_3\n      jumpi\n      dup1\n      0x4cc82215\n      eq\n      tag_4\n      jumpi\n      dup1\n      0x5a4463a8\n      eq\n      tag_5\n      jumpi\n      dup1\n      0xf95e0a54\n      eq\n      tag_6\n      jumpi\n    tag_2:\n      0x00\n      dup1\n      revert\n        /* \"contracts/day_2/mapping.sol\":317:357  mapping(uint => Student) public students */\n    tag_3:\n      tag_7\n      0x04\n      dup1\n      calldatasize\n      sub\n      dup2\n      add\n      swap1\n      tag_8\n      swap2\n      swap1\n      tag_9\n      jump\t// in\n    tag_8:\n      tag_10\n      jump\t// in\n    tag_7:\n      mload(0x40)\n      tag_11\n      swap4\n      swap3\n      swap2\n      swap1\n      tag_12\n      jump\t// in\n    tag_11:\n      mload(0x40)\n      dup1\n      swap2\n      sub\n      swap1\n      return\n        /* \"contracts/day_2/mapping.sol\":741:814  function remove(uint _id) public {... */\n    tag_4:\n      tag_13\n      0x04\n      dup1\n      calldatasize\n      sub\n      dup2\n      add\n      swap1\n      tag_14\n      swap2\n      swap1\n      tag_9\n      jump\t// in\n    tag_14:\n      tag_15\n      jump\t// in\n    tag_13:\n      stop\n        /* \"contracts/day_2/mapping.sol\":366:507  function create(uint _id, string memory _name, string memory _faculty) public {... */\n    tag_5:\n      tag_16\n      0x04\n      dup1\n      calldatasize\n      sub\n      dup2\n      add\n      swap1\n      tag_17\n      swap2\n      swap1\n      tag_18\n      jump\t// in\n    tag_17:\n      tag_19\n      jump\t// in\n    tag_16:\n      stop\n        /* \"contracts/day_2/mapping.sol\":523:727  function update(uint _id, string memory _name, string memory _faculty) public {... */\n    tag_6:\n      tag_20\n      0x04\n      dup1\n      calldatasize\n      sub\n      dup2\n      add\n      swap1\n      tag_21\n      swap2\n      swap1\n      tag_18\n      jump\t// in\n    tag_21:\n      tag_22\n      jump\t// in\n    tag_20:\n      stop\n        /* \"contracts/day_2/mapping.sol\":317:357  mapping(uint => Student) public students */\n    tag_10:\n      mstore(0x20, 0x00)\n      dup1\n      0x00\n      mstore\n      keccak256(0x00, 0x40)\n      0x00\n      swap2\n      pop\n      swap1\n      pop\n      dup1\n      0x00\n      add\n      sload\n      swap1\n      dup1\n      0x01\n      add\n      dup1\n      sload\n      tag_23\n      swap1\n      tag_24\n      jump\t// in\n    tag_23:\n      dup1\n      0x1f\n      add\n      0x20\n      dup1\n      swap2\n      div\n      mul\n      0x20\n      add\n      mload(0x40)\n      swap1\n      dup2\n      add\n      0x40\n      mstore\n      dup1\n      swap3\n      swap2\n      swap1\n      dup2\n      dup2\n      mstore\n      0x20\n      add\n      dup3\n      dup1\n      sload\n      tag_25\n      swap1\n      tag_24\n      jump\t// in\n    tag_25:\n      dup1\n      iszero\n      tag_26\n      jumpi\n      dup1\n      0x1f\n      lt\n      tag_27\n      jumpi\n      0x0100\n      dup1\n      dup4\n      sload\n      div\n      mul\n      dup4\n      mstore\n      swap2\n      0x20\n      add\n      swap2\n      jump(tag_26)\n    tag_27:\n      dup3\n      add\n      swap2\n      swap1\n      0x00\n      mstore\n      keccak256(0x00, 0x20)\n      swap1\n    tag_28:\n      dup2\n      sload\n      dup2\n      mstore\n      swap1\n      0x01\n      add\n      swap1\n      0x20\n      add\n      dup1\n      dup4\n      gt\n      tag_28\n      jumpi\n      dup3\n      swap1\n      sub\n      0x1f\n      and\n      dup3\n      add\n      swap2\n    tag_26:\n      pop\n      pop\n      pop\n      pop\n      pop\n      swap1\n      dup1\n      0x02\n      add\n      dup1\n      sload\n      tag_29\n      swap1\n      tag_24\n      jump\t// in\n    tag_29:\n      dup1\n      0x1f\n      add\n      0x20\n      dup1\n      swap2\n      div\n      mul\n      0x20\n      add\n      mload(0x40)\n      swap1\n      dup2\n      add\n      0x40\n      mstore\n      dup1\n      swap3\n      swap2\n      swap1\n      dup2\n      dup2\n      mstore\n      0x20\n      add\n      dup3\n      dup1\n      sload\n      tag_30\n      swap1\n      tag_24\n      jump\t// in\n    tag_30:\n      dup1\n      iszero\n      tag_31\n      jumpi\n      dup1\n      0x1f\n      lt\n      tag_32\n      jumpi\n      0x0100\n      dup1\n      dup4\n      sload\n      div\n      mul\n      dup4\n      mstore\n      swap2\n      0x20\n      add\n      swap2\n      jump(tag_31)\n    tag_32:\n      dup3\n      add\n      swap2\n      swap1\n      0x00\n      mstore\n      keccak256(0x00, 0x20)\n      swap1\n    tag_33:\n      dup2\n      sload\n      dup2\n      mstore\n      swap1\n      0x01\n      add\n      swap1\n      0x20\n      add\n      dup1\n      dup4\n      gt\n      tag_33\n      jumpi\n      dup3\n      swap1\n      sub\n      0x1f\n      and\n      dup3\n      add\n      swap2\n    tag_31:\n      pop\n      pop\n      pop\n      pop\n      pop\n      swap1\n      pop\n      dup4\n      jump\t// out\n        /* \"contracts/day_2/mapping.sol\":741:814  function remove(uint _id) public {... */\n    tag_15:\n        /* \"contracts/day_2/mapping.sol\":793:801  students */\n      0x00\n        /* \"contracts/day_2/mapping.sol\":793:806  students[_id] */\n      dup1\n        /* \"contracts/day_2/mapping.sol\":802:805  _id */\n      dup3\n        /* \"contracts/day_2/mapping.sol\":793:806  students[_id] */\n      dup2\n      mstore\n      0x20\n      add\n      swap1\n      dup2\n      mstore\n      0x20\n      add\n      0x00\n      keccak256\n      0x00\n        /* \"contracts/day_2/mapping.sol\":785:806  delete  students[_id] */\n      dup1\n      dup3\n      add\n      0x00\n      swap1\n      sstore\n      0x01\n      dup3\n      add\n      0x00\n      tag_35\n      swap2\n      swap1\n      tag_36\n      jump\t// in\n    tag_35:\n      0x02\n      dup3\n      add\n      0x00\n      tag_37\n      swap2\n      swap1\n      tag_36\n      jump\t// in\n    tag_37:\n      pop\n      pop\n        /* \"contracts/day_2/mapping.sol\":741:814  function remove(uint _id) public {... */\n      pop\n      jump\t// out\n        /* \"contracts/day_2/mapping.sol\":366:507  function create(uint _id, string memory _name, string memory _faculty) public {... */\n    tag_19:\n        /* \"contracts/day_2/mapping.sol\":470:499  Student(_id, _name, _faculty) */\n      mload(0x40)\n      dup1\n      0x60\n      add\n      0x40\n      mstore\n      dup1\n        /* \"contracts/day_2/mapping.sol\":478:481  _id */\n      dup5\n        /* \"contracts/day_2/mapping.sol\":470:499  Student(_id, _name, _faculty) */\n      dup2\n      mstore\n      0x20\n      add\n        /* \"contracts/day_2/mapping.sol\":483:488  _name */\n      dup4\n        /* \"contracts/day_2/mapping.sol\":470:499  Student(_id, _name, _faculty) */\n      dup2\n      mstore\n      0x20\n      add\n        /* \"contracts/day_2/mapping.sol\":490:498  _faculty */\n      dup3\n        /* \"contracts/day_2/mapping.sol\":470:499  Student(_id, _name, _faculty) */\n      dup2\n      mstore\n      pop\n        /* \"contracts/day_2/mapping.sol\":455:463  students */\n      0x00\n        /* \"contracts/day_2/mapping.sol\":455:468  students[_id] */\n      dup1\n        /* \"contracts/day_2/mapping.sol\":464:467  _id */\n      dup6\n        /* \"contracts/day_2/mapping.sol\":455:468  students[_id] */\n      dup2\n      mstore\n      0x20\n      add\n      swap1\n      dup2\n      mstore\n      0x20\n      add\n      0x00\n      keccak256\n        /* \"contracts/day_2/mapping.sol\":455:499  students[_id]= Student(_id, _name, _faculty) */\n      0x00\n      dup3\n      add\n      mload\n      dup2\n      0x00\n      add\n      sstore\n      0x20\n      dup3\n      add\n      mload\n      dup2\n      0x01\n      add\n      swap1\n      dup2\n      tag_39\n      swap2\n      swap1\n      tag_40\n      jump\t// in\n    tag_39:\n      pop\n      0x40\n      dup3\n      add\n      mload\n      dup2\n      0x02\n      add\n      swap1\n      dup2\n      tag_41\n      swap2\n      swap1\n      tag_40\n      jump\t// in\n    tag_41:\n      pop\n      swap1\n      pop\n      pop\n        /* \"contracts/day_2/mapping.sol\":366:507  function create(uint _id, string memory _name, string memory _faculty) public {... */\n      pop\n      pop\n      pop\n      jump\t// out\n        /* \"contracts/day_2/mapping.sol\":523:727  function update(uint _id, string memory _name, string memory _faculty) public {... */\n    tag_22:\n        /* \"contracts/day_2/mapping.sol\":612:635  Student storage student */\n      0x00\n        /* \"contracts/day_2/mapping.sol\":638:646  students */\n      dup1\n        /* \"contracts/day_2/mapping.sol\":638:651  students[_id] */\n      0x00\n        /* \"contracts/day_2/mapping.sol\":647:650  _id */\n      dup6\n        /* \"contracts/day_2/mapping.sol\":638:651  students[_id] */\n      dup2\n      mstore\n      0x20\n      add\n      swap1\n      dup2\n      mstore\n      0x20\n      add\n      0x00\n      keccak256\n        /* \"contracts/day_2/mapping.sol\":612:651  Student storage student = students[_id] */\n      swap1\n      pop\n        /* \"contracts/day_2/mapping.sol\":677:682  _name */\n      dup3\n        /* \"contracts/day_2/mapping.sol\":662:669  student */\n      dup2\n        /* \"contracts/day_2/mapping.sol\":662:674  student.name */\n      0x01\n      add\n        /* \"contracts/day_2/mapping.sol\":662:682  student.name = _name */\n      swap1\n      dup2\n      tag_43\n      swap2\n      swap1\n      tag_40\n      jump\t// in\n    tag_43:\n      pop\n        /* \"contracts/day_2/mapping.sol\":711:719  _faculty */\n      dup2\n        /* \"contracts/day_2/mapping.sol\":693:700  student */\n      dup2\n        /* \"contracts/day_2/mapping.sol\":693:708  student.faculty */\n      0x02\n      add\n        /* \"contracts/day_2/mapping.sol\":693:719  student.faculty = _faculty */\n      swap1\n      dup2\n      tag_44\n      swap2\n      swap1\n      tag_40\n      jump\t// in\n    tag_44:\n      pop\n        /* \"contracts/day_2/mapping.sol\":601:727  {... */\n      pop\n        /* \"contracts/day_2/mapping.sol\":523:727  function update(uint _id, string memory _name, string memory _faculty) public {... */\n      pop\n      pop\n      pop\n      jump\t// out\n    tag_36:\n      pop\n      dup1\n      sload\n      tag_45\n      swap1\n      tag_24\n      jump\t// in\n    tag_45:\n      0x00\n      dup3\n      sstore\n      dup1\n      0x1f\n      lt\n      tag_47\n      jumpi\n      pop\n      jump(tag_46)\n    tag_47:\n      0x1f\n      add\n      0x20\n      swap1\n      div\n      swap1\n      0x00\n      mstore\n      keccak256(0x00, 0x20)\n      swap1\n      dup2\n      add\n      swap1\n      tag_48\n      swap2\n      swap1\n      tag_49\n      jump\t// in\n    tag_48:\n    tag_46:\n      pop\n      jump\t// out\n    tag_49:\n    tag_50:\n      dup1\n      dup3\n      gt\n      iszero\n      tag_51\n      jumpi\n      0x00\n      dup2\n      0x00\n      swap1\n      sstore\n      pop\n      0x01\n      add\n      jump(tag_50)\n    tag_51:\n      pop\n      swap1\n      jump\t// out\n        /* \"#utility.yul\":7:82   */\n    tag_52:\n        /* \"#utility.yul\":40:46   */\n      0x00\n        /* \"#utility.yul\":73:75   */\n      0x40\n        /* \"#utility.yul\":67:76   */\n      mload\n        /* \"#utility.yul\":57:76   */\n      swap1\n      pop\n        /* \"#utility.yul\":7:82   */\n      swap1\n      jump\t// out\n        /* \"#utility.yul\":88:205   */\n    tag_53:\n        /* \"#utility.yul\":197:198   */\n      0x00\n        /* \"#utility.yul\":194:195   */\n      dup1\n        /* \"#utility.yul\":187:199   */\n      revert\n        /* \"#utility.yul\":211:328   */\n    tag_54:\n        /* \"#utility.yul\":320:321   */\n      0x00\n        /* \"#utility.yul\":317:318   */\n      dup1\n        /* \"#utility.yul\":310:322   */\n      revert\n        /* \"#utility.yul\":334:411   */\n    tag_55:\n        /* \"#utility.yul\":371:378   */\n      0x00\n        /* \"#utility.yul\":400:405   */\n      dup2\n        /* \"#utility.yul\":389:405   */\n      swap1\n      pop\n        /* \"#utility.yul\":334:411   */\n      swap2\n      swap1\n      pop\n      jump\t// out\n        /* \"#utility.yul\":417:539   */\n    tag_56:\n        /* \"#utility.yul\":490:514   */\n      tag_95\n        /* \"#utility.yul\":508:513   */\n      dup2\n        /* \"#utility.yul\":490:514   */\n      tag_55\n      jump\t// in\n    tag_95:\n        /* \"#utility.yul\":483:488   */\n      dup2\n        /* \"#utility.yul\":480:515   */\n      eq\n        /* \"#utility.yul\":470:533   */\n      tag_96\n      jumpi\n        /* \"#utility.yul\":529:530   */\n      0x00\n        /* \"#utility.yul\":526:527   */\n      dup1\n        /* \"#utility.yul\":519:531   */\n      revert\n        /* \"#utility.yul\":470:533   */\n    tag_96:\n        /* \"#utility.yul\":417:539   */\n      pop\n      jump\t// out\n        /* \"#utility.yul\":545:684   */\n    tag_57:\n        /* \"#utility.yul\":591:596   */\n      0x00\n        /* \"#utility.yul\":629:635   */\n      dup2\n        /* \"#utility.yul\":616:636   */\n      calldataload\n        /* \"#utility.yul\":607:636   */\n      swap1\n      pop\n        /* \"#utility.yul\":645:678   */\n      tag_98\n        /* \"#utility.yul\":672:677   */\n      dup2\n        /* \"#utility.yul\":645:678   */\n      tag_56\n      jump\t// in\n    tag_98:\n        /* \"#utility.yul\":545:684   */\n      swap3\n      swap2\n      pop\n      pop\n      jump\t// out\n        /* \"#utility.yul\":690:1019   */\n    tag_9:\n        /* \"#utility.yul\":749:755   */\n      0x00\n        /* \"#utility.yul\":798:800   */\n      0x20\n        /* \"#utility.yul\":786:795   */\n      dup3\n        /* \"#utility.yul\":777:784   */\n      dup5\n        /* \"#utility.yul\":773:796   */\n      sub\n        /* \"#utility.yul\":769:801   */\n      slt\n        /* \"#utility.yul\":766:885   */\n      iszero\n      tag_100\n      jumpi\n        /* \"#utility.yul\":804:883   */\n      tag_101\n      tag_53\n      jump\t// in\n    tag_101:\n        /* \"#utility.yul\":766:885   */\n    tag_100:\n        /* \"#utility.yul\":924:925   */\n      0x00\n        /* \"#utility.yul\":949:1002   */\n      tag_102\n        /* \"#utility.yul\":994:1001   */\n      dup5\n        /* \"#utility.yul\":985:991   */\n      dup3\n        /* \"#utility.yul\":974:983   */\n      dup6\n        /* \"#utility.yul\":970:992   */\n      add\n        /* \"#utility.yul\":949:1002   */\n      tag_57\n      jump\t// in\n    tag_102:\n        /* \"#utility.yul\":939:1002   */\n      swap2\n      pop\n        /* \"#utility.yul\":895:1012   */\n      pop\n        /* \"#utility.yul\":690:1019   */\n      swap3\n      swap2\n      pop\n      pop\n      jump\t// out\n        /* \"#utility.yul\":1025:1143   */\n    tag_58:\n        /* \"#utility.yul\":1112:1136   */\n      tag_104\n        /* \"#utility.yul\":1130:1135   */\n      dup2\n        /* \"#utility.yul\":1112:1136   */\n      tag_55\n      jump\t// in\n    tag_104:\n        /* \"#utility.yul\":1107:1110   */\n      dup3\n        /* \"#utility.yul\":1100:1137   */\n      mstore\n        /* \"#utility.yul\":1025:1143   */\n      pop\n      pop\n      jump\t// out\n        /* \"#utility.yul\":1149:1248   */\n    tag_59:\n        /* \"#utility.yul\":1201:1207   */\n      0x00\n        /* \"#utility.yul\":1235:1240   */\n      dup2\n        /* \"#utility.yul\":1229:1241   */\n      mload\n        /* \"#utility.yul\":1219:1241   */\n      swap1\n      pop\n        /* \"#utility.yul\":1149:1248   */\n      swap2\n      swap1\n      pop\n      jump\t// out\n        /* \"#utility.yul\":1254:1423   */\n    tag_60:\n        /* \"#utility.yul\":1338:1349   */\n      0x00\n        /* \"#utility.yul\":1372:1378   */\n      dup3\n        /* \"#utility.yul\":1367:1370   */\n      dup3\n        /* \"#utility.yul\":1360:1379   */\n      mstore\n        /* \"#utility.yul\":1412:1416   */\n      0x20\n        /* \"#utility.yul\":1407:1410   */\n      dup3\n        /* \"#utility.yul\":1403:1417   */\n      add\n        /* \"#utility.yul\":1388:1417   */\n      swap1\n      pop\n        /* \"#utility.yul\":1254:1423   */\n      swap3\n      swap2\n      pop\n      pop\n      jump\t// out\n        /* \"#utility.yul\":1429:1568   */\n    tag_61:\n        /* \"#utility.yul\":1518:1524   */\n      dup3\n        /* \"#utility.yul\":1513:1516   */\n      dup2\n        /* \"#utility.yul\":1508:1511   */\n      dup4\n        /* \"#utility.yul\":1502:1525   */\n      mcopy\n        /* \"#utility.yul\":1559:1560   */\n      0x00\n        /* \"#utility.yul\":1550:1556   */\n      dup4\n        /* \"#utility.yul\":1545:1548   */\n      dup4\n        /* \"#utility.yul\":1541:1557   */\n      add\n        /* \"#utility.yul\":1534:1561   */\n      mstore\n        /* \"#utility.yul\":1429:1568   */\n      pop\n      pop\n      pop\n      jump\t// out\n        /* \"#utility.yul\":1574:1676   */\n    tag_62:\n        /* \"#utility.yul\":1615:1621   */\n      0x00\n        /* \"#utility.yul\":1666:1668   */\n      0x1f\n        /* \"#utility.yul\":1662:1669   */\n      not\n        /* \"#utility.yul\":1657:1659   */\n      0x1f\n        /* \"#utility.yul\":1650:1655   */\n      dup4\n        /* \"#utility.yul\":1646:1660   */\n      add\n        /* \"#utility.yul\":1642:1670   */\n      and\n        /* \"#utility.yul\":1632:1670   */\n      swap1\n      pop\n        /* \"#utility.yul\":1574:1676   */\n      swap2\n      swap1\n      pop\n      jump\t// out\n        /* \"#utility.yul\":1682:2059   */\n    tag_63:\n        /* \"#utility.yul\":1770:1773   */\n      0x00\n        /* \"#utility.yul\":1798:1837   */\n      tag_110\n        /* \"#utility.yul\":1831:1836   */\n      dup3\n        /* \"#utility.yul\":1798:1837   */\n      tag_59\n      jump\t// in\n    tag_110:\n        /* \"#utility.yul\":1853:1924   */\n      tag_111\n        /* \"#utility.yul\":1917:1923   */\n      dup2\n        /* \"#utility.yul\":1912:1915   */\n      dup6\n        /* \"#utility.yul\":1853:1924   */\n      tag_60\n      jump\t// in\n    tag_111:\n        /* \"#utility.yul\":1846:1924   */\n      swap4\n      pop\n        /* \"#utility.yul\":1933:1998   */\n      tag_112\n        /* \"#utility.yul\":1991:1997   */\n      dup2\n        /* \"#utility.yul\":1986:1989   */\n      dup6\n        /* \"#utility.yul\":1979:1983   */\n      0x20\n        /* \"#utility.yul\":1972:1977   */\n      dup7\n        /* \"#utility.yul\":1968:1984   */\n      add\n        /* \"#utility.yul\":1933:1998   */\n      tag_61\n      jump\t// in\n    tag_112:\n        /* \"#utility.yul\":2023:2052   */\n      tag_113\n        /* \"#utility.yul\":2045:2051   */\n      dup2\n        /* \"#utility.yul\":2023:2052   */\n      tag_62\n      jump\t// in\n    tag_113:\n        /* \"#utility.yul\":2018:2021   */\n      dup5\n        /* \"#utility.yul\":2014:2053   */\n      add\n        /* \"#utility.yul\":2007:2053   */\n      swap2\n      pop\n        /* \"#utility.yul\":1774:2059   */\n      pop\n        /* \"#utility.yul\":1682:2059   */\n      swap3\n      swap2\n      pop\n      pop\n      jump\t// out\n        /* \"#utility.yul\":2065:2689   */\n    tag_12:\n        /* \"#utility.yul\":2254:2258   */\n      0x00\n        /* \"#utility.yul\":2292:2294   */\n      0x60\n        /* \"#utility.yul\":2281:2290   */\n      dup3\n        /* \"#utility.yul\":2277:2295   */\n      add\n        /* \"#utility.yul\":2269:2295   */\n      swap1\n      pop\n        /* \"#utility.yul\":2305:2376   */\n      tag_115\n        /* \"#utility.yul\":2373:2374   */\n      0x00\n        /* \"#utility.yul\":2362:2371   */\n      dup4\n        /* \"#utility.yul\":2358:2375   */\n      add\n        /* \"#utility.yul\":2349:2355   */\n      dup7\n        /* \"#utility.yul\":2305:2376   */\n      tag_58\n      jump\t// in\n    tag_115:\n        /* \"#utility.yul\":2423:2432   */\n      dup2\n        /* \"#utility.yul\":2417:2421   */\n      dup2\n        /* \"#utility.yul\":2413:2433   */\n      sub\n        /* \"#utility.yul\":2408:2410   */\n      0x20\n        /* \"#utility.yul\":2397:2406   */\n      dup4\n        /* \"#utility.yul\":2393:2411   */\n      add\n        /* \"#utility.yul\":2386:2434   */\n      mstore\n        /* \"#utility.yul\":2451:2529   */\n      tag_116\n        /* \"#utility.yul\":2524:2528   */\n      dup2\n        /* \"#utility.yul\":2515:2521   */\n      dup6\n        /* \"#utility.yul\":2451:2529   */\n      tag_63\n      jump\t// in\n    tag_116:\n        /* \"#utility.yul\":2443:2529   */\n      swap1\n      pop\n        /* \"#utility.yul\":2576:2585   */\n      dup2\n        /* \"#utility.yul\":2570:2574   */\n      dup2\n        /* \"#utility.yul\":2566:2586   */\n      sub\n        /* \"#utility.yul\":2561:2563   */\n      0x40\n        /* \"#utility.yul\":2550:2559   */\n      dup4\n        /* \"#utility.yul\":2546:2564   */\n      add\n        /* \"#utility.yul\":2539:2587   */\n      mstore\n        /* \"#utility.yul\":2604:2682   */\n      tag_117\n        /* \"#utility.yul\":2677:2681   */\n      dup2\n        /* \"#utility.yul\":2668:2674   */\n      dup5\n        /* \"#utility.yul\":2604:2682   */\n      tag_63\n      jump\t// in\n    tag_117:\n        /* \"#utility.yul\":2596:2682   */\n      swap1\n      pop\n        /* \"#utility.yul\":2065:2689   */\n      swap5\n      swap4\n      pop\n      pop\n      pop\n      pop\n      jump\t// out\n        /* \"#utility.yul\":2695:2812   */\n    tag_64:\n        /* \"#utility.yul\":2804:2805   */\n      0x00\n        /* \"#utility.yul\":2801:2802   */\n      dup1\n        /* \"#utility.yul\":2794:2806   */\n      revert\n        /* \"#utility.yul\":2818:2935   */\n    tag_65:\n        /* \"#utility.yul\":2927:2928   */\n      0x00\n        /* \"#utility.yul\":2924:2925   */\n      dup1\n        /* \"#utility.yul\":2917:2929   */\n      revert\n        /* \"#utility.yul\":2941:3121   */\n    tag_66:\n        /* \"#utility.yul\":2989:3066   */\n      0x4e487b7100000000000000000000000000000000000000000000000000000000\n        /* \"#utility.yul\":2986:2987   */\n      0x00\n        /* \"#utility.yul\":2979:3067   */\n      mstore\n        /* \"#utility.yul\":3086:3090   */\n      0x41\n        /* \"#utility.yul\":3083:3084   */\n      0x04\n        /* \"#utility.yul\":3076:3091   */\n      mstore\n        /* \"#utility.yul\":3110:3114   */\n      0x24\n        /* \"#utility.yul\":3107:3108   */\n      0x00\n        /* \"#utility.yul\":3100:3115   */\n      revert\n        /* \"#utility.yul\":3127:3408   */\n    tag_67:\n        /* \"#utility.yul\":3210:3237   */\n      tag_122\n        /* \"#utility.yul\":3232:3236   */\n      dup3\n        /* \"#utility.yul\":3210:3237   */\n      tag_62\n      jump\t// in\n    tag_122:\n        /* \"#utility.yul\":3202:3208   */\n      dup2\n        /* \"#utility.yul\":3198:3238   */\n      add\n        /* \"#utility.yul\":3340:3346   */\n      dup2\n        /* \"#utility.yul\":3328:3338   */\n      dup2\n        /* \"#utility.yul\":3325:3347   */\n      lt\n        /* \"#utility.yul\":3304:3322   */\n      0xffffffffffffffff\n        /* \"#utility.yul\":3292:3302   */\n      dup3\n        /* \"#utility.yul\":3289:3323   */\n      gt\n        /* \"#utility.yul\":3286:3348   */\n      or\n        /* \"#utility.yul\":3283:3371   */\n      iszero\n      tag_123\n      jumpi\n        /* \"#utility.yul\":3351:3369   */\n      tag_124\n      tag_66\n      jump\t// in\n    tag_124:\n        /* \"#utility.yul\":3283:3371   */\n    tag_123:\n        /* \"#utility.yul\":3391:3401   */\n      dup1\n        /* \"#utility.yul\":3387:3389   */\n      0x40\n        /* \"#utility.yul\":3380:3402   */\n      mstore\n        /* \"#utility.yul\":3170:3408   */\n      pop\n        /* \"#utility.yul\":3127:3408   */\n      pop\n      pop\n      jump\t// out\n        /* \"#utility.yul\":3414:3543   */\n    tag_68:\n        /* \"#utility.yul\":3448:3454   */\n      0x00\n        /* \"#utility.yul\":3475:3495   */\n      tag_126\n      tag_52\n      jump\t// in\n    tag_126:\n        /* \"#utility.yul\":3465:3495   */\n      swap1\n      pop\n        /* \"#utility.yul\":3504:3537   */\n      tag_127\n        /* \"#utility.yul\":3532:3536   */\n      dup3\n        /* \"#utility.yul\":3524:3530   */\n      dup3\n        /* \"#utility.yul\":3504:3537   */\n      tag_67\n      jump\t// in\n    tag_127:\n        /* \"#utility.yul\":3414:3543   */\n      swap2\n      swap1\n      pop\n      jump\t// out\n        /* \"#utility.yul\":3549:3857   */\n    tag_69:\n        /* \"#utility.yul\":3611:3615   */\n      0x00\n        /* \"#utility.yul\":3701:3719   */\n      0xffffffffffffffff\n        /* \"#utility.yul\":3693:3699   */\n      dup3\n        /* \"#utility.yul\":3690:3720   */\n      gt\n        /* \"#utility.yul\":3687:3743   */\n      iszero\n      tag_129\n      jumpi\n        /* \"#utility.yul\":3723:3741   */\n      tag_130\n      tag_66\n      jump\t// in\n    tag_130:\n        /* \"#utility.yul\":3687:3743   */\n    tag_129:\n        /* \"#utility.yul\":3761:3790   */\n      tag_131\n        /* \"#utility.yul\":3783:3789   */\n      dup3\n        /* \"#utility.yul\":3761:3790   */\n      tag_62\n      jump\t// in\n    tag_131:\n        /* \"#utility.yul\":3753:3790   */\n      swap1\n      pop\n        /* \"#utility.yul\":3845:3849   */\n      0x20\n        /* \"#utility.yul\":3839:3843   */\n      dup2\n        /* \"#utility.yul\":3835:3850   */\n      add\n        /* \"#utility.yul\":3827:3850   */\n      swap1\n      pop\n        /* \"#utility.yul\":3549:3857   */\n      swap2\n      swap1\n      pop\n      jump\t// out\n        /* \"#utility.yul\":3863:4011   */\n    tag_70:\n        /* \"#utility.yul\":3961:3967   */\n      dup3\n        /* \"#utility.yul\":3956:3959   */\n      dup2\n        /* \"#utility.yul\":3951:3954   */\n      dup4\n        /* \"#utility.yul\":3938:3968   */\n      calldatacopy\n        /* \"#utility.yul\":4002:4003   */\n      0x00\n        /* \"#utility.yul\":3993:3999   */\n      dup4\n        /* \"#utility.yul\":3988:3991   */\n      dup4\n        /* \"#utility.yul\":3984:4000   */\n      add\n        /* \"#utility.yul\":3977:4004   */\n      mstore\n        /* \"#utility.yul\":3863:4011   */\n      pop\n      pop\n      pop\n      jump\t// out\n        /* \"#utility.yul\":4017:4442   */\n    tag_71:\n        /* \"#utility.yul\":4095:4100   */\n      0x00\n        /* \"#utility.yul\":4120:4186   */\n      tag_134\n        /* \"#utility.yul\":4136:4185   */\n      tag_135\n        /* \"#utility.yul\":4178:4184   */\n      dup5\n        /* \"#utility.yul\":4136:4185   */\n      tag_69\n      jump\t// in\n    tag_135:\n        /* \"#utility.yul\":4120:4186   */\n      tag_68\n      jump\t// in\n    tag_134:\n        /* \"#utility.yul\":4111:4186   */\n      swap1\n      pop\n        /* \"#utility.yul\":4209:4215   */\n      dup3\n        /* \"#utility.yul\":4202:4207   */\n      dup2\n        /* \"#utility.yul\":4195:4216   */\n      mstore\n        /* \"#utility.yul\":4247:4251   */\n      0x20\n        /* \"#utility.yul\":4240:4245   */\n      dup2\n        /* \"#utility.yul\":4236:4252   */\n      add\n        /* \"#utility.yul\":4285:4288   */\n      dup5\n        /* \"#utility.yul\":4276:4282   */\n      dup5\n        /* \"#utility.yul\":4271:4274   */\n      dup5\n        /* \"#utility.yul\":4267:4283   */\n      add\n        /* \"#utility.yul\":4264:4289   */\n      gt\n        /* \"#utility.yul\":4261:4373   */\n      iszero\n      tag_136\n      jumpi\n        /* \"#utility.yul\":4292:4371   */\n      tag_137\n      tag_65\n      jump\t// in\n    tag_137:\n        /* \"#utility.yul\":4261:4373   */\n    tag_136:\n        /* \"#utility.yul\":4382:4436   */\n      tag_138\n        /* \"#utility.yul\":4429:4435   */\n      dup5\n        /* \"#utility.yul\":4424:4427   */\n      dup3\n        /* \"#utility.yul\":4419:4422   */\n      dup6\n        /* \"#utility.yul\":4382:4436   */\n      tag_70\n      jump\t// in\n    tag_138:\n        /* \"#utility.yul\":4101:4442   */\n      pop\n        /* \"#utility.yul\":4017:4442   */\n      swap4\n      swap3\n      pop\n      pop\n      pop\n      jump\t// out\n        /* \"#utility.yul\":4462:4802   */\n    tag_72:\n        /* \"#utility.yul\":4518:4523   */\n      0x00\n        /* \"#utility.yul\":4567:4570   */\n      dup3\n        /* \"#utility.yul\":4560:4564   */\n      0x1f\n        /* \"#utility.yul\":4552:4558   */\n      dup4\n        /* \"#utility.yul\":4548:4565   */\n      add\n        /* \"#utility.yul\":4544:4571   */\n      slt\n        /* \"#utility.yul\":4534:4656   */\n      tag_140\n      jumpi\n        /* \"#utility.yul\":4575:4654   */\n      tag_141\n      tag_64\n      jump\t// in\n    tag_141:\n        /* \"#utility.yul\":4534:4656   */\n    tag_140:\n        /* \"#utility.yul\":4692:4698   */\n      dup2\n        /* \"#utility.yul\":4679:4699   */\n      calldataload\n        /* \"#utility.yul\":4717:4796   */\n      tag_142\n        /* \"#utility.yul\":4792:4795   */\n      dup5\n        /* \"#utility.yul\":4784:4790   */\n      dup3\n        /* \"#utility.yul\":4777:4781   */\n      0x20\n        /* \"#utility.yul\":4769:4775   */\n      dup7\n        /* \"#utility.yul\":4765:4782   */\n      add\n        /* \"#utility.yul\":4717:4796   */\n      tag_71\n      jump\t// in\n    tag_142:\n        /* \"#utility.yul\":4708:4796   */\n      swap2\n      pop\n        /* \"#utility.yul\":4524:4802   */\n      pop\n        /* \"#utility.yul\":4462:4802   */\n      swap3\n      swap2\n      pop\n      pop\n      jump\t// out\n        /* \"#utility.yul\":4808:5787   */\n    tag_18:\n        /* \"#utility.yul\":4905:4911   */\n      0x00\n        /* \"#utility.yul\":4913:4919   */\n      dup1\n        /* \"#utility.yul\":4921:4927   */\n      0x00\n        /* \"#utility.yul\":4970:4972   */\n      0x60\n        /* \"#utility.yul\":4958:4967   */\n      dup5\n        /* \"#utility.yul\":4949:4956   */\n      dup7\n        /* \"#utility.yul\":4945:4968   */\n      sub\n        /* \"#utility.yul\":4941:4973   */\n      slt\n        /* \"#utility.yul\":4938:5057   */\n      iszero\n      tag_144\n      jumpi\n        /* \"#utility.yul\":4976:5055   */\n      tag_145\n      tag_53\n      jump\t// in\n    tag_145:\n        /* \"#utility.yul\":4938:5057   */\n    tag_144:\n        /* \"#utility.yul\":5096:5097   */\n      0x00\n        /* \"#utility.yul\":5121:5174   */\n      tag_146\n        /* \"#utility.yul\":5166:5173   */\n      dup7\n        /* \"#utility.yul\":5157:5163   */\n      dup3\n        /* \"#utility.yul\":5146:5155   */\n      dup8\n        /* \"#utility.yul\":5142:5164   */\n      add\n        /* \"#utility.yul\":5121:5174   */\n      tag_57\n      jump\t// in\n    tag_146:\n        /* \"#utility.yul\":5111:5174   */\n      swap4\n      pop\n        /* \"#utility.yul\":5067:5184   */\n      pop\n        /* \"#utility.yul\":5251:5253   */\n      0x20\n        /* \"#utility.yul\":5240:5249   */\n      dup5\n        /* \"#utility.yul\":5236:5254   */\n      add\n        /* \"#utility.yul\":5223:5255   */\n      calldataload\n        /* \"#utility.yul\":5282:5300   */\n      0xffffffffffffffff\n        /* \"#utility.yul\":5274:5280   */\n      dup2\n        /* \"#utility.yul\":5271:5301   */\n      gt\n        /* \"#utility.yul\":5268:5385   */\n      iszero\n      tag_147\n      jumpi\n        /* \"#utility.yul\":5304:5383   */\n      tag_148\n      tag_54\n      jump\t// in\n    tag_148:\n        /* \"#utility.yul\":5268:5385   */\n    tag_147:\n        /* \"#utility.yul\":5409:5472   */\n      tag_149\n        /* \"#utility.yul\":5464:5471   */\n      dup7\n        /* \"#utility.yul\":5455:5461   */\n      dup3\n        /* \"#utility.yul\":5444:5453   */\n      dup8\n        /* \"#utility.yul\":5440:5462   */\n      add\n        /* \"#utility.yul\":5409:5472   */\n      tag_72\n      jump\t// in\n    tag_149:\n        /* \"#utility.yul\":5399:5472   */\n      swap3\n      pop\n        /* \"#utility.yul\":5194:5482   */\n      pop\n        /* \"#utility.yul\":5549:5551   */\n      0x40\n        /* \"#utility.yul\":5538:5547   */\n      dup5\n        /* \"#utility.yul\":5534:5552   */\n      add\n        /* \"#utility.yul\":5521:5553   */\n      calldataload\n        /* \"#utility.yul\":5580:5598   */\n      0xffffffffffffffff\n        /* \"#utility.yul\":5572:5578   */\n      dup2\n        /* \"#utility.yul\":5569:5599   */\n      gt\n        /* \"#utility.yul\":5566:5683   */\n      iszero\n      tag_150\n      jumpi\n        /* \"#utility.yul\":5602:5681   */\n      tag_151\n      tag_54\n      jump\t// in\n    tag_151:\n        /* \"#utility.yul\":5566:5683   */\n    tag_150:\n        /* \"#utility.yul\":5707:5770   */\n      tag_152\n        /* \"#utility.yul\":5762:5769   */\n      dup7\n        /* \"#utility.yul\":5753:5759   */\n      dup3\n        /* \"#utility.yul\":5742:5751   */\n      dup8\n        /* \"#utility.yul\":5738:5760   */\n      add\n        /* \"#utility.yul\":5707:5770   */\n      tag_72\n      jump\t// in\n    tag_152:\n        /* \"#utility.yul\":5697:5770   */\n      swap2\n      pop\n        /* \"#utility.yul\":5492:5780   */\n      pop\n        /* \"#utility.yul\":4808:5787   */\n      swap3\n      pop\n      swap3\n      pop\n      swap3\n      jump\t// out\n        /* \"#utility.yul\":5793:5973   */\n    tag_73:\n        /* \"#utility.yul\":5841:5918   */\n      0x4e487b7100000000000000000000000000000000000000000000000000000000\n        /* \"#utility.yul\":5838:5839   */\n      0x00\n        /* \"#utility.yul\":5831:5919   */\n      mstore\n        /* \"#utility.yul\":5938:5942   */\n      0x22\n        /* \"#utility.yul\":5935:5936   */\n      0x04\n        /* \"#utility.yul\":5928:5943   */\n      mstore\n        /* \"#utility.yul\":5962:5966   */\n      0x24\n        /* \"#utility.yul\":5959:5960   */\n      0x00\n        /* \"#utility.yul\":5952:5967   */\n      revert\n        /* \"#utility.yul\":5979:6299   */\n    tag_24:\n        /* \"#utility.yul\":6023:6029   */\n      0x00\n        /* \"#utility.yul\":6060:6061   */\n      0x02\n        /* \"#utility.yul\":6054:6058   */\n      dup3\n        /* \"#utility.yul\":6050:6062   */\n      div\n        /* \"#utility.yul\":6040:6062   */\n      swap1\n      pop\n        /* \"#utility.yul\":6107:6108   */\n      0x01\n        /* \"#utility.yul\":6101:6105   */\n      dup3\n        /* \"#utility.yul\":6097:6109   */\n      and\n        /* \"#utility.yul\":6128:6146   */\n      dup1\n        /* \"#utility.yul\":6118:6199   */\n      tag_155\n      jumpi\n        /* \"#utility.yul\":6184:6188   */\n      0x7f\n        /* \"#utility.yul\":6176:6182   */\n      dup3\n        /* \"#utility.yul\":6172:6189   */\n      and\n        /* \"#utility.yul\":6162:6189   */\n      swap2\n      pop\n        /* \"#utility.yul\":6118:6199   */\n    tag_155:\n        /* \"#utility.yul\":6246:6248   */\n      0x20\n        /* \"#utility.yul\":6238:6244   */\n      dup3\n        /* \"#utility.yul\":6235:6249   */\n      lt\n        /* \"#utility.yul\":6215:6233   */\n      dup2\n        /* \"#utility.yul\":6212:6250   */\n      sub\n        /* \"#utility.yul\":6209:6293   */\n      tag_156\n      jumpi\n        /* \"#utility.yul\":6265:6283   */\n      tag_157\n      tag_73\n      jump\t// in\n    tag_157:\n        /* \"#utility.yul\":6209:6293   */\n    tag_156:\n        /* \"#utility.yul\":6030:6299   */\n      pop\n        /* \"#utility.yul\":5979:6299   */\n      swap2\n      swap1\n      pop\n      jump\t// out\n        /* \"#utility.yul\":6305:6446   */\n    tag_74:\n        /* \"#utility.yul\":6354:6358   */\n      0x00\n        /* \"#utility.yul\":6377:6380   */\n      dup2\n        /* \"#utility.yul\":6369:6380   */\n      swap1\n      pop\n        /* \"#utility.yul\":6400:6403   */\n      dup2\n        /* \"#utility.yul\":6397:6398   */\n      0x00\n        /* \"#utility.yul\":6390:6404   */\n      mstore\n        /* \"#utility.yul\":6434:6438   */\n      0x20\n        /* \"#utility.yul\":6431:6432   */\n      0x00\n        /* \"#utility.yul\":6421:6439   */\n      keccak256\n        /* \"#utility.yul\":6413:6439   */\n      swap1\n      pop\n        /* \"#utility.yul\":6305:6446   */\n      swap2\n      swap1\n      pop\n      jump\t// out\n        /* \"#utility.yul\":6452:6545   */\n    tag_75:\n        /* \"#utility.yul\":6489:6495   */\n      0x00\n        /* \"#utility.yul\":6536:6538   */\n      0x20\n        /* \"#utility.yul\":6531:6533   */\n      0x1f\n        /* \"#utility.yul\":6524:6529   */\n      dup4\n        /* \"#utility.yul\":6520:6534   */\n      add\n        /* \"#utility.yul\":6516:6539   */\n      div\n        /* \"#utility.yul\":6506:6539   */\n      swap1\n      pop\n        /* \"#utility.yul\":6452:6545   */\n      swap2\n      swap1\n      pop\n      jump\t// out\n        /* \"#utility.yul\":6551:6658   */\n    tag_76:\n        /* \"#utility.yul\":6595:6603   */\n      0x00\n        /* \"#utility.yul\":6645:6650   */\n      dup3\n        /* \"#utility.yul\":6639:6643   */\n      dup3\n        /* \"#utility.yul\":6635:6651   */\n      shl\n        /* \"#utility.yul\":6614:6651   */\n      swap1\n      pop\n        /* \"#utility.yul\":6551:6658   */\n      swap3\n      swap2\n      pop\n      pop\n      jump\t// out\n        /* \"#utility.yul\":6664:7057   */\n    tag_77:\n        /* \"#utility.yul\":6733:6739   */\n      0x00\n        /* \"#utility.yul\":6783:6784   */\n      0x08\n        /* \"#utility.yul\":6771:6781   */\n      dup4\n        /* \"#utility.yul\":6767:6785   */\n      mul\n        /* \"#utility.yul\":6806:6903   */\n      tag_162\n        /* \"#utility.yul\":6836:6902   */\n      0xffffffffffffffffffffffffffffffffffffffffffffffffffffffffffffffff\n        /* \"#utility.yul\":6825:6834   */\n      dup3\n        /* \"#utility.yul\":6806:6903   */\n      tag_76\n      jump\t// in\n    tag_162:\n        /* \"#utility.yul\":6924:6963   */\n      tag_163\n        /* \"#utility.yul\":6954:6962   */\n      dup7\n        /* \"#utility.yul\":6943:6952   */\n      dup4\n        /* \"#utility.yul\":6924:6963   */\n      tag_76\n      jump\t// in\n    tag_163:\n        /* \"#utility.yul\":6912:6963   */\n      swap6\n      pop\n        /* \"#utility.yul\":6996:7000   */\n      dup1\n        /* \"#utility.yul\":6992:7001   */\n      not\n        /* \"#utility.yul\":6985:6990   */\n      dup5\n        /* \"#utility.yul\":6981:7002   */\n      and\n        /* \"#utility.yul\":6972:7002   */\n      swap4\n      pop\n        /* \"#utility.yul\":7045:7049   */\n      dup1\n        /* \"#utility.yul\":7035:7043   */\n      dup7\n        /* \"#utility.yul\":7031:7050   */\n      and\n        /* \"#utility.yul\":7024:7029   */\n      dup5\n        /* \"#utility.yul\":7021:7051   */\n      or\n        /* \"#utility.yul\":7011:7051   */\n      swap3\n      pop\n        /* \"#utility.yul\":6740:7057   */\n      pop\n      pop\n        /* \"#utility.yul\":6664:7057   */\n      swap4\n      swap3\n      pop\n      pop\n      pop\n      jump\t// out\n        /* \"#utility.yul\":7063:7123   */\n    tag_78:\n        /* \"#utility.yul\":7091:7094   */\n      0x00\n        /* \"#utility.yul\":7112:7117   */\n      dup2\n        /* \"#utility.yul\":7105:7117   */\n      swap1\n      pop\n        /* \"#utility.yul\":7063:7123   */\n      swap2\n      swap1\n      pop\n      jump\t// out\n        /* \"#utility.yul\":7129:7271   */\n    tag_79:\n        /* \"#utility.yul\":7179:7188   */\n      0x00\n        /* \"#utility.yul\":7212:7265   */\n      tag_166\n        /* \"#utility.yul\":7230:7264   */\n      tag_167\n        /* \"#utility.yul\":7239:7263   */\n      tag_168\n        /* \"#utility.yul\":7257:7262   */\n      dup5\n        /* \"#utility.yul\":7239:7263   */\n      tag_55\n      jump\t// in\n    tag_168:\n        /* \"#utility.yul\":7230:7264   */\n      tag_78\n      jump\t// in\n    tag_167:\n        /* \"#utility.yul\":7212:7265   */\n      tag_55\n      jump\t// in\n    tag_166:\n        /* \"#utility.yul\":7199:7265   */\n      swap1\n      pop\n        /* \"#utility.yul\":7129:7271   */\n      swap2\n      swap1\n      pop\n      jump\t// out\n        /* \"#utility.yul\":7277:7352   */\n    tag_80:\n        /* \"#utility.yul\":7320:7323   */\n      0x00\n        /* \"#utility.yul\":7341:7346   */\n      dup2\n        /* \"#utility.yul\":7334:7346   */\n      swap1\n      pop\n        /* \"#utility.yul\":7277:7352   */\n      swap2\n      swap1\n      pop\n      jump\t// out\n        /* \"#utility.yul\":7358:7627   */\n    tag_81:\n        /* \"#utility.yul\":7468:7507   */\n      tag_171\n        /* \"#utility.yul\":7499:7506   */\n      dup4\n        /* \"#utility.yul\":7468:7507   */\n      tag_79\n      jump\t// in\n    tag_171:\n        /* \"#utility.yul\":7529:7620   */\n      tag_172\n        /* \"#utility.yul\":7578:7619   */\n      tag_173\n        /* \"#utility.yul\":7602:7618   */\n      dup3\n        /* \"#utility.yul\":7578:7619   */\n      tag_80\n      jump\t// in\n    tag_173:\n        /* \"#utility.yul\":7570:7576   */\n      dup5\n        /* \"#utility.yul\":7563:7567   */\n      dup5\n        /* \"#utility.yul\":7557:7568   */\n      sload\n        /* \"#utility.yul\":7529:7620   */\n      tag_77\n      jump\t// in\n    tag_172:\n        /* \"#utility.yul\":7523:7527   */\n      dup3\n        /* \"#utility.yul\":7516:7621   */\n      sstore\n        /* \"#utility.yul\":7434:7627   */\n      pop\n        /* \"#utility.yul\":7358:7627   */\n      pop\n      pop\n      pop\n      jump\t// out\n        /* \"#utility.yul\":7633:7706   */\n    tag_82:\n        /* \"#utility.yul\":7678:7681   */\n      0x00\n        /* \"#utility.yul\":7633:7706   */\n      swap1\n      jump\t// out\n        /* \"#utility.yul\":7712:7901   */\n    tag_83:\n        /* \"#utility.yul\":7789:7821   */\n      tag_176\n      tag_82\n      jump\t// in\n    tag_176:\n        /* \"#utility.yul\":7830:7895   */\n      tag_177\n        /* \"#utility.yul\":7888:7894   */\n      dup2\n        /* \"#utility.yul\":7880:7886   */\n      dup5\n        /* \"#utility.yul\":7874:7878   */\n      dup5\n        /* \"#utility.yul\":7830:7895   */\n      tag_81\n      jump\t// in\n    tag_177:\n        /* \"#utility.yul\":7765:7901   */\n      pop\n        /* \"#utility.yul\":7712:7901   */\n      pop\n      pop\n      jump\t// out\n        /* \"#utility.yul\":7907:8093   */\n    tag_84:\n        /* \"#utility.yul\":7967:8087   */\n    tag_179:\n        /* \"#utility.yul\":7984:7987   */\n      dup2\n        /* \"#utility.yul\":7977:7982   */\n      dup2\n        /* \"#utility.yul\":7974:7988   */\n      lt\n        /* \"#utility.yul\":7967:8087   */\n      iszero\n      tag_181\n      jumpi\n        /* \"#utility.yul\":8038:8077   */\n      tag_182\n        /* \"#utility.yul\":8075:8076   */\n      0x00\n        /* \"#utility.yul\":8068:8073   */\n      dup3\n        /* \"#utility.yul\":8038:8077   */\n      tag_83\n      jump\t// in\n    tag_182:\n        /* \"#utility.yul\":8011:8012   */\n      0x01\n        /* \"#utility.yul\":8004:8009   */\n      dup2\n        /* \"#utility.yul\":8000:8013   */\n      add\n        /* \"#utility.yul\":7991:8013   */\n      swap1\n      pop\n        /* \"#utility.yul\":7967:8087   */\n      jump(tag_179)\n    tag_181:\n        /* \"#utility.yul\":7907:8093   */\n      pop\n      pop\n      jump\t// out\n        /* \"#utility.yul\":8099:8642   */\n    tag_85:\n        /* \"#utility.yul\":8200:8202   */\n      0x1f\n        /* \"#utility.yul\":8195:8198   */\n      dup3\n        /* \"#utility.yul\":8192:8203   */\n      gt\n        /* \"#utility.yul\":8189:8635   */\n      iszero\n      tag_184\n      jumpi\n        /* \"#utility.yul\":8234:8272   */\n      tag_185\n        /* \"#utility.yul\":8266:8271   */\n      dup2\n        /* \"#utility.yul\":8234:8272   */\n      tag_74\n      jump\t// in\n    tag_185:\n        /* \"#utility.yul\":8318:8347   */\n      tag_186\n        /* \"#utility.yul\":8336:8346   */\n      dup5\n        /* \"#utility.yul\":8318:8347   */\n      tag_75\n      jump\t// in\n    tag_186:\n        /* \"#utility.yul\":8308:8316   */\n      dup2\n        /* \"#utility.yul\":8304:8348   */\n      add\n        /* \"#utility.yul\":8501:8503   */\n      0x20\n        /* \"#utility.yul\":8489:8499   */\n      dup6\n        /* \"#utility.yul\":8486:8504   */\n      lt\n        /* \"#utility.yul\":8483:8532   */\n      iszero\n      tag_187\n      jumpi\n        /* \"#utility.yul\":8522:8530   */\n      dup2\n        /* \"#utility.yul\":8507:8530   */\n      swap1\n      pop\n        /* \"#utility.yul\":8483:8532   */\n    tag_187:\n        /* \"#utility.yul\":8545:8625   */\n      tag_188\n        /* \"#utility.yul\":8601:8623   */\n      tag_189\n        /* \"#utility.yul\":8619:8622   */\n      dup6\n        /* \"#utility.yul\":8601:8623   */\n      tag_75\n      jump\t// in\n    tag_189:\n        /* \"#utility.yul\":8591:8599   */\n      dup4\n        /* \"#utility.yul\":8587:8624   */\n      add\n        /* \"#utility.yul\":8574:8585   */\n      dup3\n        /* \"#utility.yul\":8545:8625   */\n      tag_84\n      jump\t// in\n    tag_188:\n        /* \"#utility.yul\":8204:8635   */\n      pop\n      pop\n        /* \"#utility.yul\":8189:8635   */\n    tag_184:\n        /* \"#utility.yul\":8099:8642   */\n      pop\n      pop\n      pop\n      jump\t// out\n        /* \"#utility.yul\":8648:8765   */\n    tag_86:\n        /* \"#utility.yul\":8702:8710   */\n      0x00\n        /* \"#utility.yul\":8752:8757   */\n      dup3\n        /* \"#utility.yul\":8746:8750   */\n      dup3\n        /* \"#utility.yul\":8742:8758   */\n      shr\n        /* \"#utility.yul\":8721:8758   */\n      swap1\n      pop\n        /* \"#utility.yul\":8648:8765   */\n      swap3\n      swap2\n      pop\n      pop\n      jump\t// out\n        /* \"#utility.yul\":8771:8940   */\n    tag_87:\n        /* \"#utility.yul\":8815:8821   */\n      0x00\n        /* \"#utility.yul\":8848:8899   */\n      tag_192\n        /* \"#utility.yul\":8896:8897   */\n      0x00\n        /* \"#utility.yul\":8892:8898   */\n      not\n        /* \"#utility.yul\":8884:8889   */\n      dup5\n        /* \"#utility.yul\":8881:8882   */\n      0x08\n        /* \"#utility.yul\":8877:8890   */\n      mul\n        /* \"#utility.yul\":8848:8899   */\n      tag_86\n      jump\t// in\n    tag_192:\n        /* \"#utility.yul\":8844:8900   */\n      not\n        /* \"#utility.yul\":8929:8933   */\n      dup1\n        /* \"#utility.yul\":8923:8927   */\n      dup4\n        /* \"#utility.yul\":8919:8934   */\n      and\n        /* \"#utility.yul\":8909:8934   */\n      swap2\n      pop\n        /* \"#utility.yul\":8822:8940   */\n      pop\n        /* \"#utility.yul\":8771:8940   */\n      swap3\n      swap2\n      pop\n      pop\n      jump\t// out\n        /* \"#utility.yul\":8945:9240   */\n    tag_88:\n        /* \"#utility.yul\":9021:9025   */\n      0x00\n        /* \"#utility.yul\":9167:9196   */\n      tag_194\n        /* \"#utility.yul\":9192:9195   */\n      dup4\n        /* \"#utility.yul\":9186:9190   */\n      dup4\n        /* \"#utility.yul\":9167:9196   */\n      tag_87\n      jump\t// in\n    tag_194:\n        /* \"#utility.yul\":9159:9196   */\n      swap2\n      pop\n        /* \"#utility.yul\":9229:9232   */\n      dup3\n        /* \"#utility.yul\":9226:9227   */\n      0x02\n        /* \"#utility.yul\":9222:9233   */\n      mul\n        /* \"#utility.yul\":9216:9220   */\n      dup3\n        /* \"#utility.yul\":9213:9234   */\n      or\n        /* \"#utility.yul\":9205:9234   */\n      swap1\n      pop\n        /* \"#utility.yul\":8945:9240   */\n      swap3\n      swap2\n      pop\n      pop\n      jump\t// out\n        /* \"#utility.yul\":9245:10640   */\n    tag_40:\n        /* \"#utility.yul\":9362:9399   */\n      tag_196\n        /* \"#utility.yul\":9395:9398   */\n      dup3\n        /* \"#utility.yul\":9362:9399   */\n      tag_59\n      jump\t// in\n    tag_196:\n        /* \"#utility.yul\":9464:9482   */\n      0xffffffffffffffff\n        /* \"#utility.yul\":9456:9462   */\n      dup2\n        /* \"#utility.yul\":9453:9483   */\n      gt\n        /* \"#utility.yul\":9450:9506   */\n      iszero\n      tag_197\n      jumpi\n        /* \"#utility.yul\":9486:9504   */\n      tag_198\n      tag_66\n      jump\t// in\n    tag_198:\n        /* \"#utility.yul\":9450:9506   */\n    tag_197:\n        /* \"#utility.yul\":9530:9568   */\n      tag_199\n        /* \"#utility.yul\":9562:9566   */\n      dup3\n        /* \"#utility.yul\":9556:9567   */\n      sload\n        /* \"#utility.yul\":9530:9568   */\n      tag_24\n      jump\t// in\n    tag_199:\n        /* \"#utility.yul\":9615:9682   */\n      tag_200\n        /* \"#utility.yul\":9675:9681   */\n      dup3\n        /* \"#utility.yul\":9667:9673   */\n      dup3\n        /* \"#utility.yul\":9661:9665   */\n      dup6\n        /* \"#utility.yul\":9615:9682   */\n      tag_85\n      jump\t// in\n    tag_200:\n        /* \"#utility.yul\":9709:9710   */\n      0x00\n        /* \"#utility.yul\":9733:9737   */\n      0x20\n        /* \"#utility.yul\":9720:9737   */\n      swap1\n      pop\n        /* \"#utility.yul\":9765:9767   */\n      0x1f\n        /* \"#utility.yul\":9757:9763   */\n      dup4\n        /* \"#utility.yul\":9754:9768   */\n      gt\n        /* \"#utility.yul\":9782:9783   */\n      0x01\n        /* \"#utility.yul\":9777:10395   */\n      dup2\n      eq\n      tag_202\n      jumpi\n        /* \"#utility.yul\":10439:10440   */\n      0x00\n        /* \"#utility.yul\":10456:10462   */\n      dup5\n        /* \"#utility.yul\":10453:10530   */\n      iszero\n      tag_203\n      jumpi\n        /* \"#utility.yul\":10505:10514   */\n      dup3\n        /* \"#utility.yul\":10500:10503   */\n      dup8\n        /* \"#utility.yul\":10496:10515   */\n      add\n        /* \"#utility.yul\":10490:10516   */\n      mload\n        /* \"#utility.yul\":10481:10516   */\n      swap1\n      pop\n        /* \"#utility.yul\":10453:10530   */\n    tag_203:\n        /* \"#utility.yul\":10556:10623   */\n      tag_204\n        /* \"#utility.yul\":10616:10622   */\n      dup6\n        /* \"#utility.yul\":10609:10614   */\n      dup3\n        /* \"#utility.yul\":10556:10623   */\n      tag_88\n      jump\t// in\n    tag_204:\n        /* \"#utility.yul\":10550:10554   */\n      dup7\n        /* \"#utility.yul\":10543:10624   */\n      sstore\n        /* \"#utility.yul\":10412:10634   */\n      pop\n        /* \"#utility.yul\":9747:10634   */\n      jump(tag_201)\n        /* \"#utility.yul\":9777:10395   */\n    tag_202:\n        /* \"#utility.yul\":9829:9833   */\n      0x1f\n        /* \"#utility.yul\":9825:9834   */\n      not\n        /* \"#utility.yul\":9817:9823   */\n      dup5\n        /* \"#utility.yul\":9813:9835   */\n      and\n        /* \"#utility.yul\":9863:9900   */\n      tag_205\n        /* \"#utility.yul\":9895:9899   */\n      dup7\n        /* \"#utility.yul\":9863:9900   */\n      tag_74\n      jump\t// in\n    tag_205:\n        /* \"#utility.yul\":9922:9923   */\n      0x00\n        /* \"#utility.yul\":9936:10144   */\n    tag_206:\n        /* \"#utility.yul\":9950:9957   */\n      dup3\n        /* \"#utility.yul\":9947:9948   */\n      dup2\n        /* \"#utility.yul\":9944:9958   */\n      lt\n        /* \"#utility.yul\":9936:10144   */\n      iszero\n      tag_208\n      jumpi\n        /* \"#utility.yul\":10029:10038   */\n      dup5\n        /* \"#utility.yul\":10024:10027   */\n      dup10\n        /* \"#utility.yul\":10020:10039   */\n      add\n        /* \"#utility.yul\":10014:10040   */\n      mload\n        /* \"#utility.yul\":10006:10012   */\n      dup3\n        /* \"#utility.yul\":9999:10041   */\n      sstore\n        /* \"#utility.yul\":10080:10081   */\n      0x01\n        /* \"#utility.yul\":10072:10078   */\n      dup3\n        /* \"#utility.yul\":10068:10082   */\n      add\n        /* \"#utility.yul\":10058:10082   */\n      swap2\n      pop\n        /* \"#utility.yul\":10127:10129   */\n      0x20\n        /* \"#utility.yul\":10116:10125   */\n      dup6\n        /* \"#utility.yul\":10112:10130   */\n      add\n        /* \"#utility.yul\":10099:10130   */\n      swap5\n      pop\n        /* \"#utility.yul\":9973:9977   */\n      0x20\n        /* \"#utility.yul\":9970:9971   */\n      dup2\n        /* \"#utility.yul\":9966:9978   */\n      add\n        /* \"#utility.yul\":9961:9978   */\n      swap1\n      pop\n        /* \"#utility.yul\":9936:10144   */\n      jump(tag_206)\n    tag_208:\n        /* \"#utility.yul\":10172:10178   */\n      dup7\n        /* \"#utility.yul\":10163:10170   */\n      dup4\n        /* \"#utility.yul\":10160:10179   */\n      lt\n        /* \"#utility.yul\":10157:10336   */\n      iszero\n      tag_209\n      jumpi\n        /* \"#utility.yul\":10230:10239   */\n      dup5\n        /* \"#utility.yul\":10225:10228   */\n      dup10\n        /* \"#utility.yul\":10221:10240   */\n      add\n        /* \"#utility.yul\":10215:10241   */\n      mload\n        /* \"#utility.yul\":10273:10321   */\n      tag_210\n        /* \"#utility.yul\":10315:10319   */\n      0x1f\n        /* \"#utility.yul\":10307:10313   */\n      dup10\n        /* \"#utility.yul\":10303:10320   */\n      and\n        /* \"#utility.yul\":10292:10301   */\n      dup3\n        /* \"#utility.yul\":10273:10321   */\n      tag_87\n      jump\t// in\n    tag_210:\n        /* \"#utility.yul\":10265:10271   */\n      dup4\n        /* \"#utility.yul\":10258:10322   */\n      sstore\n        /* \"#utility.yul\":10180:10336   */\n      pop\n        /* \"#utility.yul\":10157:10336   */\n    tag_209:\n        /* \"#utility.yul\":10382:10383   */\n      0x01\n        /* \"#utility.yul\":10378:10379   */\n      0x02\n        /* \"#utility.yul\":10370:10376   */\n      dup9\n        /* \"#utility.yul\":10366:10380   */\n      mul\n        /* \"#utility.yul\":10362:10384   */\n      add\n        /* \"#utility.yul\":10356:10360   */\n      dup9\n        /* \"#utility.yul\":10349:10385   */\n      sstore\n        /* \"#utility.yul\":9784:10395   */\n      pop\n      pop\n      pop\n        /* \"#utility.yul\":9747:10634   */\n    tag_201:\n      pop\n        /* \"#utility.yul\":9337:10640   */\n      pop\n      pop\n      pop\n        /* \"#utility.yul\":9245:10640   */\n      pop\n      pop\n      jump\t// out\n\n    auxdata: 0xa264697066735822122049c201a327079f346ad47ef6db306aa1bb891aa676e54bf0fbb357e0a563808d64736f6c63430008190033\n}\n",
				"bytecode": {
					"linkReferences": {},
					"object": "6080604052348015600e575f80fd5b5061091f8061001c5f395ff3fe608060405234801561000f575f80fd5b506004361061004a575f3560e01c806306ead22e1461004e5780634cc82215146100805780635a4463a81461009c578063f95e0a54146100b8575b5f80fd5b6100686004803603810190610063919061037f565b6100d4565b60405161007793929190610429565b60405180910390f35b61009a6004803603810190610095919061037f565b610205565b005b6100b660048036038101906100b19190610598565b61023f565b005b6100d260048036038101906100cd9190610598565b6102a6565b005b5f602052805f5260405f205f91509050805f0154908060010180546100f89061064d565b80601f01602080910402602001604051908101604052809291908181526020018280546101249061064d565b801561016f5780601f106101465761010080835404028352916020019161016f565b820191905f5260205f20905b81548152906001019060200180831161015257829003601f168201915b5050505050908060020180546101849061064d565b80601f01602080910402602001604051908101604052809291908181526020018280546101b09061064d565b80156101fb5780601f106101d2576101008083540402835291602001916101fb565b820191905f5260205f20905b8154815290600101906020018083116101de57829003601f168201915b5050505050905083565b5f808281526020019081526020015f205f8082015f9055600182015f61022b91906102e3565b600282015f61023a91906102e3565b505050565b6040518060600160405280848152602001838152602001828152505f808581526020019081526020015f205f820151815f01556020820151816001019081610287919061081a565b50604082015181600201908161029d919061081a565b50905050505050565b5f805f8581526020019081526020015f209050828160010190816102ca919061081a565b50818160020190816102dc919061081a565b5050505050565b5080546102ef9061064d565b5f825580601f10610300575061031d565b601f0160209004905f5260205f209081019061031c9190610320565b5b50565b5b80821115610337575f815f905550600101610321565b5090565b5f604051905090565b5f80fd5b5f80fd5b5f819050919050565b61035e8161034c565b8114610368575f80fd5b50565b5f8135905061037981610355565b92915050565b5f6020828403121561039457610393610344565b5b5f6103a18482850161036b565b91505092915050565b6103b38161034c565b82525050565b5f81519050919050565b5f82825260208201905092915050565b8281835e5f83830152505050565b5f601f19601f8301169050919050565b5f6103fb826103b9565b61040581856103c3565b93506104158185602086016103d3565b61041e816103e1565b840191505092915050565b5f60608201905061043c5f8301866103aa565b818103602083015261044e81856103f1565b9050818103604083015261046281846103f1565b9050949350505050565b5f80fd5b5f80fd5b7f4e487b71000000000000000000000000000000000000000000000000000000005f52604160045260245ffd5b6104aa826103e1565b810181811067ffffffffffffffff821117156104c9576104c8610474565b5b80604052505050565b5f6104db61033b565b90506104e782826104a1565b919050565b5f67ffffffffffffffff82111561050657610505610474565b5b61050f826103e1565b9050602081019050919050565b828183375f83830152505050565b5f61053c610537846104ec565b6104d2565b90508281526020810184848401111561055857610557610470565b5b61056384828561051c565b509392505050565b5f82601f83011261057f5761057e61046c565b5b813561058f84826020860161052a565b91505092915050565b5f805f606084860312156105af576105ae610344565b5b5f6105bc8682870161036b565b935050602084013567ffffffffffffffff8111156105dd576105dc610348565b5b6105e98682870161056b565b925050604084013567ffffffffffffffff81111561060a57610609610348565b5b6106168682870161056b565b9150509250925092565b7f4e487b71000000000000000000000000000000000000000000000000000000005f52602260045260245ffd5b5f600282049050600182168061066457607f821691505b60208210810361067757610676610620565b5b50919050565b5f819050815f5260205f209050919050565b5f6020601f8301049050919050565b5f82821b905092915050565b5f600883026106d97fffffffffffffffffffffffffffffffffffffffffffffffffffffffffffffffff8261069e565b6106e3868361069e565b95508019841693508086168417925050509392505050565b5f819050919050565b5f61071e6107196107148461034c565b6106fb565b61034c565b9050919050565b5f819050919050565b61073783610704565b61074b61074382610725565b8484546106aa565b825550505050565b5f90565b61075f610753565b61076a81848461072e565b505050565b5b8181101561078d576107825f82610757565b600181019050610770565b5050565b601f8211156107d2576107a38161067d565b6107ac8461068f565b810160208510156107bb578190505b6107cf6107c78561068f565b83018261076f565b50505b505050565b5f82821c905092915050565b5f6107f25f19846008026107d7565b1980831691505092915050565b5f61080a83836107e3565b9150826002028217905092915050565b610823826103b9565b67ffffffffffffffff81111561083c5761083b610474565b5b610846825461064d565b610851828285610791565b5f60209050601f831160018114610882575f8415610870578287015190505b61087a85826107ff565b8655506108e1565b601f1984166108908661067d565b5f5b828110156108b757848901518255600182019150602085019450602081019050610892565b868310156108d457848901516108d0601f8916826107e3565b8355505b6001600288020188555050505b50505050505056fea264697066735822122049c201a327079f346ad47ef6db306aa1bb891aa676e54bf0fbb357e0a563808d64736f6c63430008190033",
					"opcodes": "PUSH1 0x80 PUSH1 0x40 MSTORE CALLVALUE DUP1 ISZERO PUSH1 0xE JUMPI PUSH0 DUP1 REVERT JUMPDEST POP PUSH2 0x91F DUP1 PUSH2 0x1C PUSH0 CODECOPY PUSH0 RETURN INVALID PUSH1 0x80 PUSH1 0x40 MSTORE CALLVALUE DUP1 ISZERO PUSH2 0xF JUMPI PUSH0 DUP1 REVERT JUMPDEST POP PUSH1 0x4 CALLDATASIZE LT PUSH2 0x4A JUMPI PUSH0 CALLDATALOAD PUSH1 0xE0 SHR DUP1 PUSH4 0x6EAD22E EQ PUSH2 0x4E JUMPI DUP1 PUSH4 0x4CC82215 EQ PUSH2 0x80 JUMPI DUP1 PUSH4 0x5A4463A8 EQ PUSH2 0x9C JUMPI DUP1 PUSH4 0xF95E0A54 EQ PUSH2 0xB8 JUMPI JUMPDEST PUSH0 DUP1 REVERT JUMPDEST PUSH2 0x68 PUSH1 0x4 DUP1 CALLDATASIZE SUB DUP2 ADD SWAP1 PUSH2 0x63 SWAP2 SWAP1 PUSH2 0x37F JUMP JUMPDEST PUSH2 0xD4 JUMP JUMPDEST PUSH1 0x40 MLOAD PUSH2 0x77 SWAP4 SWAP3 SWAP2 SWAP1 PUSH2 0x429 JUMP JUMPDEST PUSH1 0x40 MLOAD DUP1 SWAP2 SUB SWAP1 RETURN JUMPDEST PUSH2 0x9A PUSH1 0x4 DUP1 CALLDATASIZE SUB DUP2 ADD SWAP1 PUSH2 0x95 SWAP2 SWAP1 PUSH2 0x37F JUMP JUMPDEST PUSH2 0x205 JUMP JUMPDEST STOP JUMPDEST PUSH2 0xB6 PUSH1 0x4 DUP1 CALLDATASIZE SUB DUP2 ADD SWAP1 PUSH2 0xB1 SWAP2 SWAP1 PUSH2 0x598 JUMP JUMPDEST PUSH2 0x23F JUMP JUMPDEST STOP JUMPDEST PUSH2 0xD2 PUSH1 0x4 DUP1 CALLDATASIZE SUB DUP2 ADD SWAP1 PUSH2 0xCD SWAP2 SWAP1 PUSH2 0x598 JUMP JUMPDEST PUSH2 0x2A6 JUMP JUMPDEST STOP JUMPDEST PUSH0 PUSH1 0x20 MSTORE DUP1 PUSH0 MSTORE PUSH1 0x40 PUSH0 KECCAK256 PUSH0 SWAP2 POP SWAP1 POP DUP1 PUSH0 ADD SLOAD SWAP1 DUP1 PUSH1 0x1 ADD DUP1 SLOAD PUSH2 0xF8 SWAP1 PUSH2 0x64D JUMP JUMPDEST DUP1 PUSH1 0x1F ADD PUSH1 0x20 DUP1 SWAP2 DIV MUL PUSH1 0x20 ADD PUSH1 0x40 MLOAD SWAP1 DUP2 ADD PUSH1 0x40 MSTORE DUP1 SWAP3 SWAP2 SWAP1 DUP2 DUP2 MSTORE PUSH1 0x20 ADD DUP3 DUP1 SLOAD PUSH2 0x124 SWAP1 PUSH2 0x64D JUMP JUMPDEST DUP1 ISZERO PUSH2 0x16F JUMPI DUP1 PUSH1 0x1F LT PUSH2 0x146 JUMPI PUSH2 0x100 DUP1 DUP4 SLOAD DIV MUL DUP4 MSTORE SWAP2 PUSH1 0x20 ADD SWAP2 PUSH2 0x16F JUMP JUMPDEST DUP3 ADD SWAP2 SWAP1 PUSH0 MSTORE PUSH1 0x20 PUSH0 KECCAK256 SWAP1 JUMPDEST DUP2 SLOAD DUP2 MSTORE SWAP1 PUSH1 0x1 ADD SWAP1 PUSH1 0x20 ADD DUP1 DUP4 GT PUSH2 0x152 JUMPI DUP3 SWAP1 SUB PUSH1 0x1F AND DUP3 ADD SWAP2 JUMPDEST POP POP POP POP POP SWAP1 DUP1 PUSH1 0x2 ADD DUP1 SLOAD PUSH2 0x184 SWAP1 PUSH2 0x64D JUMP JUMPDEST DUP1 PUSH1 0x1F ADD PUSH1 0x20 DUP1 SWAP2 DIV MUL PUSH1 0x20 ADD PUSH1 0x40 MLOAD SWAP1 DUP2 ADD PUSH1 0x40 MSTORE DUP1 SWAP3 SWAP2 SWAP1 DUP2 DUP2 MSTORE PUSH1 0x20 ADD DUP3 DUP1 SLOAD PUSH2 0x1B0 SWAP1 PUSH2 0x64D JUMP JUMPDEST DUP1 ISZERO PUSH2 0x1FB JUMPI DUP1 PUSH1 0x1F LT PUSH2 0x1D2 JUMPI PUSH2 0x100 DUP1 DUP4 SLOAD DIV MUL DUP4 MSTORE SWAP2 PUSH1 0x20 ADD SWAP2 PUSH2 0x1FB JUMP JUMPDEST DUP3 ADD SWAP2 SWAP1 PUSH0 MSTORE PUSH1 0x20 PUSH0 KECCAK256 SWAP1 JUMPDEST DUP2 SLOAD DUP2 MSTORE SWAP1 PUSH1 0x1 ADD SWAP1 PUSH1 0x20 ADD DUP1 DUP4 GT PUSH2 0x1DE JUMPI DUP3 SWAP1 SUB PUSH1 0x1F AND DUP3 ADD SWAP2 JUMPDEST POP POP POP POP POP SWAP1 POP DUP4 JUMP JUMPDEST PUSH0 DUP1 DUP3 DUP2 MSTORE PUSH1 0x20 ADD SWAP1 DUP2 MSTORE PUSH1 0x20 ADD PUSH0 KECCAK256 PUSH0 DUP1 DUP3 ADD PUSH0 SWAP1 SSTORE PUSH1 0x1 DUP3 ADD PUSH0 PUSH2 0x22B SWAP2 SWAP1 PUSH2 0x2E3 JUMP JUMPDEST PUSH1 0x2 DUP3 ADD PUSH0 PUSH2 0x23A SWAP2 SWAP1 PUSH2 0x2E3 JUMP JUMPDEST POP POP POP JUMP JUMPDEST PUSH1 0x40 MLOAD DUP1 PUSH1 0x60 ADD PUSH1 0x40 MSTORE DUP1 DUP5 DUP2 MSTORE PUSH1 0x20 ADD DUP4 DUP2 MSTORE PUSH1 0x20 ADD DUP3 DUP2 MSTORE POP PUSH0 DUP1 DUP6 DUP2 MSTORE PUSH1 0x20 ADD SWAP1 DUP2 MSTORE PUSH1 0x20 ADD PUSH0 KECCAK256 PUSH0 DUP3 ADD MLOAD DUP2 PUSH0 ADD SSTORE PUSH1 0x20 DUP3 ADD MLOAD DUP2 PUSH1 0x1 ADD SWAP1 DUP2 PUSH2 0x287 SWAP2 SWAP1 PUSH2 0x81A JUMP JUMPDEST POP PUSH1 0x40 DUP3 ADD MLOAD DUP2 PUSH1 0x2 ADD SWAP1 DUP2 PUSH2 0x29D SWAP2 SWAP1 PUSH2 0x81A JUMP JUMPDEST POP SWAP1 POP POP POP POP POP JUMP JUMPDEST PUSH0 DUP1 PUSH0 DUP6 DUP2 MSTORE PUSH1 0x20 ADD SWAP1 DUP2 MSTORE PUSH1 0x20 ADD PUSH0 KECCAK256 SWAP1 POP DUP3 DUP2 PUSH1 0x1 ADD SWAP1 DUP2 PUSH2 0x2CA SWAP2 SWAP1 PUSH2 0x81A JUMP JUMPDEST POP DUP2 DUP2 PUSH1 0x2 ADD SWAP1 DUP2 PUSH2 0x2DC SWAP2 SWAP1 PUSH2 0x81A JUMP JUMPDEST POP POP POP POP POP JUMP JUMPDEST POP DUP1 SLOAD PUSH2 0x2EF SWAP1 PUSH2 0x64D JUMP JUMPDEST PUSH0 DUP3 SSTORE DUP1 PUSH1 0x1F LT PUSH2 0x300 JUMPI POP PUSH2 0x31D JUMP JUMPDEST PUSH1 0x1F ADD PUSH1 0x20 SWAP1 DIV SWAP1 PUSH0 MSTORE PUSH1 0x20 PUSH0 KECCAK256 SWAP1 DUP2 ADD SWAP1 PUSH2 0x31C SWAP2 SWAP1 PUSH2 0x320 JUMP JUMPDEST JUMPDEST POP JUMP JUMPDEST JUMPDEST DUP1 DUP3 GT ISZERO PUSH2 0x337 JUMPI PUSH0 DUP2 PUSH0 SWAP1 SSTORE POP PUSH1 0x1 ADD PUSH2 0x321 JUMP JUMPDEST POP SWAP1 JUMP JUMPDEST PUSH0 PUSH1 0x40 MLOAD SWAP1 POP SWAP1 JUMP JUMPDEST PUSH0 DUP1 REVERT JUMPDEST PUSH0 DUP1 REVERT JUMPDEST PUSH0 DUP2 SWAP1 POP SWAP2 SWAP1 POP JUMP JUMPDEST PUSH2 0x35E DUP2 PUSH2 0x34C JUMP JUMPDEST DUP2 EQ PUSH2 0x368 JUMPI PUSH0 DUP1 REVERT JUMPDEST POP JUMP JUMPDEST PUSH0 DUP2 CALLDATALOAD SWAP1 POP PUSH2 0x379 DUP2 PUSH2 0x355 JUMP JUMPDEST SWAP3 SWAP2 POP POP JUMP JUMPDEST PUSH0 PUSH1 0x20 DUP3 DUP5 SUB SLT ISZERO PUSH2 0x394 JUMPI PUSH2 0x393 PUSH2 0x344 JUMP JUMPDEST JUMPDEST PUSH0 PUSH2 0x3A1 DUP5 DUP3 DUP6 ADD PUSH2 0x36B JUMP JUMPDEST SWAP2 POP POP SWAP3 SWAP2 POP POP JUMP JUMPDEST PUSH2 0x3B3 DUP2 PUSH2 0x34C JUMP JUMPDEST DUP3 MSTORE POP POP JUMP JUMPDEST PUSH0 DUP2 MLOAD SWAP1 POP SWAP2 SWAP1 POP JUMP JUMPDEST PUSH0 DUP3 DUP3 MSTORE PUSH1 0x20 DUP3 ADD SWAP1 POP SWAP3 SWAP2 POP POP JUMP JUMPDEST DUP3 DUP2 DUP4 MCOPY PUSH0 DUP4 DUP4 ADD MSTORE POP POP POP JUMP JUMPDEST PUSH0 PUSH1 0x1F NOT PUSH1 0x1F DUP4 ADD AND SWAP1 POP SWAP2 SWAP1 POP JUMP JUMPDEST PUSH0 PUSH2 0x3FB DUP3 PUSH2 0x3B9 JUMP JUMPDEST PUSH2 0x405 DUP2 DUP6 PUSH2 0x3C3 JUMP JUMPDEST SWAP4 POP PUSH2 0x415 DUP2 DUP6 PUSH1 0x20 DUP7 ADD PUSH2 0x3D3 JUMP JUMPDEST PUSH2 0x41E DUP2 PUSH2 0x3E1 JUMP JUMPDEST DUP5 ADD SWAP2 POP POP SWAP3 SWAP2 POP POP JUMP JUMPDEST PUSH0 PUSH1 0x60 DUP3 ADD SWAP1 POP PUSH2 0x43C PUSH0 DUP4 ADD DUP7 PUSH2 0x3AA JUMP JUMPDEST DUP2 DUP2 SUB PUSH1 0x20 DUP4 ADD MSTORE PUSH2 0x44E DUP2 DUP6 PUSH2 0x3F1 JUMP JUMPDEST SWAP1 POP DUP2 DUP2 SUB PUSH1 0x40 DUP4 ADD MSTORE PUSH2 0x462 DUP2 DUP5 PUSH2 0x3F1 JUMP JUMPDEST SWAP1 POP SWAP5 SWAP4 POP POP POP POP JUMP JUMPDEST PUSH0 DUP1 REVERT JUMPDEST PUSH0 DUP1 REVERT JUMPDEST PUSH32 0x4E487B7100000000000000000000000000000000000000000000000000000000 PUSH0 MSTORE PUSH1 0x41 PUSH1 0x4 MSTORE PUSH1 0x24 PUSH0 REVERT JUMPDEST PUSH2 0x4AA DUP3 PUSH2 0x3E1 JUMP JUMPDEST DUP2 ADD DUP2 DUP2 LT PUSH8 0xFFFFFFFFFFFFFFFF DUP3 GT OR ISZERO PUSH2 0x4C9 JUMPI PUSH2 0x4C8 PUSH2 0x474 JUMP JUMPDEST JUMPDEST DUP1 PUSH1 0x40 MSTORE POP POP POP JUMP JUMPDEST PUSH0 PUSH2 0x4DB PUSH2 0x33B JUMP JUMPDEST SWAP1 POP PUSH2 0x4E7 DUP3 DUP3 PUSH2 0x4A1 JUMP JUMPDEST SWAP2 SWAP1 POP JUMP JUMPDEST PUSH0 PUSH8 0xFFFFFFFFFFFFFFFF DUP3 GT ISZERO PUSH2 0x506 JUMPI PUSH2 0x505 PUSH2 0x474 JUMP JUMPDEST JUMPDEST PUSH2 0x50F DUP3 PUSH2 0x3E1 JUMP JUMPDEST SWAP1 POP PUSH1 0x20 DUP2 ADD SWAP1 POP SWAP2 SWAP1 POP JUMP JUMPDEST DUP3 DUP2 DUP4 CALLDATACOPY PUSH0 DUP4 DUP4 ADD MSTORE POP POP POP JUMP JUMPDEST PUSH0 PUSH2 0x53C PUSH2 0x537 DUP5 PUSH2 0x4EC JUMP JUMPDEST PUSH2 0x4D2 JUMP JUMPDEST SWAP1 POP DUP3 DUP2 MSTORE PUSH1 0x20 DUP2 ADD DUP5 DUP5 DUP5 ADD GT ISZERO PUSH2 0x558 JUMPI PUSH2 0x557 PUSH2 0x470 JUMP JUMPDEST JUMPDEST PUSH2 0x563 DUP5 DUP3 DUP6 PUSH2 0x51C JUMP JUMPDEST POP SWAP4 SWAP3 POP POP POP JUMP JUMPDEST PUSH0 DUP3 PUSH1 0x1F DUP4 ADD SLT PUSH2 0x57F JUMPI PUSH2 0x57E PUSH2 0x46C JUMP JUMPDEST JUMPDEST DUP2 CALLDATALOAD PUSH2 0x58F DUP5 DUP3 PUSH1 0x20 DUP7 ADD PUSH2 0x52A JUMP JUMPDEST SWAP2 POP POP SWAP3 SWAP2 POP POP JUMP JUMPDEST PUSH0 DUP1 PUSH0 PUSH1 0x60 DUP5 DUP7 SUB SLT ISZERO PUSH2 0x5AF JUMPI PUSH2 0x5AE PUSH2 0x344 JUMP JUMPDEST JUMPDEST PUSH0 PUSH2 0x5BC DUP7 DUP3 DUP8 ADD PUSH2 0x36B JUMP JUMPDEST SWAP4 POP POP PUSH1 0x20 DUP5 ADD CALLDATALOAD PUSH8 0xFFFFFFFFFFFFFFFF DUP2 GT ISZERO PUSH2 0x5DD JUMPI PUSH2 0x5DC PUSH2 0x348 JUMP JUMPDEST JUMPDEST PUSH2 0x5E9 DUP7 DUP3 DUP8 ADD PUSH2 0x56B JUMP JUMPDEST SWAP3 POP POP PUSH1 0x40 DUP5 ADD CALLDATALOAD PUSH8 0xFFFFFFFFFFFFFFFF DUP2 GT ISZERO PUSH2 0x60A JUMPI PUSH2 0x609 PUSH2 0x348 JUMP JUMPDEST JUMPDEST PUSH2 0x616 DUP7 DUP3 DUP8 ADD PUSH2 0x56B JUMP JUMPDEST SWAP2 POP POP SWAP3 POP SWAP3 POP SWAP3 JUMP JUMPDEST PUSH32 0x4E487B7100000000000000000000000000000000000000000000000000000000 PUSH0 MSTORE PUSH1 0x22 PUSH1 0x4 MSTORE PUSH1 0x24 PUSH0 REVERT JUMPDEST PUSH0 PUSH1 0x2 DUP3 DIV SWAP1 POP PUSH1 0x1 DUP3 AND DUP1 PUSH2 0x664 JUMPI PUSH1 0x7F DUP3 AND SWAP2 POP JUMPDEST PUSH1 0x20 DUP3 LT DUP2 SUB PUSH2 0x677 JUMPI PUSH2 0x676 PUSH2 0x620 JUMP JUMPDEST JUMPDEST POP SWAP2 SWAP1 POP JUMP JUMPDEST PUSH0 DUP2 SWAP1 POP DUP2 PUSH0 MSTORE PUSH1 0x20 PUSH0 KECCAK256 SWAP1 POP SWAP2 SWAP1 POP JUMP JUMPDEST PUSH0 PUSH1 0x20 PUSH1 0x1F DUP4 ADD DIV SWAP1 POP SWAP2 SWAP1 POP JUMP JUMPDEST PUSH0 DUP3 DUP3 SHL SWAP1 POP SWAP3 SWAP2 POP POP JUMP JUMPDEST PUSH0 PUSH1 0x8 DUP4 MUL PUSH2 0x6D9 PUSH32 0xFFFFFFFFFFFFFFFFFFFFFFFFFFFFFFFFFFFFFFFFFFFFFFFFFFFFFFFFFFFFFFFF DUP3 PUSH2 0x69E JUMP JUMPDEST PUSH2 0x6E3 DUP7 DUP4 PUSH2 0x69E JUMP JUMPDEST SWAP6 POP DUP1 NOT DUP5 AND SWAP4 POP DUP1 DUP7 AND DUP5 OR SWAP3 POP POP POP SWAP4 SWAP3 POP POP POP JUMP JUMPDEST PUSH0 DUP2 SWAP1 POP SWAP2 SWAP1 POP JUMP JUMPDEST PUSH0 PUSH2 0x71E PUSH2 0x719 PUSH2 0x714 DUP5 PUSH2 0x34C JUMP JUMPDEST PUSH2 0x6FB JUMP JUMPDEST PUSH2 0x34C JUMP JUMPDEST SWAP1 POP SWAP2 SWAP1 POP JUMP JUMPDEST PUSH0 DUP2 SWAP1 POP SWAP2 SWAP1 POP JUMP JUMPDEST PUSH2 0x737 DUP4 PUSH2 0x704 JUMP JUMPDEST PUSH2 0x74B PUSH2 0x743 DUP3 PUSH2 0x725 JUMP JUMPDEST DUP5 DUP5 SLOAD PUSH2 0x6AA JUMP JUMPDEST DUP3 SSTORE POP POP POP POP JUMP JUMPDEST PUSH0 SWAP1 JUMP JUMPDEST PUSH2 0x75F PUSH2 0x753 JUMP JUMPDEST PUSH2 0x76A DUP2 DUP5 DUP5 PUSH2 0x72E JUMP JUMPDEST POP POP POP JUMP JUMPDEST JUMPDEST DUP2 DUP2 LT ISZERO PUSH2 0x78D JUMPI PUSH2 0x782 PUSH0 DUP3 PUSH2 0x757 JUMP JUMPDEST PUSH1 0x1 DUP2 ADD SWAP1 POP PUSH2 0x770 JUMP JUMPDEST POP POP JUMP JUMPDEST PUSH1 0x1F DUP3 GT ISZERO PUSH2 0x7D2 JUMPI PUSH2 0x7A3 DUP2 PUSH2 0x67D JUMP JUMPDEST PUSH2 0x7AC DUP5 PUSH2 0x68F JUMP JUMPDEST DUP2 ADD PUSH1 0x20 DUP6 LT ISZERO PUSH2 0x7BB JUMPI DUP2 SWAP1 POP JUMPDEST PUSH2 0x7CF PUSH2 0x7C7 DUP6 PUSH2 0x68F JUMP JUMPDEST DUP4 ADD DUP3 PUSH2 0x76F JUMP JUMPDEST POP POP JUMPDEST POP POP POP JUMP JUMPDEST PUSH0 DUP3 DUP3 SHR SWAP1 POP SWAP3 SWAP2 POP POP JUMP JUMPDEST PUSH0 PUSH2 0x7F2 PUSH0 NOT DUP5 PUSH1 0x8 MUL PUSH2 0x7D7 JUMP JUMPDEST NOT DUP1 DUP4 AND SWAP2 POP POP SWAP3 SWAP2 POP POP JUMP JUMPDEST PUSH0 PUSH2 0x80A DUP4 DUP4 PUSH2 0x7E3 JUMP JUMPDEST SWAP2 POP DUP3 PUSH1 0x2 MUL DUP3 OR SWAP1 POP SWAP3 SWAP2 POP POP JUMP JUMPDEST PUSH2 0x823 DUP3 PUSH2 0x3B9 JUMP JUMPDEST PUSH8 0xFFFFFFFFFFFFFFFF DUP2 GT ISZERO PUSH2 0x83C JUMPI PUSH2 0x83B PUSH2 0x474 JUMP JUMPDEST JUMPDEST PUSH2 0x846 DUP3 SLOAD PUSH2 0x64D JUMP JUMPDEST PUSH2 0x851 DUP3 DUP3 DUP6 PUSH2 0x791 JUMP JUMPDEST PUSH0 PUSH1 0x20 SWAP1 POP PUSH1 0x1F DUP4 GT PUSH1 0x1 DUP2 EQ PUSH2 0x882 JUMPI PUSH0 DUP5 ISZERO PUSH2 0x870 JUMPI DUP3 DUP8 ADD MLOAD SWAP1 POP JUMPDEST PUSH2 0x87A DUP6 DUP3 PUSH2 0x7FF JUMP JUMPDEST DUP7 SSTORE POP PUSH2 0x8E1 JUMP JUMPDEST PUSH1 0x1F NOT DUP5 AND PUSH2 0x890 DUP7 PUSH2 0x67D JUMP JUMPDEST PUSH0 JUMPDEST DUP3 DUP2 LT ISZERO PUSH2 0x8B7 JUMPI DUP5 DUP10 ADD MLOAD DUP3 SSTORE PUSH1 0x1 DUP3 ADD SWAP2 POP PUSH1 0x20 DUP6 ADD SWAP5 POP PUSH1 0x20 DUP2 ADD SWAP1 POP PUSH2 0x892 JUMP JUMPDEST DUP7 DUP4 LT ISZERO PUSH2 0x8D4 JUMPI DUP5 DUP10 ADD MLOAD PUSH2 0x8D0 PUSH1 0x1F DUP10 AND DUP3 PUSH2 0x7E3 JUMP JUMPDEST DUP4 SSTORE POP JUMPDEST PUSH1 0x1 PUSH1 0x2 DUP9 MUL ADD DUP9 SSTORE POP POP POP JUMPDEST POP POP POP POP POP POP JUMP INVALID LOG2 PUSH5 0x6970667358 0x22 SLT KECCAK256 BLOBHASH 0xC2 ADD LOG3 0x27 SMOD SWAP16 CALLVALUE PUSH11 0xD47EF6DB306AA1BB891AA6 PUSH23 0xE54BF0FBB357E0A563808D64736F6C6343000819003300 "
				},
				"gasEstimates": {
					"creation": {
						"codeDepositCost": "467000",
						"executionCost": "497",
						"totalCost": "467497"
					},
					"external": {
						"create(uint256,string,string)": "infinite",
						"remove(uint256)": "infinite",
						"students(uint256)": "infinite",
						"update(uint256,string,string)": "infinite"
					}
				},
				"methodIdentifiers": {
					"create(uint256,string,string)": "5a4463a8",
					"remove(uint256)": "4cc82215",
					"students(uint256)": "06ead22e",
					"update(uint256,string,string)": "f95e0a54"
				}
			},
			"storageLayout": {
				"storage": [
					{
						"astId": 13,
						"contract": "contracts/day_2/mapping.sol:lMapping",
						"label": "students",
						"offset": 0,
						"slot": "0",
						"type": "t_mapping(t_uint256,t_struct(Student)8_storage)"
					}
				],
				"types": {
					"t_mapping(t_uint256,t_struct(Student)8_storage)": {
						"encoding": "mapping",
						"key": "t_uint256",
						"label": "mapping(uint256 => struct lMapping.Student)",
						"numberOfBytes": "32",
						"value": "t_struct(Student)8_storage"
					},
					"t_string_storage": {
						"encoding": "bytes",
						"label": "string",
						"numberOfBytes": "32"
					},
					"t_struct(Student)8_storage": {
						"encoding": "inplace",
						"label": "struct lMapping.Student",
						"members": [
							{
								"astId": 3,
								"contract": "contracts/day_2/mapping.sol:lMapping",
								"label": "id",
								"offset": 0,
								"slot": "0",
								"type": "t_uint256"
							},
							{
								"astId": 5,
								"contract": "contracts/day_2/mapping.sol:lMapping",
								"label": "name",
								"offset": 0,
								"slot": "1",
								"type": "t_string_storage"
							},
							{
								"astId": 7,
								"contract": "contracts/day_2/mapping.sol:lMapping",
								"label": "faculty",
								"offset": 0,
								"slot": "2",
								"type": "t_string_storage"
							}
						],
						"numberOfBytes": "96"
					},
					"t_uint256": {
						"encoding": "inplace",
						"label": "uint256",
						"numberOfBytes": "32"
					}
				}
			},
			"userdoc": {
				"kind": "user",
				"methods": {},
				"version": 1
			}
		}
	}
}